{
  "contractName": "Distributions_v0",
  "abi": [
    {
      "anonymous": false,
      "inputs": [
        {
          "indexed": false,
          "internalType": "uint256",
          "name": "round",
          "type": "uint256"
        },
        {
          "indexed": false,
          "internalType": "uint256",
          "name": "totalPoints",
          "type": "uint256"
        },
        {
          "indexed": false,
          "internalType": "uint256",
          "name": "sharedOwnersPoints",
          "type": "uint256"
        }
      ],
      "name": "AdvanceRound",
      "type": "event"
    },
    {
      "anonymous": false,
      "inputs": [
        {
          "indexed": false,
          "internalType": "uint256",
          "name": "round",
          "type": "uint256"
        },
        {
          "indexed": true,
          "internalType": "address",
          "name": "user",
          "type": "address"
        },
        {
          "indexed": false,
          "internalType": "uint256",
          "name": "karma",
          "type": "uint256"
        },
        {
          "indexed": false,
          "internalType": "uint256",
          "name": "points",
          "type": "uint256"
        }
      ],
      "name": "ClaimPoints",
      "type": "event"
    },
    {
      "anonymous": false,
      "inputs": [
        {
          "indexed": false,
          "internalType": "address",
          "name": "_karmaSource",
          "type": "address"
        },
        {
          "indexed": false,
          "internalType": "address",
          "name": "_prevKarmaSource",
          "type": "address"
        }
      ],
      "name": "KarmaSourceUpdated",
      "type": "event"
    },
    {
      "anonymous": false,
      "inputs": [
        {
          "indexed": true,
          "internalType": "address",
          "name": "previousOwner",
          "type": "address"
        },
        {
          "indexed": true,
          "internalType": "address",
          "name": "newOwner",
          "type": "address"
        }
      ],
      "name": "OwnershipTransferred",
      "type": "event"
    },
    {
      "anonymous": false,
      "inputs": [
        {
          "indexed": true,
          "internalType": "address",
          "name": "oldRelayHub",
          "type": "address"
        },
        {
          "indexed": true,
          "internalType": "address",
          "name": "newRelayHub",
          "type": "address"
        }
      ],
      "name": "RelayHubChanged",
      "type": "event"
    },
    {
      "anonymous": false,
      "inputs": [
        {
          "indexed": false,
          "internalType": "uint256",
          "name": "roundsBeforeExpiration",
          "type": "uint256"
        }
      ],
      "name": "RoundsBeforeExpirationUpdated",
      "type": "event"
    },
    {
      "anonymous": false,
      "inputs": [
        {
          "indexed": true,
          "internalType": "address",
          "name": "_from",
          "type": "address"
        },
        {
          "indexed": true,
          "internalType": "address",
          "name": "_to",
          "type": "address"
        },
        {
          "indexed": false,
          "internalType": "uint256",
          "name": "_percent",
          "type": "uint256"
        }
      ],
      "name": "SharedOwnerUpdated",
      "type": "event"
    },
    {
      "anonymous": false,
      "inputs": [
        {
          "indexed": false,
          "internalType": "address",
          "name": "signer",
          "type": "address"
        }
      ],
      "name": "SignerUpdated",
      "type": "event"
    },
    {
      "anonymous": false,
      "inputs": [
        {
          "indexed": false,
          "internalType": "uint256",
          "name": "supplyDecayPercent",
          "type": "uint256"
        }
      ],
      "name": "SupplyDecayPercentUpdated",
      "type": "event"
    },
    {
      "constant": true,
      "inputs": [],
      "name": "MAX_ROUND_SUPPLY",
      "outputs": [
        {
          "internalType": "uint256",
          "name": "",
          "type": "uint256"
        }
      ],
      "payable": false,
      "stateMutability": "view",
      "type": "function"
    },
    {
      "constant": true,
      "inputs": [],
      "name": "MAX_SHARED_OWNERS",
      "outputs": [
        {
          "internalType": "uint256",
          "name": "",
          "type": "uint256"
        }
      ],
      "payable": false,
      "stateMutability": "view",
      "type": "function"
    },
    {
      "constant": true,
      "inputs": [],
      "name": "MAX_SKIP_ROUNDS",
      "outputs": [
        {
          "internalType": "uint256",
          "name": "",
          "type": "uint256"
        }
      ],
      "payable": false,
      "stateMutability": "view",
      "type": "function"
    },
    {
      "constant": true,
      "inputs": [],
      "name": "PERCENT_PRECISION",
      "outputs": [
        {
          "internalType": "uint256",
          "name": "",
          "type": "uint256"
        }
      ],
      "payable": false,
      "stateMutability": "view",
      "type": "function"
    },
    {
      "constant": true,
      "inputs": [
        {
          "internalType": "address",
          "name": "relay",
          "type": "address"
        },
        {
          "internalType": "address",
          "name": "from",
          "type": "address"
        },
        {
          "internalType": "bytes",
          "name": "encodedFunction",
          "type": "bytes"
        },
        {
          "internalType": "uint256",
          "name": "transactionFee",
          "type": "uint256"
        },
        {
          "internalType": "uint256",
          "name": "gasPrice",
          "type": "uint256"
        },
        {
          "internalType": "uint256",
          "name": "gasLimit",
          "type": "uint256"
        },
        {
          "internalType": "uint256",
          "name": "nonce",
          "type": "uint256"
        },
        {
          "internalType": "bytes",
          "name": "approvalData",
          "type": "bytes"
        },
        {
          "internalType": "uint256",
          "name": "",
          "type": "uint256"
        }
      ],
      "name": "acceptRelayedCall",
      "outputs": [
        {
          "internalType": "uint256",
          "name": "",
          "type": "uint256"
        },
        {
          "internalType": "bytes",
          "name": "",
          "type": "bytes"
        }
      ],
      "payable": false,
      "stateMutability": "view",
      "type": "function"
    },
    {
      "constant": true,
      "inputs": [
        {
          "internalType": "address",
          "name": "",
          "type": "address"
        }
      ],
      "name": "claimableRounds",
      "outputs": [
        {
          "internalType": "uint256",
          "name": "",
          "type": "uint256"
        }
      ],
      "payable": false,
      "stateMutability": "view",
      "type": "function"
    },
    {
      "constant": true,
      "inputs": [],
      "name": "getHubAddr",
      "outputs": [
        {
          "internalType": "address",
          "name": "",
          "type": "address"
        }
      ],
      "payable": false,
      "stateMutability": "view",
      "type": "function"
    },
    {
      "constant": true,
      "inputs": [],
      "name": "initialSupply",
      "outputs": [
        {
          "internalType": "uint256",
          "name": "",
          "type": "uint256"
        }
      ],
      "payable": false,
      "stateMutability": "view",
      "type": "function"
    },
    {
      "constant": true,
      "inputs": [],
      "name": "isOwner",
      "outputs": [
        {
          "internalType": "bool",
          "name": "",
          "type": "bool"
        }
      ],
      "payable": false,
      "stateMutability": "view",
      "type": "function"
    },
    {
      "constant": true,
      "inputs": [],
      "name": "karmaSource",
      "outputs": [
        {
          "internalType": "address",
          "name": "",
          "type": "address"
        }
      ],
      "payable": false,
      "stateMutability": "view",
      "type": "function"
    },
    {
      "constant": true,
      "inputs": [],
      "name": "lastRound",
      "outputs": [
        {
          "internalType": "uint256",
          "name": "",
          "type": "uint256"
        }
      ],
      "payable": false,
      "stateMutability": "view",
      "type": "function"
    },
    {
      "constant": true,
      "inputs": [],
      "name": "nextSupply",
      "outputs": [
        {
          "internalType": "uint256",
          "name": "",
          "type": "uint256"
        }
      ],
      "payable": false,
      "stateMutability": "view",
      "type": "function"
    },
    {
      "constant": true,
      "inputs": [],
      "name": "owner",
      "outputs": [
        {
          "internalType": "address",
          "name": "",
          "type": "address"
        }
      ],
      "payable": false,
      "stateMutability": "view",
      "type": "function"
    },
    {
      "constant": false,
      "inputs": [
        {
          "internalType": "bytes",
          "name": "context",
          "type": "bytes"
        },
        {
          "internalType": "bool",
          "name": "success",
          "type": "bool"
        },
        {
          "internalType": "uint256",
          "name": "actualCharge",
          "type": "uint256"
        },
        {
          "internalType": "bytes32",
          "name": "preRetVal",
          "type": "bytes32"
        }
      ],
      "name": "postRelayedCall",
      "outputs": [],
      "payable": false,
      "stateMutability": "nonpayable",
      "type": "function"
    },
    {
      "constant": false,
      "inputs": [
        {
          "internalType": "bytes",
          "name": "context",
          "type": "bytes"
        }
      ],
      "name": "preRelayedCall",
      "outputs": [
        {
          "internalType": "bytes32",
          "name": "",
          "type": "bytes32"
        }
      ],
      "payable": false,
      "stateMutability": "nonpayable",
      "type": "function"
    },
    {
      "constant": true,
      "inputs": [],
      "name": "prevKarmaSource",
      "outputs": [
        {
          "internalType": "address",
          "name": "",
          "type": "address"
        }
      ],
      "payable": false,
      "stateMutability": "view",
      "type": "function"
    },
    {
      "constant": true,
      "inputs": [],
      "name": "relayHubVersion",
      "outputs": [
        {
          "internalType": "string",
          "name": "",
          "type": "string"
        }
      ],
      "payable": false,
      "stateMutability": "view",
      "type": "function"
    },
    {
      "constant": false,
      "inputs": [],
      "name": "renounceOwnership",
      "outputs": [],
      "payable": false,
      "stateMutability": "nonpayable",
      "type": "function"
    },
    {
      "constant": true,
      "inputs": [],
      "name": "roundsBeforeExpiration",
      "outputs": [
        {
          "internalType": "uint256",
          "name": "",
          "type": "uint256"
        }
      ],
      "payable": false,
      "stateMutability": "view",
      "type": "function"
    },
    {
      "constant": false,
      "inputs": [],
      "name": "setDefaultRelayHub",
      "outputs": [],
      "payable": false,
      "stateMutability": "nonpayable",
      "type": "function"
    },
    {
      "constant": true,
      "inputs": [
        {
          "internalType": "uint256",
          "name": "",
          "type": "uint256"
        }
      ],
      "name": "sharedOwners",
      "outputs": [
        {
          "internalType": "address",
          "name": "account",
          "type": "address"
        },
        {
          "internalType": "uint256",
          "name": "percent",
          "type": "uint256"
        }
      ],
      "payable": false,
      "stateMutability": "view",
      "type": "function"
    },
    {
      "constant": true,
      "inputs": [],
      "name": "startBlockNumber",
      "outputs": [
        {
          "internalType": "uint256",
          "name": "",
          "type": "uint256"
        }
      ],
      "payable": false,
      "stateMutability": "view",
      "type": "function"
    },
    {
      "constant": true,
      "inputs": [],
      "name": "subreddit",
      "outputs": [
        {
          "internalType": "string",
          "name": "",
          "type": "string"
        }
      ],
      "payable": false,
      "stateMutability": "view",
      "type": "function"
    },
    {
      "constant": true,
      "inputs": [],
      "name": "subredditPoints",
      "outputs": [
        {
          "internalType": "address",
          "name": "",
          "type": "address"
        }
      ],
      "payable": false,
      "stateMutability": "view",
      "type": "function"
    },
    {
      "constant": true,
      "inputs": [],
      "name": "supplyDecayPercent",
      "outputs": [
        {
          "internalType": "uint256",
          "name": "",
          "type": "uint256"
        }
      ],
      "payable": false,
      "stateMutability": "view",
      "type": "function"
    },
    {
      "constant": false,
      "inputs": [
        {
          "internalType": "address",
          "name": "newOwner",
          "type": "address"
        }
      ],
      "name": "transferOwnership",
      "outputs": [],
      "payable": false,
      "stateMutability": "nonpayable",
      "type": "function"
    },
    {
      "constant": false,
      "inputs": [],
      "name": "initialize",
      "outputs": [],
      "payable": false,
      "stateMutability": "nonpayable",
      "type": "function"
    },
    {
      "constant": false,
      "inputs": [
        {
          "internalType": "address",
          "name": "trustedSigner",
          "type": "address"
        }
      ],
      "name": "initialize",
      "outputs": [],
      "payable": false,
      "stateMutability": "nonpayable",
      "type": "function"
    },
    {
      "constant": false,
      "inputs": [
        {
          "internalType": "address",
          "name": "owner_",
          "type": "address"
        },
        {
          "internalType": "address",
          "name": "subredditPoints_",
          "type": "address"
        },
        {
          "internalType": "address",
          "name": "karmaSource_",
          "type": "address"
        },
        {
          "internalType": "address",
          "name": "gsnApprover_",
          "type": "address"
        },
        {
          "internalType": "uint256",
          "name": "initialSupply_",
          "type": "uint256"
        },
        {
          "internalType": "uint256",
          "name": "nextSupply_",
          "type": "uint256"
        },
        {
          "internalType": "uint256",
          "name": "initialKarma_",
          "type": "uint256"
        },
        {
          "internalType": "uint256",
          "name": "roundsBeforeExpiration_",
          "type": "uint256"
        },
        {
          "internalType": "uint256",
          "name": "supplyDecayPercent_",
          "type": "uint256"
        },
        {
          "internalType": "address[]",
          "name": "sharedOwners_",
          "type": "address[]"
        },
        {
          "internalType": "uint256[]",
          "name": "sharedOwnersPercs_",
          "type": "uint256[]"
        }
      ],
      "name": "initialize",
      "outputs": [],
      "payable": false,
      "stateMutability": "nonpayable",
      "type": "function"
    },
    {
      "constant": false,
      "inputs": [
        {
          "internalType": "uint256",
          "name": "round",
          "type": "uint256"
        },
        {
          "internalType": "address",
          "name": "account",
          "type": "address"
        },
        {
          "internalType": "uint256",
          "name": "karma",
          "type": "uint256"
        },
        {
          "internalType": "bytes",
          "name": "signature",
          "type": "bytes"
        }
      ],
      "name": "claim",
      "outputs": [],
      "payable": false,
      "stateMutability": "nonpayable",
      "type": "function"
    },
    {
      "constant": false,
      "inputs": [
        {
          "internalType": "uint256",
          "name": "round",
          "type": "uint256"
        },
        {
          "internalType": "uint256",
          "name": "totalKarma",
          "type": "uint256"
        }
      ],
      "name": "advanceToRound",
      "outputs": [],
      "payable": false,
      "stateMutability": "nonpayable",
      "type": "function"
    },
    {
      "constant": true,
      "inputs": [],
      "name": "totalSharedOwners",
      "outputs": [
        {
          "internalType": "uint256",
          "name": "",
          "type": "uint256"
        }
      ],
      "payable": false,
      "stateMutability": "view",
      "type": "function"
    },
    {
      "constant": false,
      "inputs": [
        {
          "internalType": "uint256",
          "name": "_supplyDecayPercent",
          "type": "uint256"
        }
      ],
      "name": "updateSupplyDecayPercent",
      "outputs": [],
      "payable": false,
      "stateMutability": "nonpayable",
      "type": "function"
    },
    {
      "constant": false,
      "inputs": [
        {
          "internalType": "uint256",
          "name": "_roundsBeforeExpiration",
          "type": "uint256"
        }
      ],
      "name": "updateRoundsBeforeExpiration",
      "outputs": [],
      "payable": false,
      "stateMutability": "nonpayable",
      "type": "function"
    },
    {
      "constant": true,
      "inputs": [],
      "name": "minClaimableRound",
      "outputs": [
        {
          "internalType": "uint256",
          "name": "",
          "type": "uint256"
        }
      ],
      "payable": false,
      "stateMutability": "view",
      "type": "function"
    },
    {
      "constant": false,
      "inputs": [
        {
          "internalType": "address",
          "name": "_karmaSource",
          "type": "address"
        }
      ],
      "name": "updateKarmaSource",
      "outputs": [],
      "payable": false,
      "stateMutability": "nonpayable",
      "type": "function"
    },
    {
      "constant": false,
      "inputs": [
        {
          "internalType": "address",
          "name": "gsnApprover",
          "type": "address"
        }
      ],
      "name": "updateGSNApprover",
      "outputs": [],
      "payable": false,
      "stateMutability": "nonpayable",
      "type": "function"
    },
    {
      "constant": false,
      "inputs": [
        {
          "internalType": "address",
          "name": "account",
          "type": "address"
        },
        {
          "internalType": "uint256",
          "name": "percent",
          "type": "uint256"
        }
      ],
      "name": "updateSharedOwner",
      "outputs": [],
      "payable": false,
      "stateMutability": "nonpayable",
      "type": "function"
    },
    {
      "constant": true,
      "inputs": [],
      "name": "percentPrecision",
      "outputs": [
        {
          "internalType": "uint256",
          "name": "",
          "type": "uint256"
        }
      ],
      "payable": false,
      "stateMutability": "pure",
      "type": "function"
    }
  ],
  "bytecode": "0x6080604052615114806100136000396000f3fe608060405234801561001057600080fd5b506004361061023c5760003560e01c806380274db71161013b578063b994a7c5116100b8578063e06e0e221161007c578063e06e0e2214610d1c578063e361349d14610db5578063f2fde38b14610dd3578063f9714c0c14610e17578063ffe8e37214610e355761023c565b8063b994a7c514610a41578063bdc330cb14610a5f578063c32be42814610ae2578063c4d66de814610b57578063d8906f3d14610b9b5761023c565b80638da5cb5b116100ff5780638da5cb5b146108875780638f32d59b146108d157806399016142146108f3578063ad61ccd5146109a0578063b361b00f14610a235761023c565b806380274db7146105c75780638129fc1c1461065457806382bc07e61461065e57806383947ea01461067c578063893040611461083d5761023c565b8063498a4c2d116101c9578063665cfc941161018d578063665cfc94146104a9578063715018a61461050157806374e861d61461050b5780637e6b26cf146105555780637f361928146105835761023c565b8063498a4c2d146103bd57806351ad5a97146103db57806356df8adb146103f95780635a5f219414610431578063636049a71461047b5761023c565b80632ad9b698116102105780632ad9b698146102f75780632fd4af0514610315578063303238a21461036357806330e3a03514610381578063378dc3dc1461039f5761023c565b806215d5b1146102415780631220e2ff1461028b578063197ad63a146102955780631c00f07f146102b3575b600080fd5b610249610e53565b604051808273ffffffffffffffffffffffffffffffffffffffff1673ffffffffffffffffffffffffffffffffffffffff16815260200191505060405180910390f35b610293610e79565b005b61029d610e98565b6040518082815260200191505060405180910390f35b6102f5600480360360208110156102c957600080fd5b81019080803573ffffffffffffffffffffffffffffffffffffffff169060200190929190505050610ecb565b005b6102ff610f51565b6040518082815260200191505060405180910390f35b6103616004803603604081101561032b57600080fd5b81019080803573ffffffffffffffffffffffffffffffffffffffff16906020019092919080359060200190929190505050610f57565b005b61036b610fdf565b6040518082815260200191505060405180910390f35b610389610fe4565b6040518082815260200191505060405180910390f35b6103a7610fe9565b6040518082815260200191505060405180910390f35b6103c5610fef565b6040518082815260200191505060405180910390f35b6103e3610ff5565b6040518082815260200191505060405180910390f35b61042f6004803603604081101561040f57600080fd5b810190808035906020019092919080359060200190929190505050610ffb565b005b61043961173f565b604051808273ffffffffffffffffffffffffffffffffffffffff1673ffffffffffffffffffffffffffffffffffffffff16815260200191505060405180910390f35b6104a76004803603602081101561049157600080fd5b8101908080359060200190929190505050611765565b005b6104eb600480360360208110156104bf57600080fd5b81019080803573ffffffffffffffffffffffffffffffffffffffff169060200190929190505050611820565b6040518082815260200191505060405180910390f35b610509611838565b005b610513611973565b604051808273ffffffffffffffffffffffffffffffffffffffff1673ffffffffffffffffffffffffffffffffffffffff16815260200191505060405180910390f35b6105816004803603602081101561056b57600080fd5b810190808035906020019092919050505061199d565b005b6105c56004803603602081101561059957600080fd5b81019080803573ffffffffffffffffffffffffffffffffffffffff169060200190929190505050611ab3565b005b61063e600480360360208110156105dd57600080fd5b81019080803590602001906401000000008111156105fa57600080fd5b82018360208201111561060c57600080fd5b8035906020019184600183028401116401000000008311171561062e57600080fd5b9091929391929390505050611d13565b6040518082815260200191505060405180910390f35b61065c611df5565b005b610666611f54565b6040518082815260200191505060405180910390f35b6107bb600480360361012081101561069357600080fd5b81019080803573ffffffffffffffffffffffffffffffffffffffff169060200190929190803573ffffffffffffffffffffffffffffffffffffffff169060200190929190803590602001906401000000008111156106f057600080fd5b82018360208201111561070257600080fd5b8035906020019184600183028401116401000000008311171561072457600080fd5b9091929391929390803590602001909291908035906020019092919080359060200190929190803590602001909291908035906020019064010000000081111561076d57600080fd5b82018360208201111561077f57600080fd5b803590602001918460018302840111640100000000831117156107a157600080fd5b909192939192939080359060200190929190505050611f5a565b6040518083815260200180602001828103825283818151815260200191508051906020019080838360005b838110156108015780820151818401526020810190506107e6565b50505050905090810190601f16801561082e5780820380516001836020036101000a031916815260200191505b50935050505060405180910390f35b61084561219b565b604051808273ffffffffffffffffffffffffffffffffffffffff1673ffffffffffffffffffffffffffffffffffffffff16815260200191505060405180910390f35b61088f6121c1565b604051808273ffffffffffffffffffffffffffffffffffffffff1673ffffffffffffffffffffffffffffffffffffffff16815260200191505060405180910390f35b6108d96121eb565b604051808215151515815260200191505060405180910390f35b61099e6004803603608081101561090957600080fd5b8101908080359060200190929190803573ffffffffffffffffffffffffffffffffffffffff169060200190929190803590602001909291908035906020019064010000000081111561095a57600080fd5b82018360208201111561096c57600080fd5b8035906020019184600183028401116401000000008311171561098e57600080fd5b909192939192939050505061224a565b005b6109a8612940565b6040518080602001828103825283818151815260200191508051906020019080838360005b838110156109e85780820151818401526020810190506109cd565b50505050905090810190601f168015610a155780820380516001836020036101000a031916815260200191505b509250505060405180910390f35b610a2b61297d565b6040518082815260200191505060405180910390f35b610a4961298e565b6040518082815260200191505060405180910390f35b610a67612999565b6040518080602001828103825283818151815260200191508051906020019080838360005b83811015610aa7578082015181840152602081019050610a8c565b50505050905090810190601f168015610ad45780820380516001836020036101000a031916815260200191505b509250505060405180910390f35b610b0e60048036036020811015610af857600080fd5b8101908080359060200190929190505050612a37565b604051808373ffffffffffffffffffffffffffffffffffffffff1673ffffffffffffffffffffffffffffffffffffffff1681526020018281526020019250505060405180910390f35b610b9960048036036020811015610b6d57600080fd5b81019080803573ffffffffffffffffffffffffffffffffffffffff169060200190929190505050612a88565b005b610d1a6004803603610160811015610bb257600080fd5b81019080803573ffffffffffffffffffffffffffffffffffffffff169060200190929190803573ffffffffffffffffffffffffffffffffffffffff169060200190929190803573ffffffffffffffffffffffffffffffffffffffff169060200190929190803573ffffffffffffffffffffffffffffffffffffffff169060200190929190803590602001909291908035906020019092919080359060200190929190803590602001909291908035906020019092919080359060200190640100000000811115610c8157600080fd5b820183602082011115610c9357600080fd5b80359060200191846020830284011164010000000083111715610cb557600080fd5b909192939192939080359060200190640100000000811115610cd657600080fd5b820183602082011115610ce857600080fd5b80359060200191846020830284011164010000000083111715610d0a57600080fd5b9091929391929390505050612b99565b005b610db360048036036080811015610d3257600080fd5b8101908080359060200190640100000000811115610d4f57600080fd5b820183602082011115610d6157600080fd5b80359060200191846001830284011164010000000083111715610d8357600080fd5b909192939192939080351515906020019092919080359060200190929190803590602001909291905050506133ea565b005b610dbd6134cc565b6040518082815260200191505060405180910390f35b610e1560048036036020811015610de957600080fd5b81019080803573ffffffffffffffffffffffffffffffffffffffff1690602001909291905050506134d9565b005b610e1f61355f565b6040518082815260200191505060405180910390f35b610e3d613565565b6040518082815260200191505060405180910390f35b606960009054906101000a900473ffffffffffffffffffffffffffffffffffffffff1681565b610e9673d216153c06e857cd7f72665e0af1d7d82172f49461356c565b565b6000607154606c5410610ec357610ebc607154606c5461373d90919063ffffffff16565b9050610ec8565b600090505b90565b610ed36121eb565b610f45576040517f08c379a00000000000000000000000000000000000000000000000000000000081526004018080602001828103825260208152602001807f4f776e61626c653a2063616c6c6572206973206e6f7420746865206f776e657281525060200191505060405180910390fd5b610f4e81613787565b50565b60725481565b610f5f6121eb565b610fd1576040517f08c379a00000000000000000000000000000000000000000000000000000000081526004018080602001828103825260208152602001807f4f776e61626c653a2063616c6c6572206973206e6f7420746865206f776e657281525060200191505060405180910390fd5b610fdb82826138b4565b5050565b60c881565b600a81565b60705481565b606d5481565b60735481565b606c54821180156110105750600a606c540182105b611065576040517f08c379a000000000000000000000000000000000000000000000000000000000815260040180806020018281038252604c815260200180614dd0604c913960600191505060405180910390fd5b600081116110be576040517f08c379a0000000000000000000000000000000000000000000000000000000008152600401808060200182810382526027815260200180614e636027913960400191505060405180910390fd5b606960009054906101000a900473ffffffffffffffffffffffffffffffffffffffff1673ffffffffffffffffffffffffffffffffffffffff166110ff613cfe565b73ffffffffffffffffffffffffffffffffffffffff161461116b576040517f08c379a00000000000000000000000000000000000000000000000000000000081526004018080602001828103825260338152602001806150286033913960400191505060405180910390fd5b6000611175610e98565b9050606c54830381106111d3576000606c548403820390505b818110156111d157606e6000828152602001908152602001600020600080820160009055600182016000905560028201600090555050808060010191505061118e565b505b6000606860009054906101000a900473ffffffffffffffffffffffffffffffffffffffff1673ffffffffffffffffffffffffffffffffffffffff166318160ddd6040518163ffffffff1660e01b815260040160206040518083038186803b15801561123d57600080fd5b505afa158015611251573d6000803e3d6000fd5b505050506040513d602081101561126757600080fd5b810190808051906020019092919050505090506000607654905060008590505b6001606c5401811015801561129c5750838110155b15611437576000607254905060006112c1607654607554613d6b90919063ffffffff16565b905084811115611306576113036112f460026112e6888561373d90919063ffffffff16565b613df390919063ffffffff16565b83613d6b90919063ffffffff16565b91505b846075819055506000607681905550600060725411801561132957506000607354115b156113755761136e61135d620f424061134f607354607254613e3d90919063ffffffff16565b613df390919063ffffffff16565b60725461373d90919063ffffffff16565b6072819055505b600080905060008311156113df5761138c83613ec3565b905060405180606001604052808481526020018281526020016000815250606e60008681526020019081526020016000206000820151816000015560208201518160010155604082015181600201559050505b7f7abd75c194a519c7fa820e973913b881d125f00b25a62aa1b242f1a3be7313a084848360405180848152602001838152602001828152602001935050505060405180910390a1505050808060019003915050611287565b5084606c819055508160758190555060006076819055506000606e60008781526020019081526020016000209050848160020181905550600081600101541180156114825750600082115b1561173757600080600090505b6074805490508110156114dc576114cd607482815481106114ac57fe5b90600052602060002090600202016001015483613d6b90919063ffffffff16565b9150808060010191505061148f565b50600061151c6114f883620f424061373d90919063ffffffff16565b61150e620f424087613e3d90919063ffffffff16565b613df390919063ffffffff16565b90506000611533858361373d90919063ffffffff16565b905060008090505b6074805490508110801561154f5750600082115b1561173257600061159c620f424061158e6074858154811061156d57fe5b90600052602060002090600202016001015487613e3d90919063ffffffff16565b613df390919063ffffffff16565b90506000811180156115ae5750828111155b1561172457606860009054906101000a900473ffffffffffffffffffffffffffffffffffffffff1673ffffffffffffffffffffffffffffffffffffffff1663ab89013b30607485815481106115ff57fe5b906000526020600020906002020160000160009054906101000a900473ffffffffffffffffffffffffffffffffffffffff16846040518463ffffffff1660e01b8152600401808473ffffffffffffffffffffffffffffffffffffffff1673ffffffffffffffffffffffffffffffffffffffff1681526020018373ffffffffffffffffffffffffffffffffffffffff1673ffffffffffffffffffffffffffffffffffffffff168152602001828152602001806020018060200183810383526000815260200160200183810382526000815260200160200195505050505050600060405180830381600087803b1580156116f657600080fd5b505af115801561170a573d6000803e3d6000fd5b50505050611721818461373d90919063ffffffff16565b92505b50808060010191505061153b565b505050505b505050505050565b607760009054906101000a900473ffffffffffffffffffffffffffffffffffffffff1681565b61176d6121eb565b6117df576040517f08c379a00000000000000000000000000000000000000000000000000000000081526004018080602001828103825260208152602001807f4f776e61626c653a2063616c6c6572206973206e6f7420746865206f776e657281525060200191505060405180910390fd5b806071819055507f9b9d9ee399388905981700b7c8de8ca8853dbf397b77d509d7ed7a3d4dff52a6816040518082815260200191505060405180910390a150565b606f6020528060005260406000206000915090505481565b6118406121eb565b6118b2576040517f08c379a00000000000000000000000000000000000000000000000000000000081526004018080602001828103825260208152602001807f4f776e61626c653a2063616c6c6572206973206e6f7420746865206f776e657281525060200191505060405180910390fd5b600073ffffffffffffffffffffffffffffffffffffffff16603360009054906101000a900473ffffffffffffffffffffffffffffffffffffffff1673ffffffffffffffffffffffffffffffffffffffff167f8be0079c531659141344cd1fd0a4f28419497f9722a3daafe3b4186f6b6457e060405160405180910390a36000603360006101000a81548173ffffffffffffffffffffffffffffffffffffffff021916908373ffffffffffffffffffffffffffffffffffffffff160217905550565b6000606660009054906101000a900473ffffffffffffffffffffffffffffffffffffffff16905090565b6119a56121eb565b611a17576040517f08c379a00000000000000000000000000000000000000000000000000000000081526004018080602001828103825260208152602001807f4f776e61626c653a2063616c6c6572206973206e6f7420746865206f776e657281525060200191505060405180910390fd5b620f42408110611a72576040517f08c379a000000000000000000000000000000000000000000000000000000000815260040180806020018281038252603f815260200180614bff603f913960400191505060405180910390fd5b806073819055507f3fc8c6c6a50072e9b4dcce50dc8a4f21877704651dff1c72f102afde8e08016b816040518082815260200191505060405180910390a150565b611abb6121eb565b611b2d576040517f08c379a00000000000000000000000000000000000000000000000000000000081526004018080602001828103825260208152602001807f4f776e61626c653a2063616c6c6572206973206e6f7420746865206f776e657281525060200191505060405180910390fd5b600073ffffffffffffffffffffffffffffffffffffffff168173ffffffffffffffffffffffffffffffffffffffff161415611bb3576040517f08c379a000000000000000000000000000000000000000000000000000000000815260040180806020018281038252602b8152602001806150b5602b913960400191505060405180910390fd5b606960009054906101000a900473ffffffffffffffffffffffffffffffffffffffff16607760006101000a81548173ffffffffffffffffffffffffffffffffffffffff021916908373ffffffffffffffffffffffffffffffffffffffff16021790555080606960006101000a81548173ffffffffffffffffffffffffffffffffffffffff021916908373ffffffffffffffffffffffffffffffffffffffff1602179055507fea601ecdff79475b71fb4d1545a7ebca8349b2af1ca1ff06dae26d8598067e1281607760009054906101000a900473ffffffffffffffffffffffffffffffffffffffff16604051808373ffffffffffffffffffffffffffffffffffffffff1673ffffffffffffffffffffffffffffffffffffffff1681526020018273ffffffffffffffffffffffffffffffffffffffff1673ffffffffffffffffffffffffffffffffffffffff1681526020019250505060405180910390a150565b6000611d1d611973565b73ffffffffffffffffffffffffffffffffffffffff163373ffffffffffffffffffffffffffffffffffffffff1614611da0576040517f08c379a0000000000000000000000000000000000000000000000000000000008152600401808060200182810382526024815260200180614fcf6024913960400191505060405180910390fd5b611ded83838080601f016020809104026020016040519081016040528093929190818152602001838380828437600081840152601f19601f82011690508083019250505050505050613f93565b905092915050565b600060019054906101000a900460ff1680611e145750611e13613f9a565b5b80611e2b57506000809054906101000a900460ff16155b611e80576040517f08c379a000000000000000000000000000000000000000000000000000000000815260040180806020018281038252602e815260200180614e8a602e913960400191505060405180910390fd5b60008060019054906101000a900460ff161590508015611ed0576001600060016101000a81548160ff02191690831515021790555060016000806101000a81548160ff0219169083151502179055505b600073ffffffffffffffffffffffffffffffffffffffff16606660009054906101000a900473ffffffffffffffffffffffffffffffffffffffff1673ffffffffffffffffffffffffffffffffffffffff161415611f3057611f2f610e79565b5b8015611f515760008060016101000a81548160ff0219169083151502179055505b50565b606c5481565b60006060808d8d8d8d8d8d8d8d611f6f611973565b30604051602001808b73ffffffffffffffffffffffffffffffffffffffff1673ffffffffffffffffffffffffffffffffffffffff1681526020018a73ffffffffffffffffffffffffffffffffffffffff1673ffffffffffffffffffffffffffffffffffffffff168152602001806020018881526020018781526020018681526020018581526020018473ffffffffffffffffffffffffffffffffffffffff1673ffffffffffffffffffffffffffffffffffffffff1681526020018373ffffffffffffffffffffffffffffffffffffffff1673ffffffffffffffffffffffffffffffffffffffff16815260200182810382528a8a82818152602001925080828437600081840152601f19601f8201169050808301925050509b5050505050505050505050506040516020818303038152906040529050606760009054906101000a900473ffffffffffffffffffffffffffffffffffffffff1673ffffffffffffffffffffffffffffffffffffffff1661214387878080601f016020809104026020016040519081016040528093929190818152602001838380828437600081840152601f19601f820116905080830192505050505050506121358480519060200120613fab565b61400390919063ffffffff16565b73ffffffffffffffffffffffffffffffffffffffff16141561217157612167614107565b925092505061218b565b61218560008081111561218057fe5b61412b565b92509250505b9b509b9950505050505050505050565b606860009054906101000a900473ffffffffffffffffffffffffffffffffffffffff1681565b6000603360009054906101000a900473ffffffffffffffffffffffffffffffffffffffff16905090565b6000603360009054906101000a900473ffffffffffffffffffffffffffffffffffffffff1673ffffffffffffffffffffffffffffffffffffffff1661222e613cfe565b73ffffffffffffffffffffffffffffffffffffffff1614905090565b600083116122a3576040517f08c379a0000000000000000000000000000000000000000000000000000000008152600401808060200182810382526022815260200180614cf66022913960400191505060405180910390fd5b84606f60008673ffffffffffffffffffffffffffffffffffffffff1673ffffffffffffffffffffffffffffffffffffffff16815260200190815260200160002054111561233b576040517f08c379a0000000000000000000000000000000000000000000000000000000008152600401808060200182810382526035815260200180614ff36035913960400191505060405180910390fd5b606c54851115612396576040517f08c379a000000000000000000000000000000000000000000000000000000000815260040180806020018281038252602c815260200180614b43602c913960400191505060405180910390fd5b60006123a0610e98565b9050808610156123fb576040517f08c379a000000000000000000000000000000000000000000000000000000000815260040180806020018281038252602b815260200180614b6f602b913960400191505060405180910390fd5b600061244d86888787878080601f016020809104026020016040519081016040528093929190818152602001838380828437600081840152601f19601f8201169050808301925050505050505061414c565b9050606960009054906101000a900473ffffffffffffffffffffffffffffffffffffffff1673ffffffffffffffffffffffffffffffffffffffff168173ffffffffffffffffffffffffffffffffffffffff1614806125535750600073ffffffffffffffffffffffffffffffffffffffff16607760009054906101000a900473ffffffffffffffffffffffffffffffffffffffff1673ffffffffffffffffffffffffffffffffffffffff16141580156125525750607760009054906101000a900473ffffffffffffffffffffffffffffffffffffffff1673ffffffffffffffffffffffffffffffffffffffff168173ffffffffffffffffffffffffffffffffffffffff16145b5b6125a8576040517f08c379a000000000000000000000000000000000000000000000000000000000815260040180806020018281038252603681526020018061505b6036913960400191505060405180910390fd5b6125b06149cc565b606e600089815260200190815260200160002060405180606001604052908160008201548152602001600182015481526020016002820154815250509050600081600001511161264b576040517f08c379a000000000000000000000000000000000000000000000000000000000815260040180806020018281038252602f815260200180614f5f602f913960400191505060405180910390fd5b60008160400151116126a8576040517f08c379a0000000000000000000000000000000000000000000000000000000008152600401808060200182810382526026815260200180614e1c6026913960400191505060405180910390fd5b60006126ed82604001516126df896126d18660200151876000015161373d90919063ffffffff16565b613e3d90919063ffffffff16565b613df390919063ffffffff16565b905060008111612748576040517f08c379a0000000000000000000000000000000000000000000000000000000008152600401808060200182810382526034815260200180614c816034913960400191505060405180910390fd5b61275d81607654613d6b90919063ffffffff16565b60768190555061277760018a613d6b90919063ffffffff16565b606f60008a73ffffffffffffffffffffffffffffffffffffffff1673ffffffffffffffffffffffffffffffffffffffff168152602001908152602001600020819055508773ffffffffffffffffffffffffffffffffffffffff167f05c0dd48c9c829cad200bd1db15fa75fb03cae88add3bd16cb8899cc39412f748a898460405180848152602001838152602001828152602001935050505060405180910390a2606860009054906101000a900473ffffffffffffffffffffffffffffffffffffffff1673ffffffffffffffffffffffffffffffffffffffff1663ab89013b308a846040518463ffffffff1660e01b8152600401808473ffffffffffffffffffffffffffffffffffffffff1673ffffffffffffffffffffffffffffffffffffffff1681526020018373ffffffffffffffffffffffffffffffffffffffff1673ffffffffffffffffffffffffffffffffffffffff168152602001828152602001806020018060200183810383526000815260200160200183810382526000815260200160200195505050505050600060405180830381600087803b15801561291d57600080fd5b505af1158015612931573d6000803e3d6000fd5b50505050505050505050505050565b60606040518060400160405280600581526020017f312e302e30000000000000000000000000000000000000000000000000000000815250905090565b6c01431e0fae6d7217caa000000081565b6000620f4240905090565b606a8054600181600116156101000203166002900480601f016020809104026020016040519081016040528092919081815260200182805460018160011615610100020316600290048015612a2f5780601f10612a0457610100808354040283529160200191612a2f565b820191906000526020600020905b815481529060010190602001808311612a1257829003601f168201915b505050505081565b60748181548110612a4457fe5b90600052602060002090600202016000915090508060000160009054906101000a900473ffffffffffffffffffffffffffffffffffffffff16908060010154905082565b600060019054906101000a900460ff1680612aa75750612aa6613f9a565b5b80612abe57506000809054906101000a900460ff16155b612b13576040517f08c379a000000000000000000000000000000000000000000000000000000000815260040180806020018281038252602e815260200180614e8a602e913960400191505060405180910390fd5b60008060019054906101000a900460ff161590508015612b63576001600060016101000a81548160ff02191690831515021790555060016000806101000a81548160ff0219169083151502179055505b612b6c82613787565b612b74611df5565b8015612b955760008060016101000a81548160ff0219169083151502179055505b5050565b600060019054906101000a900460ff1680612bb85750612bb7613f9a565b5b80612bcf57506000809054906101000a900460ff16155b612c24576040517f08c379a000000000000000000000000000000000000000000000000000000000815260040180806020018281038252602e815260200180614e8a602e913960400191505060405180910390fd5b60008060019054906101000a900460ff161590508015612c74576001600060016101000a81548160ff02191690831515021790555060016000806101000a81548160ff0219169083151502179055505b60008a118015612c9157506c01431e0fae6d7217caa00000008a11155b612ce6576040517f08c379a0000000000000000000000000000000000000000000000000000000008152600401808060200182810382526043815260200180614c3e6043913960600191505060405180910390fd5b60008811612d3f576040517f08c379a0000000000000000000000000000000000000000000000000000000008152600401808060200182810382526032815260200180614d9e6032913960400191505060405180910390fd5b600089118015612d5c57506c01431e0fae6d7217caa00000008911155b612db1576040517f08c379a000000000000000000000000000000000000000000000000000000000815260040180806020018281038252603f815260200180614b9a603f913960400191505060405180910390fd5b600073ffffffffffffffffffffffffffffffffffffffff168c73ffffffffffffffffffffffffffffffffffffffff161415612e37576040517f08c379a000000000000000000000000000000000000000000000000000000000815260040180806020018281038252602b8152602001806150b5602b913960400191505060405180910390fd5b600073ffffffffffffffffffffffffffffffffffffffff168b73ffffffffffffffffffffffffffffffffffffffff161415612ebd576040517f08c379a000000000000000000000000000000000000000000000000000000000815260040180806020018281038252602b815260200180614d73602b913960400191505060405180910390fd5b600073ffffffffffffffffffffffffffffffffffffffff168e73ffffffffffffffffffffffffffffffffffffffff161415612f43576040517f08c379a00000000000000000000000000000000000000000000000000000000081526004018080602001828103825260248152602001806150916024913960400191505060405180910390fd5b828290508585905014612fa1576040517f08c379a0000000000000000000000000000000000000000000000000000000008152600401808060200182810382526041815260200180614ee56041913960600191505060405180910390fd5b612faa8e614262565b612fb38b612a88565b612fbc8661199d565b612fc587611765565b8c606860006101000a81548173ffffffffffffffffffffffffffffffffffffffff021916908373ffffffffffffffffffffffffffffffffffffffff1602179055508b606960006101000a81548173ffffffffffffffffffffffffffffffffffffffff021916908373ffffffffffffffffffffffffffffffffffffffff1602179055508b607760006101000a81548173ffffffffffffffffffffffffffffffffffffffff021916908373ffffffffffffffffffffffffffffffffffffffff1602179055508c73ffffffffffffffffffffffffffffffffffffffff1663bdc330cb6040518163ffffffff1660e01b815260040160006040518083038186803b1580156130ce57600080fd5b505afa1580156130e2573d6000803e3d6000fd5b505050506040513d6000823e3d601f19601f82011682018060405250602081101561310c57600080fd5b810190808051604051939291908464010000000082111561312c57600080fd5b8382019150602082018581111561314257600080fd5b825186600182028301116401000000008211171561315f57600080fd5b8083526020830192505050908051906020019080838360005b83811015613193578082015181840152602081019050613178565b50505050905090810190601f1680156131c05780820380516001836020036101000a031916815260200191505b50604052505050606a90805190602001906131dc9291906149ed565b50613280606a8054600181600116156101000203166002900480601f0160208091040260200160405190810160405280929190818152602001828054600181600116156101000203166002900480156132765780601f1061324b57610100808354040283529160200191613276565b820191906000526020600020905b81548152906001019060200180831161325957829003601f168201915b5050505050614420565b606b90805190602001906132959291906149ed565b5043606d81905550896070819055508860728190555060008090505b8585905081101561330d576133008686838181106132cb57fe5b9050602002013573ffffffffffffffffffffffffffffffffffffffff168585848181106132f457fe5b905060200201356138b4565b80806001019150506132b1565b50600061331b607054613ec3565b9050604051806060016040528060705481526020018281526020018a815250606e60008081526020019081526020016000206000820151816000015560208201518160010155604082015181600201559050507f7abd75c194a519c7fa820e973913b881d125f00b25a62aa1b242f1a3be7313a060006070548360405180848152602001838152602001828152602001935050505060405180910390a15080156133da5760008060016101000a81548160ff0219169083151502179055505b5050505050505050505050505050565b6133f2611973565b73ffffffffffffffffffffffffffffffffffffffff163373ffffffffffffffffffffffffffffffffffffffff1614613475576040517f08c379a0000000000000000000000000000000000000000000000000000000008152600401808060200182810382526024815260200180614fcf6024913960400191505060405180910390fd5b6134c585858080601f016020809104026020016040519081016040528093929190818152602001838380828437600081840152601f19601f82011690508083019250505050505050848484614588565b5050505050565b6000607480549050905090565b6134e16121eb565b613553576040517f08c379a00000000000000000000000000000000000000000000000000000000081526004018080602001828103825260208152602001807f4f776e61626c653a2063616c6c6572206973206e6f7420746865206f776e657281525060200191505060405180910390fd5b61355c8161458e565b50565b60715481565b620f424081565b6000606660009054906101000a900473ffffffffffffffffffffffffffffffffffffffff169050600073ffffffffffffffffffffffffffffffffffffffff168273ffffffffffffffffffffffffffffffffffffffff161415613619576040517f08c379a000000000000000000000000000000000000000000000000000000000815260040180806020018281038252602e815260200180614d45602e913960400191505060405180910390fd5b8073ffffffffffffffffffffffffffffffffffffffff168273ffffffffffffffffffffffffffffffffffffffff16141561369e576040517f08c379a000000000000000000000000000000000000000000000000000000000815260040180806020018281038252602d815260200180614eb8602d913960400191505060405180910390fd5b8173ffffffffffffffffffffffffffffffffffffffff168173ffffffffffffffffffffffffffffffffffffffff167fb9f84b8e65164b14439ae3620df0a4d8786d896996c0282b683f9d8c08f046e860405160405180910390a381606660006101000a81548173ffffffffffffffffffffffffffffffffffffffff021916908373ffffffffffffffffffffffffffffffffffffffff1602179055505050565b600061377f83836040518060400160405280601e81526020017f536166654d6174683a207375627472616374696f6e206f766572666c6f7700008152506146d4565b905092915050565b600073ffffffffffffffffffffffffffffffffffffffff168173ffffffffffffffffffffffffffffffffffffffff16141561380d576040517f08c379a0000000000000000000000000000000000000000000000000000000008152600401808060200182810382526039815260200180614f266039913960400191505060405180910390fd5b80606760006101000a81548173ffffffffffffffffffffffffffffffffffffffff021916908373ffffffffffffffffffffffffffffffffffffffff1602179055507f5553331329228fbd4123164423717a4a7539f6dfa1c3279a923b98fd681a6c7381604051808273ffffffffffffffffffffffffffffffffffffffff1673ffffffffffffffffffffffffffffffffffffffff16815260200191505060405180910390a150565b620f4240811061390f576040517f08c379a0000000000000000000000000000000000000000000000000000000008152600401808060200182810382526041815260200180614cb56041913960600191505060405180910390fd5b600081118015613924575060c8607480549050105b613979576040517f08c379a0000000000000000000000000000000000000000000000000000000008152600401808060200182810382526041815260200180614f8e6041913960600191505060405180910390fd5b600080905060008090505b607480549050811015613b7757613999614a6d565b607482815481106139a657fe5b90600052602060002090600202016040518060400160405290816000820160009054906101000a900473ffffffffffffffffffffffffffffffffffffffff1673ffffffffffffffffffffffffffffffffffffffff1673ffffffffffffffffffffffffffffffffffffffff16815260200160018201548152505090508473ffffffffffffffffffffffffffffffffffffffff16816000015173ffffffffffffffffffffffffffffffffffffffff161415613b69576000841415613b40576001607480549050038214613b2457607460016074805490500381548110613a8657fe5b906000526020600020906002020160748381548110613aa157fe5b90600052602060002090600202016000820160009054906101000a900473ffffffffffffffffffffffffffffffffffffffff168160000160006101000a81548173ffffffffffffffffffffffffffffffffffffffff021916908373ffffffffffffffffffffffffffffffffffffffff160217905550600182015481600101559050505b600160748054905003607481613b3a9190614a9d565b50613b64565b8360748381548110613b4e57fe5b9060005260206000209060020201600101819055505b600192505b508080600101915050613984565b5080613c39576000821415613b8c5750613cfa565b607460405180604001604052808573ffffffffffffffffffffffffffffffffffffffff168152602001848152509080600181540180825580915050906001820390600052602060002090600202016000909192909190915060008201518160000160006101000a81548173ffffffffffffffffffffffffffffffffffffffff021916908373ffffffffffffffffffffffffffffffffffffffff160217905550602082015181600101555050505b613c41614794565b6000606e6000606c54815260200190815260200160002090506000607654148015613c70575060008160000154115b15613c8b57613c828160000154613ec3565b81600101819055505b8373ffffffffffffffffffffffffffffffffffffffff16613caa613cfe565b73ffffffffffffffffffffffffffffffffffffffff167f67efa3716a83d716fc277019d454659a46cd1a11e7f4518b63ce585d5e6713e5856040518082815260200191505060405180910390a350505b5050565b6000606660009054906101000a900473ffffffffffffffffffffffffffffffffffffffff1673ffffffffffffffffffffffffffffffffffffffff163373ffffffffffffffffffffffffffffffffffffffff1614613d5d57339050613d68565b613d65614848565b90505b90565b600080828401905083811015613de9576040517f08c379a000000000000000000000000000000000000000000000000000000000815260040180806020018281038252601b8152602001807f536166654d6174683a206164646974696f6e206f766572666c6f77000000000081525060200191505060405180910390fd5b8091505092915050565b6000613e3583836040518060400160405280601a81526020017f536166654d6174683a206469766973696f6e206279207a65726f0000000000008152506148c0565b905092915050565b600080831415613e505760009050613ebd565b6000828402905082848281613e6157fe5b0414613eb8576040517f08c379a0000000000000000000000000000000000000000000000000000000008152600401808060200182810382526021815260200180614e426021913960400191505060405180910390fd5b809150505b92915050565b60008060008090505b607480549050811015613f8957613f7a613f6b8560748481548110613eed57fe5b90600052602060002090600202016040518060400160405290816000820160009054906101000a900473ffffffffffffffffffffffffffffffffffffffff1673ffffffffffffffffffffffffffffffffffffffff1673ffffffffffffffffffffffffffffffffffffffff168152602001600182015481525050614986565b83613d6b90919063ffffffff16565b91508080600101915050613ecc565b5080915050919050565b6000919050565b600080303b90506000811491505090565b60008160405160200180807f19457468657265756d205369676e6564204d6573736167653a0a333200000000815250601c01828152602001915050604051602081830303815290604052805190602001209050919050565b600060418251146140175760009050614101565b60008060006020850151925060408501519150606085015160001a90507f7fffffffffffffffffffffffffffffff5d576e7357a4501ddfe92f46681b20a08260001c111561406b5760009350505050614101565b601b8160ff16141580156140835750601c8160ff1614155b156140945760009350505050614101565b60018682858560405160008152602001604052604051808581526020018460ff1660ff1681526020018381526020018281526020019450505050506020604051602081039080840390855afa1580156140f1573d6000803e3d6000fd5b5050506020604051035193505050505b92915050565b60006060614123604051806020016040528060008152506149bc565b915091509091565b6000606082600b016040518060200160405280600081525091509150915091565b600080606b85878660405160200180806020018581526020018473ffffffffffffffffffffffffffffffffffffffff1673ffffffffffffffffffffffffffffffffffffffff16815260200183815260200182810382528681815460018160011615610100020316600290048152602001915080546001816001161561010002031660029004801561421e5780601f106141f35761010080835404028352916020019161421e565b820191906000526020600020905b81548152906001019060200180831161420157829003601f168201915b505095505050505050604051602081830303815290604052805190602001209050600061424a82613fab565b90506142568185614003565b92505050949350505050565b600060019054906101000a900460ff16806142815750614280613f9a565b5b8061429857506000809054906101000a900460ff16155b6142ed576040517f08c379a000000000000000000000000000000000000000000000000000000000815260040180806020018281038252602e815260200180614e8a602e913960400191505060405180910390fd5b60008060019054906101000a900460ff16159050801561433d576001600060016101000a81548160ff02191690831515021790555060016000806101000a81548160ff0219169083151502179055505b81603360006101000a81548173ffffffffffffffffffffffffffffffffffffffff021916908373ffffffffffffffffffffffffffffffffffffffff160217905550603360009054906101000a900473ffffffffffffffffffffffffffffffffffffffff1673ffffffffffffffffffffffffffffffffffffffff16600073ffffffffffffffffffffffffffffffffffffffff167f8be0079c531659141344cd1fd0a4f28419497f9722a3daafe3b4186f6b6457e060405160405180910390a3801561441c5760008060016101000a81548160ff0219169083151502179055505b5050565b606080829050606081516040519080825280601f01601f19166020018201604052801561445c5781602001600182028038833980820191505090505b50905060008090505b825181101561457d57604183828151811061447c57fe5b602001015160f81c60f81b60f81c60000b121580156144b85750605a8382815181106144a457fe5b602001015160f81c60f81b60f81c60000b13155b1561451d5760208382815181106144cb57fe5b602001015160f81c60f81b60f81c0160f81b8282815181106144e957fe5b60200101907effffffffffffffffffffffffffffffffffffffffffffffffffffffffffffff1916908160001a905350614570565b82818151811061452957fe5b602001015160f81c60f81b82828151811061454057fe5b60200101907effffffffffffffffffffffffffffffffffffffffffffffffffffffffffffff1916908160001a9053505b8080600101915050614465565b508092505050919050565b50505050565b600073ffffffffffffffffffffffffffffffffffffffff168173ffffffffffffffffffffffffffffffffffffffff161415614614576040517f08c379a0000000000000000000000000000000000000000000000000000000008152600401808060200182810382526026815260200180614bd96026913960400191505060405180910390fd5b8073ffffffffffffffffffffffffffffffffffffffff16603360009054906101000a900473ffffffffffffffffffffffffffffffffffffffff1673ffffffffffffffffffffffffffffffffffffffff167f8be0079c531659141344cd1fd0a4f28419497f9722a3daafe3b4186f6b6457e060405160405180910390a380603360006101000a81548173ffffffffffffffffffffffffffffffffffffffff021916908373ffffffffffffffffffffffffffffffffffffffff16021790555050565b6000838311158290614781576040517f08c379a00000000000000000000000000000000000000000000000000000000081526004018080602001828103825283818151815260200191508051906020019080838360005b8381101561474657808201518184015260208101905061472b565b50505050905090810190601f1680156147735780820380516001836020036101000a031916815260200191505b509250505060405180910390fd5b5060008385039050809150509392505050565b600080600090505b6074805490508110156147e9576147da82607483815481106147ba57fe5b906000526020600020906002020160010154613d6b90919063ffffffff16565b9150808060010191505061479c565b50620f42408110614845576040517f08c379a000000000000000000000000000000000000000000000000000000000815260040180806020018281038252602d815260200180614d18602d913960400191505060405180910390fd5b50565b600060606000368080601f016020809104026020016040519081016040528093929190818152602001838380828437600081840152601f19601f820116905080830192505050505050509050600080369050905073ffffffffffffffffffffffffffffffffffffffff81830151169250829250505090565b6000808311829061496c576040517f08c379a00000000000000000000000000000000000000000000000000000000081526004018080602001828103825283818151815260200191508051906020019080838360005b83811015614931578082015181840152602081019050614916565b50505050905090810190601f16801561495e5780820380516001836020036101000a031916815260200191505b509250505060405180910390fd5b50600083858161497857fe5b049050809150509392505050565b60006149b4620f42406149a6846020015186613e3d90919063ffffffff16565b613df390919063ffffffff16565b905092915050565b6000606060008391509150915091565b60405180606001604052806000815260200160008152602001600081525090565b828054600181600116156101000203166002900490600052602060002090601f016020900481019282601f10614a2e57805160ff1916838001178555614a5c565b82800160010185558215614a5c579182015b82811115614a5b578251825591602001919060010190614a40565b5b509050614a699190614acf565b5090565b6040518060400160405280600073ffffffffffffffffffffffffffffffffffffffff168152602001600081525090565b815481835581811115614aca57600202816002028360005260206000209182019101614ac99190614af4565b5b505050565b614af191905b80821115614aed576000816000905550600101614ad5565b5090565b90565b614b3f91905b80821115614b3b57600080820160006101000a81549073ffffffffffffffffffffffffffffffffffffffff0219169055600182016000905550600201614afa565b5090565b9056fe446973747269627574696f6e733a20746f6f206561726c7920746f20636c61696d207468697320726f756e64446973747269627574696f6e733a20746f6f206c61746520746f20636c61696d207468697320726f756e64446973747269627574696f6e733a206e657874537570706c792073686f756c64206265203e203020616e64203c3d204d41585f524f554e445f535550504c594f776e61626c653a206e6577206f776e657220697320746865207a65726f2061646472657373446973747269627574696f6e733a20737570706c79446563617950657263656e742073686f756c64206265203c2050455243454e545f505245434953494f4e446973747269627574696f6e733a20696e697469616c20737570706c792073686f756c64206265203e203020616e64203c3d204d41585f524f554e445f535550504c59446973747269627574696f6e733a2075736572206b61726d6120697320746f6f206c6f7720746f20636c61696d20706f696e7473446973747269627574696f6e733a20736861726564206f776e6572732070657263656e742073686f756c64206265203c2070657263656e74507265636973696f6e446973747269627574696f6e733a206b61726d612073686f756c64206265203e2030446973747269627574696f6e733a2063616e277420736861726520616c6c2031303025206f6620706f696e747347534e526563697069656e743a206e65772052656c617948756220697320746865207a65726f2061646472657373446973747269627574696f6e733a2047534e20617070726f7665722073686f756c64206e6f742062652030446973747269627574696f6e733a20696e697469616c206b61726d612073686f756c64206265206d6f7265207468616e2030446973747269627574696f6e733a20726f756e642073686f756c64206265203e206c617374526f756e6420616e64203c206c617374526f756e64202b204d41585f534b49505f524f554e4453446973747269627574696f6e733a207468697320726f756e6420686173206e6f206b61726d61536166654d6174683a206d756c7469706c69636174696f6e206f766572666c6f77446973747269627574696f6e733a20746f74616c4b61726d612073686f756c64206265203e2030436f6e747261637420696e7374616e63652068617320616c7265616479206265656e20696e697469616c697a656447534e526563697069656e743a206e65772052656c6179487562206973207468652063757272656e74206f6e65536861726564206f776e6572733a20416464726573736573206172726179206d7573742062652073616d65206c656e6774682061732070657263656e746167657347534e526563697069656e745369676e61747572653a2074727573746564207369676e657220697320746865207a65726f2061646472657373446973747269627574696f6e733a206e6f20706f696e747320746f20636c61696d20696e207468697320726f756e64446973747269627574696f6e733a20736861726564206f776e657273206c696d697420726561636865642c20736565204d41585f5348415245445f4f574e45525347534e526563697069656e743a2063616c6c6572206973206e6f742052656c6179487562446973747269627574696f6e733a207468697320726f756e647320706f696e74732061726520616c726561647920636c61696d6564446973747269627574696f6e733a206f6e6c79206b61726d6120736f757263652063616e20616476616e636520726f756e6473446973747269627574696f6e733a20636c61696d206973206e6f74207369676e656420627920746865206b61726d6120736f75726365446973747269627574696f6e733a206f776e65722073686f756c64206e6f742062652030446973747269627574696f6e733a206b61726d6120736f757263652073686f756c64206e6f742062652030a265627a7a72315820a2c35f60eb63a2c86f534a2bba32e07c943d1f49ba2a77ce93930a3c4b53316d64736f6c63430005100032",
  "source": "/**\n *Submitted for verification at Etherscan.io on 2020-06-09\n*/\n\n// File: @openzeppelin/upgrades/contracts/Initializable.sol\n\npragma solidity >=0.4.24 <0.6.0;\n\nimport \"./lib.sol\";\n\n\n\ncontract Distributions_v0 is Initializable, Ownable, UpdatableGSNRecipientSignature {\n\n    struct SharedOwner {\n        address account;\n        uint256 percent; // e.g. 30% percent = 30 * percentPrecision/100\n    }\n\n    struct DistributionRound {\n        uint256 availablePoints;\n        uint256 sharedOwnersAvailablePoints;\n        uint256 totalKarma;\n    }\n\n    event SharedOwnerUpdated(\n        address indexed _from,\n        address indexed _to,\n        uint256 _percent\n    );\n\n    event AdvanceRound(uint256 round, uint256 totalPoints, uint256 sharedOwnersPoints);\n    event ClaimPoints(uint256 round, address indexed user, uint256 karma, uint256 points);\n    event KarmaSourceUpdated(address _karmaSource, address _prevKarmaSource);\n    event SupplyDecayPercentUpdated(uint256 supplyDecayPercent);\n    event RoundsBeforeExpirationUpdated(uint256 roundsBeforeExpiration);\n\n    using SafeMath for uint256;\n    using Address for address;\n\n    // ------------------------------------------------------------------------------------\n    // VARIABLES BLOCK, MAKE SURE ONLY ADD TO THE END\n\n    address public subredditPoints;\n    address public karmaSource;\n    string public subreddit;\n    string private _subredditLowerCase;\n    uint256 public lastRound;\n    uint256 public startBlockNumber;\n    // maps round number to round data\n    mapping(uint256 => DistributionRound) private _distributionRounds;\n    // maps account to next claimable round\n    mapping(address => uint256) public claimableRounds;\n\n    // when sharing percentage, the least possible share is 1/percentPrecision\n    uint256 public constant PERCENT_PRECISION = 1000000;\n    uint256 public constant MAX_ROUND_SUPPLY = 10**11 * 10**18; // max is 100 bln, to prevent overflows\n\n    // 1 shared owner ~ 35k gas + 250k gas for other ops in advanceToRound\n    // so we limit to (8M - 250k)/35k = 221 maximum shared owners\n    uint256 public constant MAX_SHARED_OWNERS = 200;\n\n    uint256 public constant MAX_SKIP_ROUNDS = 10;\n\n    uint256 public initialSupply;\n    uint256 public roundsBeforeExpiration;\n    uint256 public nextSupply;\n    uint256 public supplyDecayPercent;\n\n    // those owners if exists will get proportion of minted points according to value in percentage\n    SharedOwner[] public sharedOwners;\n    uint256 private _prevRoundSupply;       // supply in a prev round\n    uint256 private _prevClaimed;           // total claimed in a prev round\n\n    // Previous karmaSource signer. Used when rotating karmaSource key to enable\n    // previous signer to still be valid for a while.\n    address public prevKarmaSource;\n\n    // END OF VARS\n    // ------------------------------------------------------------------------------------\n\n\n    function initialize(\n        address owner_,\n        address subredditPoints_,                    // ISubredditPoints + IERC20 token contract address\n        address karmaSource_,                        // Karma source provider address\n        address gsnApprover_,                        // GSN approver address\n\n        uint256 initialSupply_,\n        uint256 nextSupply_,\n        uint256 initialKarma_,\n        uint256 roundsBeforeExpiration_,              // how many rounds are passed before claiming is possible\n        uint256 supplyDecayPercent_,                  // defines percentage of next rounds' supply from the current\n        address[] calldata sharedOwners_,\n        uint256[] calldata sharedOwnersPercs_           // index of percentages must correspond to _sharedOwners array\n    ) external initializer {\n        require(initialSupply_ > 0 && initialSupply_ <= MAX_ROUND_SUPPLY, \"Distributions: initial supply should be > 0 and <= MAX_ROUND_SUPPLY\");\n        require(initialKarma_ > 0, \"Distributions: initial karma should be more than 0\");\n        require(nextSupply_ > 0 && nextSupply_ <= MAX_ROUND_SUPPLY, \"Distributions: nextSupply should be > 0 and <= MAX_ROUND_SUPPLY\");\n        require(karmaSource_ != address(0), \"Distributions: karma source should not be 0\");\n        require(gsnApprover_ != address(0), \"Distributions: GSN approver should not be 0\");\n        require(owner_ != address(0), \"Distributions: owner should not be 0\");\n        require(sharedOwners_.length == sharedOwnersPercs_.length, \"Shared owners: Addresses array must be same length as percentages\");\n\n        Ownable.initialize(owner_);\n        UpdatableGSNRecipientSignature.initialize(gsnApprover_);\n        updateSupplyDecayPercent(supplyDecayPercent_);\n        updateRoundsBeforeExpiration(roundsBeforeExpiration_);\n\n        subredditPoints = subredditPoints_;\n        karmaSource = karmaSource_;\n        prevKarmaSource = karmaSource_;\n        subreddit = ISubredditPoints(subredditPoints_).subreddit();\n        _subredditLowerCase = _toLower(subreddit);\n\n        startBlockNumber = block.number;\n\n        initialSupply = initialSupply_;\n        nextSupply = nextSupply_;\n\n        for (uint i = 0; i < sharedOwners_.length; i++) {\n            _updateSharedOwner(sharedOwners_[i], sharedOwnersPercs_[i]);\n        }\n\n        uint256 sharedOwnersPoints = calcSharedOwnersAvailablePoints(initialSupply);\n        _distributionRounds[0] = DistributionRound({\n            availablePoints: initialSupply,\n            sharedOwnersAvailablePoints: sharedOwnersPoints,\n            totalKarma: initialKarma_\n        });\n\n        emit AdvanceRound(0, initialSupply, sharedOwnersPoints);\n    }\n\n    function claim(uint256 round, address account, uint256 karma, bytes calldata signature) external {\n        require(karma > 0, \"Distributions: karma should be > 0\");\n        require(claimableRounds[account] <= round, \"Distributions: this rounds points are already claimed\");\n        require(round <= lastRound, \"Distributions: too early to claim this round\");\n        uint256 mc = minClaimableRound();\n        require(round >= mc, \"Distributions: too late to claim this round\");\n\n        address signedBy = verifySignature(account, round, karma, signature);\n        require(signedBy == karmaSource || (prevKarmaSource != address(0) && signedBy == prevKarmaSource), \"Distributions: claim is not signed by the karma source\");\n\n        DistributionRound memory dr = _distributionRounds[round];\n        require(dr.availablePoints > 0, \"Distributions: no points to claim in this round\");\n        require(dr.totalKarma > 0, \"Distributions: this round has no karma\");\n        uint256 userPoints = dr.availablePoints\n            .sub(dr.sharedOwnersAvailablePoints)\n            .mul(karma)\n            .div(dr.totalKarma);\n        require(userPoints > 0, \"Distributions: user karma is too low to claim points\");\n        _prevClaimed = _prevClaimed.add(userPoints);\n        claimableRounds[account] = round.add(1);\n        emit ClaimPoints(round, account, karma, userPoints);\n        ISubredditPoints(subredditPoints).mint(address(this), account, userPoints, \"\", \"\");\n    }\n\n    // corresponding _distributionRounds mappings are added with\n    //  + every next distribution supply is `previous - decay` and stored in nextSupply\n    //  + distributed 50% of burned points in a previous round\n    // rounds are removed if they are not claimable anymore\n    function advanceToRound(uint256 round, uint256 totalKarma) external {\n        require((round > lastRound) && (round < lastRound + MAX_SKIP_ROUNDS), \"Distributions: round should be > lastRound and < lastRound + MAX_SKIP_ROUNDS\");\n        require(totalKarma > 0, \"Distributions: totalKarma should be > 0\");\n        require(_msgSender() == karmaSource, \"Distributions: only karma source can advance rounds\");\n        uint256 mc = minClaimableRound();\n\n        if (mc >= (round - lastRound)) {\n            for (uint256 i = mc - (round - lastRound); i < mc; i++) {\n                delete(_distributionRounds[i]);\n            }\n        }\n\n        uint256 ts = IERC20(subredditPoints).totalSupply();\n        uint256 prevClaimedCopy = _prevClaimed;\n\n        // normally this loop should complete in 1 cycle\n        // we move backwards from last to previous rounds\n        for (uint256 i = round; i >= (lastRound + 1) && i >= mc; i--) {\n            uint256 roundPoints = nextSupply;\n\n            // reintroduce 50 % of previously burned tokens\n            uint256 ps = _prevRoundSupply.add(_prevClaimed);\n            if (ps > ts) {\n                roundPoints = roundPoints.add(ps.sub(ts).div(2));\n            }\n\n            // if there is more than 1 cycle, all burned will be reintroduced into the last round\n            // the loop is not stopped due to it may switch to halving for a previous rounds\n            _prevRoundSupply = ts;\n            _prevClaimed = 0;\n\n            if (nextSupply > 0 && supplyDecayPercent > 0) {\n                nextSupply = nextSupply.sub(nextSupply.mul(supplyDecayPercent).div(PERCENT_PRECISION));\n            }\n\n            uint256 sharedOwnersPoints = 0;\n            if (roundPoints > 0) {\n                sharedOwnersPoints = calcSharedOwnersAvailablePoints(roundPoints);\n                _distributionRounds[i] = DistributionRound({\n                    availablePoints: roundPoints,\n                    sharedOwnersAvailablePoints: sharedOwnersPoints,\n                    totalKarma: 0\n                });\n            }\n\n            emit AdvanceRound(i, roundPoints, sharedOwnersPoints);\n        }\n\n        lastRound = round;\n        _prevRoundSupply = ts;\n        _prevClaimed = 0;\n\n        DistributionRound storage dc = _distributionRounds[round];\n        dc.totalKarma = totalKarma;\n\n        // distribute shared cut, but no more than it was claimed by users\n        // this protects from exceeding total amount by increasing percentage between rounds\n        if (dc.sharedOwnersAvailablePoints > 0 && prevClaimedCopy > 0) {\n            uint256 totalSharedPercent;\n            for (uint256 i = 0; i < sharedOwners.length; i++) {\n                totalSharedPercent = totalSharedPercent.add(sharedOwners[i].percent);\n            }\n\n            uint256 claimedPlusShared = prevClaimedCopy\n                .mul(PERCENT_PRECISION)\n                .div(PERCENT_PRECISION.sub(totalSharedPercent));\n\n            uint256 sharedLeft = claimedPlusShared.sub(prevClaimedCopy);\n\n            for (uint256 i = 0; i < sharedOwners.length && sharedLeft > 0; i++) {\n                uint256 ownerPoints = claimedPlusShared.mul(sharedOwners[i].percent).div(PERCENT_PRECISION);\n                if (ownerPoints > 0 && ownerPoints <= sharedLeft) {\n                    ISubredditPoints(subredditPoints).mint(address(this), sharedOwners[i].account, ownerPoints, \"\", \"\");\n                    sharedLeft = sharedLeft.sub(ownerPoints);\n                }\n            }\n        }\n    }\n\n    function totalSharedOwners() external view returns (uint256) {\n        return sharedOwners.length;\n    }\n\n    function updateSupplyDecayPercent(uint256 _supplyDecayPercent) public onlyOwner {\n        require(_supplyDecayPercent < PERCENT_PRECISION, \"Distributions: supplyDecayPercent should be < PERCENT_PRECISION\");\n        supplyDecayPercent = _supplyDecayPercent;\n        emit SupplyDecayPercentUpdated(_supplyDecayPercent);\n    }\n\n    function updateRoundsBeforeExpiration(uint256 _roundsBeforeExpiration) public onlyOwner {\n        roundsBeforeExpiration = _roundsBeforeExpiration;\n        emit RoundsBeforeExpirationUpdated(_roundsBeforeExpiration);\n    }\n\n    function minClaimableRound() public view returns (uint256) {\n        if (lastRound >= roundsBeforeExpiration) {\n            return lastRound.sub(roundsBeforeExpiration);\n        }\n        return 0;\n    }\n\n    function verifySignature(address account, uint256 round, uint256 karma, bytes memory signature)\n        private view returns (address) {\n\n        bytes32 hash = keccak256(abi.encode(_subredditLowerCase, uint256(round), account, karma));\n        bytes32 prefixedHash = ECDSA.toEthSignedMessageHash(hash);\n        return ECDSA.recover(prefixedHash, signature);\n    }\n\n    function calcSharedOwnersAvailablePoints(uint256 points) private view returns (uint256) {\n        uint256 r;\n        for (uint256 i = 0; i < sharedOwners.length; i++) {\n            r = r.add(calcSharedPoints(points, sharedOwners[i]));\n        }\n        return r;\n    }\n\n    function calcSharedPoints(uint256 points, SharedOwner memory sharedOwner) private pure returns (uint256) {\n        return points\n            .mul(sharedOwner.percent)\n            .div(PERCENT_PRECISION);\n    }\n\n    function updateKarmaSource(address _karmaSource) external onlyOwner {\n        require(_karmaSource != address(0), \"Distributions: karma source should not be 0\");\n        prevKarmaSource = karmaSource;\n        karmaSource = _karmaSource;\n        emit KarmaSourceUpdated(_karmaSource, prevKarmaSource);\n    }\n\n    function updateGSNApprover(address gsnApprover) external onlyOwner {\n        updateSigner(gsnApprover);\n    }\n\n    // shared owners get their points 1 round later within advancement\n    // increasing total shared percentage can lead to some of the owners not receiving their cut within a next round\n    function updateSharedOwner(address account, uint256 percent) external onlyOwner {\n        _updateSharedOwner(account, percent);\n    }\n\n    function _updateSharedOwner(address account, uint256 percent) internal {\n        require(percent < PERCENT_PRECISION, \"Distributions: shared owners percent should be < percentPrecision\");\n        require(percent > 0 && sharedOwners.length < MAX_SHARED_OWNERS, \"Distributions: shared owners limit reached, see MAX_SHARED_OWNERS\");\n\n        bool updated = false;\n\n        for (uint256 i = 0; i < sharedOwners.length; i++) {\n            SharedOwner memory so = sharedOwners[i];\n            if (so.account == account) {\n                if (percent == 0) {\n                    if (i != (sharedOwners.length - 1)) { // if it's not last element, replace it from the tail\n                        sharedOwners[i] = sharedOwners[sharedOwners.length-1];\n                    }\n                    // remove tail\n                    sharedOwners.length = sharedOwners.length - 1;\n                } else {\n                    sharedOwners[i].percent = percent;\n                }\n                updated = true;\n            }\n        }\n\n        if (!updated) {\n            if (percent == 0) {\n                return;\n            }\n            sharedOwners.push(SharedOwner(account, percent));\n        }\n\n        checkSharedPercentage();\n        // allow to update sharedOwnersAvailablePoints for a rounds which aren't claimed yet\n        DistributionRound storage dr = _distributionRounds[lastRound];\n        if (_prevClaimed == 0 && dr.availablePoints > 0) {\n            dr.sharedOwnersAvailablePoints = calcSharedOwnersAvailablePoints(dr.availablePoints);\n        }\n        emit SharedOwnerUpdated(_msgSender(), account, percent);\n    }\n\n    function checkSharedPercentage() private view {\n        uint256 total;\n        for (uint256 i = 0; i < sharedOwners.length; i++) {\n            total = sharedOwners[i].percent.add(total);\n        }\n        require(total < PERCENT_PRECISION, \"Distributions: can't share all 100% of points\");\n    }\n\n    function percentPrecision() external pure returns (uint256) {\n        return PERCENT_PRECISION;\n    }\n\n    function _toLower(string memory str) internal pure returns (string memory) {\n        bytes memory bStr = bytes(str);\n        bytes memory bLower = new bytes(bStr.length);\n        for (uint i = 0; i < bStr.length; i++) {\n            if ((int8(bStr[i]) >= 65) && (int8(bStr[i]) <= 90)) {\n                bLower[i] = bytes1(int8(bStr[i]) + 32);\n            } else {\n                bLower[i] = bStr[i];\n            }\n        }\n        return string(bLower);\n    }\n}",
  "sourcePath": "/Users/dzack/arb_reddit_points/contracts/Distributions.sol",
  "compiler": {
    "name": "solc",
    "version": "0.5.16+commit.9c3226ce.Emscripten.clang"
  },
  "schemaVersion": "3.0.23",
  "updatedAt": "2020-07-23T15:27:54.270Z",
  "networkType": "ethereum",
  "devdoc": {
    "methods": {
      "acceptRelayedCall(address,address,bytes,uint256,uint256,uint256,uint256,bytes,uint256)": {
        "details": "Ensures that only transactions with a trusted signature can be relayed through the GSN."
      },
      "getHubAddr()": {
        "details": "Returns the address of the {IRelayHub} contract for this recipient."
      },
      "initialize(address)": {
        "details": "Sets the trusted signer that is going to be producing signatures to approve relayed calls."
      },
      "isOwner()": {
        "details": "Returns true if the caller is the current owner."
      },
      "owner()": {
        "details": "Returns the address of the current owner."
      },
      "postRelayedCall(bytes,bool,uint256,bytes32)": {
        "details": "See `IRelayRecipient.postRelayedCall`.     * This function should not be overriden directly, use `_postRelayedCall` instead.     * * Requirements:     * - the caller must be the `RelayHub` contract."
      },
      "preRelayedCall(bytes)": {
        "details": "See `IRelayRecipient.preRelayedCall`.     * This function should not be overriden directly, use `_preRelayedCall` instead.     * * Requirements:     * - the caller must be the `RelayHub` contract."
      },
      "relayHubVersion()": {
        "details": "Returns the version string of the {IRelayHub} for which this recipient implementation was built. If {_upgradeRelayHub} is used, the new {IRelayHub} instance should be compatible with this version."
      },
      "renounceOwnership()": {
        "details": "Leaves the contract without owner. It will not be possible to call `onlyOwner` functions anymore. Can only be called by the current owner.     * > Note: Renouncing ownership will leave the contract without an owner, thereby removing any functionality that is only available to the owner."
      },
      "transferOwnership(address)": {
        "details": "Transfers ownership of the contract to a new account (`newOwner`). Can only be called by the current owner."
      }
    }
  },
  "userdoc": {
    "methods": {}
  }
}