{
  "contractName": "Distributions_v0",
  "abi": [
    {
      "anonymous": false,
      "inputs": [
        {
          "indexed": false,
          "internalType": "uint256",
          "name": "round",
          "type": "uint256"
        },
        {
          "indexed": false,
          "internalType": "uint256",
          "name": "totalPoints",
          "type": "uint256"
        },
        {
          "indexed": false,
          "internalType": "uint256",
          "name": "sharedOwnersPoints",
          "type": "uint256"
        }
      ],
      "name": "AdvanceRound",
      "type": "event"
    },
    {
      "anonymous": false,
      "inputs": [
        {
          "indexed": false,
          "internalType": "uint256",
          "name": "round",
          "type": "uint256"
        },
        {
          "indexed": true,
          "internalType": "address",
          "name": "user",
          "type": "address"
        },
        {
          "indexed": false,
          "internalType": "uint256",
          "name": "karma",
          "type": "uint256"
        },
        {
          "indexed": false,
          "internalType": "uint256",
          "name": "points",
          "type": "uint256"
        }
      ],
      "name": "ClaimPoints",
      "type": "event"
    },
    {
      "anonymous": false,
      "inputs": [
        {
          "indexed": false,
          "internalType": "address",
          "name": "_karmaSource",
          "type": "address"
        },
        {
          "indexed": false,
          "internalType": "address",
          "name": "_prevKarmaSource",
          "type": "address"
        }
      ],
      "name": "KarmaSourceUpdated",
      "type": "event"
    },
    {
      "anonymous": false,
      "inputs": [
        {
          "indexed": true,
          "internalType": "address",
          "name": "previousOwner",
          "type": "address"
        },
        {
          "indexed": true,
          "internalType": "address",
          "name": "newOwner",
          "type": "address"
        }
      ],
      "name": "OwnershipTransferred",
      "type": "event"
    },
    {
      "anonymous": false,
      "inputs": [
        {
          "indexed": true,
          "internalType": "address",
          "name": "oldRelayHub",
          "type": "address"
        },
        {
          "indexed": true,
          "internalType": "address",
          "name": "newRelayHub",
          "type": "address"
        }
      ],
      "name": "RelayHubChanged",
      "type": "event"
    },
    {
      "anonymous": false,
      "inputs": [
        {
          "indexed": false,
          "internalType": "uint256",
          "name": "roundsBeforeExpiration",
          "type": "uint256"
        }
      ],
      "name": "RoundsBeforeExpirationUpdated",
      "type": "event"
    },
    {
      "anonymous": false,
      "inputs": [
        {
          "indexed": true,
          "internalType": "address",
          "name": "_from",
          "type": "address"
        },
        {
          "indexed": true,
          "internalType": "address",
          "name": "_to",
          "type": "address"
        },
        {
          "indexed": false,
          "internalType": "uint256",
          "name": "_percent",
          "type": "uint256"
        }
      ],
      "name": "SharedOwnerUpdated",
      "type": "event"
    },
    {
      "anonymous": false,
      "inputs": [
        {
          "indexed": false,
          "internalType": "address",
          "name": "signer",
          "type": "address"
        }
      ],
      "name": "SignerUpdated",
      "type": "event"
    },
    {
      "anonymous": false,
      "inputs": [
        {
          "indexed": false,
          "internalType": "uint256",
          "name": "supplyDecayPercent",
          "type": "uint256"
        }
      ],
      "name": "SupplyDecayPercentUpdated",
      "type": "event"
    },
    {
      "constant": true,
      "inputs": [],
      "name": "MAX_ROUND_SUPPLY",
      "outputs": [
        {
          "internalType": "uint256",
          "name": "",
          "type": "uint256"
        }
      ],
      "payable": false,
      "stateMutability": "view",
      "type": "function"
    },
    {
      "constant": true,
      "inputs": [],
      "name": "MAX_SHARED_OWNERS",
      "outputs": [
        {
          "internalType": "uint256",
          "name": "",
          "type": "uint256"
        }
      ],
      "payable": false,
      "stateMutability": "view",
      "type": "function"
    },
    {
      "constant": true,
      "inputs": [],
      "name": "MAX_SKIP_ROUNDS",
      "outputs": [
        {
          "internalType": "uint256",
          "name": "",
          "type": "uint256"
        }
      ],
      "payable": false,
      "stateMutability": "view",
      "type": "function"
    },
    {
      "constant": true,
      "inputs": [],
      "name": "PERCENT_PRECISION",
      "outputs": [
        {
          "internalType": "uint256",
          "name": "",
          "type": "uint256"
        }
      ],
      "payable": false,
      "stateMutability": "view",
      "type": "function"
    },
    {
      "constant": true,
      "inputs": [
        {
          "internalType": "address",
          "name": "relay",
          "type": "address"
        },
        {
          "internalType": "address",
          "name": "from",
          "type": "address"
        },
        {
          "internalType": "bytes",
          "name": "encodedFunction",
          "type": "bytes"
        },
        {
          "internalType": "uint256",
          "name": "transactionFee",
          "type": "uint256"
        },
        {
          "internalType": "uint256",
          "name": "gasPrice",
          "type": "uint256"
        },
        {
          "internalType": "uint256",
          "name": "gasLimit",
          "type": "uint256"
        },
        {
          "internalType": "uint256",
          "name": "nonce",
          "type": "uint256"
        },
        {
          "internalType": "bytes",
          "name": "approvalData",
          "type": "bytes"
        },
        {
          "internalType": "uint256",
          "name": "",
          "type": "uint256"
        }
      ],
      "name": "acceptRelayedCall",
      "outputs": [
        {
          "internalType": "uint256",
          "name": "",
          "type": "uint256"
        },
        {
          "internalType": "bytes",
          "name": "",
          "type": "bytes"
        }
      ],
      "payable": false,
      "stateMutability": "view",
      "type": "function"
    },
    {
      "constant": true,
      "inputs": [],
      "name": "getHubAddr",
      "outputs": [
        {
          "internalType": "address",
          "name": "",
          "type": "address"
        }
      ],
      "payable": false,
      "stateMutability": "view",
      "type": "function"
    },
    {
      "constant": true,
      "inputs": [],
      "name": "initialSupply",
      "outputs": [
        {
          "internalType": "uint256",
          "name": "",
          "type": "uint256"
        }
      ],
      "payable": false,
      "stateMutability": "view",
      "type": "function"
    },
    {
      "constant": true,
      "inputs": [],
      "name": "isOwner",
      "outputs": [
        {
          "internalType": "bool",
          "name": "",
          "type": "bool"
        }
      ],
      "payable": false,
      "stateMutability": "view",
      "type": "function"
    },
    {
      "constant": true,
      "inputs": [],
      "name": "karmaSource",
      "outputs": [
        {
          "internalType": "address",
          "name": "",
          "type": "address"
        }
      ],
      "payable": false,
      "stateMutability": "view",
      "type": "function"
    },
    {
      "constant": true,
      "inputs": [],
      "name": "lastRound",
      "outputs": [
        {
          "internalType": "uint256",
          "name": "",
          "type": "uint256"
        }
      ],
      "payable": false,
      "stateMutability": "view",
      "type": "function"
    },
    {
      "constant": true,
      "inputs": [],
      "name": "nextSupply",
      "outputs": [
        {
          "internalType": "uint256",
          "name": "",
          "type": "uint256"
        }
      ],
      "payable": false,
      "stateMutability": "view",
      "type": "function"
    },
    {
      "constant": true,
      "inputs": [],
      "name": "owner",
      "outputs": [
        {
          "internalType": "address",
          "name": "",
          "type": "address"
        }
      ],
      "payable": false,
      "stateMutability": "view",
      "type": "function"
    },
    {
      "constant": false,
      "inputs": [
        {
          "internalType": "bytes",
          "name": "context",
          "type": "bytes"
        },
        {
          "internalType": "bool",
          "name": "success",
          "type": "bool"
        },
        {
          "internalType": "uint256",
          "name": "actualCharge",
          "type": "uint256"
        },
        {
          "internalType": "bytes32",
          "name": "preRetVal",
          "type": "bytes32"
        }
      ],
      "name": "postRelayedCall",
      "outputs": [],
      "payable": false,
      "stateMutability": "nonpayable",
      "type": "function"
    },
    {
      "constant": false,
      "inputs": [
        {
          "internalType": "bytes",
          "name": "context",
          "type": "bytes"
        }
      ],
      "name": "preRelayedCall",
      "outputs": [
        {
          "internalType": "bytes32",
          "name": "",
          "type": "bytes32"
        }
      ],
      "payable": false,
      "stateMutability": "nonpayable",
      "type": "function"
    },
    {
      "constant": true,
      "inputs": [],
      "name": "prevKarmaSource",
      "outputs": [
        {
          "internalType": "address",
          "name": "",
          "type": "address"
        }
      ],
      "payable": false,
      "stateMutability": "view",
      "type": "function"
    },
    {
      "constant": true,
      "inputs": [],
      "name": "relayHubVersion",
      "outputs": [
        {
          "internalType": "string",
          "name": "",
          "type": "string"
        }
      ],
      "payable": false,
      "stateMutability": "view",
      "type": "function"
    },
    {
      "constant": false,
      "inputs": [],
      "name": "renounceOwnership",
      "outputs": [],
      "payable": false,
      "stateMutability": "nonpayable",
      "type": "function"
    },
    {
      "constant": true,
      "inputs": [],
      "name": "roundsBeforeExpiration",
      "outputs": [
        {
          "internalType": "uint256",
          "name": "",
          "type": "uint256"
        }
      ],
      "payable": false,
      "stateMutability": "view",
      "type": "function"
    },
    {
      "constant": false,
      "inputs": [],
      "name": "setDefaultRelayHub",
      "outputs": [],
      "payable": false,
      "stateMutability": "nonpayable",
      "type": "function"
    },
    {
      "constant": true,
      "inputs": [
        {
          "internalType": "uint256",
          "name": "",
          "type": "uint256"
        }
      ],
      "name": "sharedOwners",
      "outputs": [
        {
          "internalType": "address",
          "name": "account",
          "type": "address"
        },
        {
          "internalType": "uint256",
          "name": "percent",
          "type": "uint256"
        }
      ],
      "payable": false,
      "stateMutability": "view",
      "type": "function"
    },
    {
      "constant": true,
      "inputs": [],
      "name": "startBlockNumber",
      "outputs": [
        {
          "internalType": "uint256",
          "name": "",
          "type": "uint256"
        }
      ],
      "payable": false,
      "stateMutability": "view",
      "type": "function"
    },
    {
      "constant": true,
      "inputs": [],
      "name": "subreddit",
      "outputs": [
        {
          "internalType": "string",
          "name": "",
          "type": "string"
        }
      ],
      "payable": false,
      "stateMutability": "view",
      "type": "function"
    },
    {
      "constant": true,
      "inputs": [],
      "name": "subredditPoints",
      "outputs": [
        {
          "internalType": "address",
          "name": "",
          "type": "address"
        }
      ],
      "payable": false,
      "stateMutability": "view",
      "type": "function"
    },
    {
      "constant": true,
      "inputs": [],
      "name": "supplyDecayPercent",
      "outputs": [
        {
          "internalType": "uint256",
          "name": "",
          "type": "uint256"
        }
      ],
      "payable": false,
      "stateMutability": "view",
      "type": "function"
    },
    {
      "constant": false,
      "inputs": [
        {
          "internalType": "address",
          "name": "newOwner",
          "type": "address"
        }
      ],
      "name": "transferOwnership",
      "outputs": [],
      "payable": false,
      "stateMutability": "nonpayable",
      "type": "function"
    },
    {
      "constant": false,
      "inputs": [],
      "name": "initialize",
      "outputs": [],
      "payable": false,
      "stateMutability": "nonpayable",
      "type": "function"
    },
    {
      "constant": false,
      "inputs": [
        {
          "internalType": "address",
          "name": "trustedSigner",
          "type": "address"
        }
      ],
      "name": "initialize",
      "outputs": [],
      "payable": false,
      "stateMutability": "nonpayable",
      "type": "function"
    },
    {
      "constant": false,
      "inputs": [
        {
          "internalType": "address",
          "name": "owner_",
          "type": "address"
        },
        {
          "internalType": "address",
          "name": "subredditPoints_",
          "type": "address"
        },
        {
          "internalType": "address",
          "name": "karmaSource_",
          "type": "address"
        },
        {
          "internalType": "address",
          "name": "gsnApprover_",
          "type": "address"
        },
        {
          "internalType": "uint256",
          "name": "initialSupply_",
          "type": "uint256"
        },
        {
          "internalType": "uint256",
          "name": "nextSupply_",
          "type": "uint256"
        },
        {
          "internalType": "uint256",
          "name": "initialKarma_",
          "type": "uint256"
        },
        {
          "internalType": "uint256",
          "name": "roundsBeforeExpiration_",
          "type": "uint256"
        },
        {
          "internalType": "uint256",
          "name": "supplyDecayPercent_",
          "type": "uint256"
        },
        {
          "internalType": "address[]",
          "name": "sharedOwners_",
          "type": "address[]"
        },
        {
          "internalType": "uint256[]",
          "name": "sharedOwnersPercs_",
          "type": "uint256[]"
        }
      ],
      "name": "initialize",
      "outputs": [],
      "payable": false,
      "stateMutability": "nonpayable",
      "type": "function"
    },
    {
      "constant": false,
      "inputs": [
        {
          "internalType": "uint256",
          "name": "round",
          "type": "uint256"
        },
        {
          "internalType": "address",
          "name": "account",
          "type": "address"
        },
        {
          "internalType": "uint256",
          "name": "karma",
          "type": "uint256"
        },
        {
          "internalType": "bytes",
          "name": "signature",
          "type": "bytes"
        }
      ],
      "name": "claim",
      "outputs": [],
      "payable": false,
      "stateMutability": "nonpayable",
      "type": "function"
    },
    {
      "constant": false,
      "inputs": [
        {
          "internalType": "uint256",
          "name": "round",
          "type": "uint256"
        },
        {
          "internalType": "uint256",
          "name": "totalKarma",
          "type": "uint256"
        }
      ],
      "name": "advanceToRound",
      "outputs": [],
      "payable": false,
      "stateMutability": "nonpayable",
      "type": "function"
    },
    {
      "constant": true,
      "inputs": [],
      "name": "totalSharedOwners",
      "outputs": [
        {
          "internalType": "uint256",
          "name": "",
          "type": "uint256"
        }
      ],
      "payable": false,
      "stateMutability": "view",
      "type": "function"
    },
    {
      "constant": false,
      "inputs": [
        {
          "internalType": "uint256",
          "name": "_supplyDecayPercent",
          "type": "uint256"
        }
      ],
      "name": "updateSupplyDecayPercent",
      "outputs": [],
      "payable": false,
      "stateMutability": "nonpayable",
      "type": "function"
    },
    {
      "constant": false,
      "inputs": [
        {
          "internalType": "uint256",
          "name": "_roundsBeforeExpiration",
          "type": "uint256"
        }
      ],
      "name": "updateRoundsBeforeExpiration",
      "outputs": [],
      "payable": false,
      "stateMutability": "nonpayable",
      "type": "function"
    },
    {
      "constant": true,
      "inputs": [],
      "name": "minClaimableRound",
      "outputs": [
        {
          "internalType": "uint256",
          "name": "",
          "type": "uint256"
        }
      ],
      "payable": false,
      "stateMutability": "view",
      "type": "function"
    },
    {
      "constant": false,
      "inputs": [
        {
          "internalType": "address",
          "name": "_karmaSource",
          "type": "address"
        }
      ],
      "name": "updateKarmaSource",
      "outputs": [],
      "payable": false,
      "stateMutability": "nonpayable",
      "type": "function"
    },
    {
      "constant": false,
      "inputs": [
        {
          "internalType": "address",
          "name": "gsnApprover",
          "type": "address"
        }
      ],
      "name": "updateGSNApprover",
      "outputs": [],
      "payable": false,
      "stateMutability": "nonpayable",
      "type": "function"
    },
    {
      "constant": false,
      "inputs": [
        {
          "internalType": "address",
          "name": "account",
          "type": "address"
        },
        {
          "internalType": "uint256",
          "name": "percent",
          "type": "uint256"
        }
      ],
      "name": "updateSharedOwner",
      "outputs": [],
      "payable": false,
      "stateMutability": "nonpayable",
      "type": "function"
    },
    {
      "constant": true,
      "inputs": [],
      "name": "percentPrecision",
      "outputs": [
        {
          "internalType": "uint256",
          "name": "",
          "type": "uint256"
        }
      ],
      "payable": false,
      "stateMutability": "pure",
      "type": "function"
    }
  ],
  "bytecode": "0x6080604052615099806100136000396000f3fe608060405234801561001057600080fd5b50600436106102315760003560e01c80638129fc1c11610130578063b994a7c5116100b8578063e06e0e221161007c578063e06e0e2214610cb9578063e361349d14610d52578063f2fde38b14610d70578063f9714c0c14610db4578063ffe8e37214610dd257610231565b8063b994a7c5146109de578063bdc330cb146109fc578063c32be42814610a7f578063c4d66de814610af4578063d8906f3d14610b3857610231565b80638da5cb5b116100ff5780638da5cb5b146108245780638f32d59b1461086e5780639901614214610890578063ad61ccd51461093d578063b361b00f146109c057610231565b80638129fc1c146105f157806382bc07e6146105fb57806383947ea01461061957806389304061146107da57610231565b8063498a4c2d116101be578063715018a611610182578063715018a61461049e57806374e861d6146104a85780637e6b26cf146104f25780637f3619281461052057806380274db71461056457610231565b8063498a4c2d146103b257806351ad5a97146103d057806356df8adb146103ee5780635a5f219414610426578063636049a71461047057610231565b80632ad9b698116102055780632ad9b698146102ec5780632fd4af051461030a578063303238a21461035857806330e3a03514610376578063378dc3dc1461039457610231565b806215d5b1146102365780631220e2ff14610280578063197ad63a1461028a5780631c00f07f146102a8575b600080fd5b61023e610df0565b604051808273ffffffffffffffffffffffffffffffffffffffff1673ffffffffffffffffffffffffffffffffffffffff16815260200191505060405180910390f35b610288610e16565b005b610292610e35565b6040518082815260200191505060405180910390f35b6102ea600480360360208110156102be57600080fd5b81019080803573ffffffffffffffffffffffffffffffffffffffff169060200190929190505050610e68565b005b6102f4610eee565b6040518082815260200191505060405180910390f35b6103566004803603604081101561032057600080fd5b81019080803573ffffffffffffffffffffffffffffffffffffffff16906020019092919080359060200190929190505050610ef4565b005b610360610f7c565b6040518082815260200191505060405180910390f35b61037e610f81565b6040518082815260200191505060405180910390f35b61039c610f86565b6040518082815260200191505060405180910390f35b6103ba610f8c565b6040518082815260200191505060405180910390f35b6103d8610f92565b6040518082815260200191505060405180910390f35b6104246004803603604081101561040457600080fd5b810190808035906020019092919080359060200190929190505050610f98565b005b61042e6116dc565b604051808273ffffffffffffffffffffffffffffffffffffffff1673ffffffffffffffffffffffffffffffffffffffff16815260200191505060405180910390f35b61049c6004803603602081101561048657600080fd5b8101908080359060200190929190505050611702565b005b6104a66117bd565b005b6104b06118f8565b604051808273ffffffffffffffffffffffffffffffffffffffff1673ffffffffffffffffffffffffffffffffffffffff16815260200191505060405180910390f35b61051e6004803603602081101561050857600080fd5b8101908080359060200190929190505050611922565b005b6105626004803603602081101561053657600080fd5b81019080803573ffffffffffffffffffffffffffffffffffffffff169060200190929190505050611a38565b005b6105db6004803603602081101561057a57600080fd5b810190808035906020019064010000000081111561059757600080fd5b8201836020820111156105a957600080fd5b803590602001918460018302840111640100000000831117156105cb57600080fd5b9091929391929390505050611c98565b6040518082815260200191505060405180910390f35b6105f9611d7a565b005b610603611ed9565b6040518082815260200191505060405180910390f35b610758600480360361012081101561063057600080fd5b81019080803573ffffffffffffffffffffffffffffffffffffffff169060200190929190803573ffffffffffffffffffffffffffffffffffffffff1690602001909291908035906020019064010000000081111561068d57600080fd5b82018360208201111561069f57600080fd5b803590602001918460018302840111640100000000831117156106c157600080fd5b9091929391929390803590602001909291908035906020019092919080359060200190929190803590602001909291908035906020019064010000000081111561070a57600080fd5b82018360208201111561071c57600080fd5b8035906020019184600183028401116401000000008311171561073e57600080fd5b909192939192939080359060200190929190505050611edf565b6040518083815260200180602001828103825283818151815260200191508051906020019080838360005b8381101561079e578082015181840152602081019050610783565b50505050905090810190601f1680156107cb5780820380516001836020036101000a031916815260200191505b50935050505060405180910390f35b6107e2612120565b604051808273ffffffffffffffffffffffffffffffffffffffff1673ffffffffffffffffffffffffffffffffffffffff16815260200191505060405180910390f35b61082c612146565b604051808273ffffffffffffffffffffffffffffffffffffffff1673ffffffffffffffffffffffffffffffffffffffff16815260200191505060405180910390f35b610876612170565b604051808215151515815260200191505060405180910390f35b61093b600480360360808110156108a657600080fd5b8101908080359060200190929190803573ffffffffffffffffffffffffffffffffffffffff16906020019092919080359060200190929190803590602001906401000000008111156108f757600080fd5b82018360208201111561090957600080fd5b8035906020019184600183028401116401000000008311171561092b57600080fd5b90919293919293905050506121cf565b005b6109456128c5565b6040518080602001828103825283818151815260200191508051906020019080838360005b8381101561098557808201518184015260208101905061096a565b50505050905090810190601f1680156109b25780820380516001836020036101000a031916815260200191505b509250505060405180910390f35b6109c8612902565b6040518082815260200191505060405180910390f35b6109e6612913565b6040518082815260200191505060405180910390f35b610a0461291e565b6040518080602001828103825283818151815260200191508051906020019080838360005b83811015610a44578082015181840152602081019050610a29565b50505050905090810190601f168015610a715780820380516001836020036101000a031916815260200191505b509250505060405180910390f35b610aab60048036036020811015610a9557600080fd5b81019080803590602001909291905050506129bc565b604051808373ffffffffffffffffffffffffffffffffffffffff1673ffffffffffffffffffffffffffffffffffffffff1681526020018281526020019250505060405180910390f35b610b3660048036036020811015610b0a57600080fd5b81019080803573ffffffffffffffffffffffffffffffffffffffff169060200190929190505050612a0d565b005b610cb76004803603610160811015610b4f57600080fd5b81019080803573ffffffffffffffffffffffffffffffffffffffff169060200190929190803573ffffffffffffffffffffffffffffffffffffffff169060200190929190803573ffffffffffffffffffffffffffffffffffffffff169060200190929190803573ffffffffffffffffffffffffffffffffffffffff169060200190929190803590602001909291908035906020019092919080359060200190929190803590602001909291908035906020019092919080359060200190640100000000811115610c1e57600080fd5b820183602082011115610c3057600080fd5b80359060200191846020830284011164010000000083111715610c5257600080fd5b909192939192939080359060200190640100000000811115610c7357600080fd5b820183602082011115610c8557600080fd5b80359060200191846020830284011164010000000083111715610ca757600080fd5b9091929391929390505050612b1e565b005b610d5060048036036080811015610ccf57600080fd5b8101908080359060200190640100000000811115610cec57600080fd5b820183602082011115610cfe57600080fd5b80359060200191846001830284011164010000000083111715610d2057600080fd5b9091929391929390803515159060200190929190803590602001909291908035906020019092919050505061336f565b005b610d5a613451565b6040518082815260200191505060405180910390f35b610db260048036036020811015610d8657600080fd5b81019080803573ffffffffffffffffffffffffffffffffffffffff16906020019092919050505061345e565b005b610dbc6134e4565b6040518082815260200191505060405180910390f35b610dda6134ea565b6040518082815260200191505060405180910390f35b606960009054906101000a900473ffffffffffffffffffffffffffffffffffffffff1681565b610e3373d216153c06e857cd7f72665e0af1d7d82172f4946134f1565b565b6000607154606c5410610e6057610e59607154606c546136c290919063ffffffff16565b9050610e65565b600090505b90565b610e70612170565b610ee2576040517f08c379a00000000000000000000000000000000000000000000000000000000081526004018080602001828103825260208152602001807f4f776e61626c653a2063616c6c6572206973206e6f7420746865206f776e657281525060200191505060405180910390fd5b610eeb8161370c565b50565b60725481565b610efc612170565b610f6e576040517f08c379a00000000000000000000000000000000000000000000000000000000081526004018080602001828103825260208152602001807f4f776e61626c653a2063616c6c6572206973206e6f7420746865206f776e657281525060200191505060405180910390fd5b610f788282613839565b5050565b60c881565b600a81565b60705481565b606d5481565b60735481565b606c5482118015610fad5750600a606c540182105b611002576040517f08c379a000000000000000000000000000000000000000000000000000000000815260040180806020018281038252604c815260200180614d55604c913960600191505060405180910390fd5b6000811161105b576040517f08c379a0000000000000000000000000000000000000000000000000000000008152600401808060200182810382526027815260200180614de86027913960400191505060405180910390fd5b606960009054906101000a900473ffffffffffffffffffffffffffffffffffffffff1673ffffffffffffffffffffffffffffffffffffffff1661109c613c83565b73ffffffffffffffffffffffffffffffffffffffff1614611108576040517f08c379a0000000000000000000000000000000000000000000000000000000008152600401808060200182810382526033815260200180614fad6033913960400191505060405180910390fd5b6000611112610e35565b9050606c5483038110611170576000606c548403820390505b8181101561116e57606e6000828152602001908152602001600020600080820160009055600182016000905560028201600090555050808060010191505061112b565b505b6000606860009054906101000a900473ffffffffffffffffffffffffffffffffffffffff1673ffffffffffffffffffffffffffffffffffffffff166318160ddd6040518163ffffffff1660e01b815260040160206040518083038186803b1580156111da57600080fd5b505afa1580156111ee573d6000803e3d6000fd5b505050506040513d602081101561120457600080fd5b810190808051906020019092919050505090506000607654905060008590505b6001606c540181101580156112395750838110155b156113d45760006072549050600061125e607654607554613cf090919063ffffffff16565b9050848111156112a3576112a0611291600261128388856136c290919063ffffffff16565b613d7890919063ffffffff16565b83613cf090919063ffffffff16565b91505b84607581905550600060768190555060006072541180156112c657506000607354115b156113125761130b6112fa620f42406112ec607354607254613dc290919063ffffffff16565b613d7890919063ffffffff16565b6072546136c290919063ffffffff16565b6072819055505b6000809050600083111561137c5761132983613e48565b905060405180606001604052808481526020018281526020016000815250606e60008681526020019081526020016000206000820151816000015560208201518160010155604082015181600201559050505b7f7abd75c194a519c7fa820e973913b881d125f00b25a62aa1b242f1a3be7313a084848360405180848152602001838152602001828152602001935050505060405180910390a1505050808060019003915050611224565b5084606c819055508160758190555060006076819055506000606e600087815260200190815260200160002090508481600201819055506000816001015411801561141f5750600082115b156116d457600080600090505b6074805490508110156114795761146a6074828154811061144957fe5b90600052602060002090600202016001015483613cf090919063ffffffff16565b9150808060010191505061142c565b5060006114b961149583620f42406136c290919063ffffffff16565b6114ab620f424087613dc290919063ffffffff16565b613d7890919063ffffffff16565b905060006114d085836136c290919063ffffffff16565b905060008090505b607480549050811080156114ec5750600082115b156116cf576000611539620f424061152b6074858154811061150a57fe5b90600052602060002090600202016001015487613dc290919063ffffffff16565b613d7890919063ffffffff16565b905060008111801561154b5750828111155b156116c157606860009054906101000a900473ffffffffffffffffffffffffffffffffffffffff1673ffffffffffffffffffffffffffffffffffffffff1663ab89013b306074858154811061159c57fe5b906000526020600020906002020160000160009054906101000a900473ffffffffffffffffffffffffffffffffffffffff16846040518463ffffffff1660e01b8152600401808473ffffffffffffffffffffffffffffffffffffffff1673ffffffffffffffffffffffffffffffffffffffff1681526020018373ffffffffffffffffffffffffffffffffffffffff1673ffffffffffffffffffffffffffffffffffffffff168152602001828152602001806020018060200183810383526000815260200160200183810382526000815260200160200195505050505050600060405180830381600087803b15801561169357600080fd5b505af11580156116a7573d6000803e3d6000fd5b505050506116be81846136c290919063ffffffff16565b92505b5080806001019150506114d8565b505050505b505050505050565b607760009054906101000a900473ffffffffffffffffffffffffffffffffffffffff1681565b61170a612170565b61177c576040517f08c379a00000000000000000000000000000000000000000000000000000000081526004018080602001828103825260208152602001807f4f776e61626c653a2063616c6c6572206973206e6f7420746865206f776e657281525060200191505060405180910390fd5b806071819055507f9b9d9ee399388905981700b7c8de8ca8853dbf397b77d509d7ed7a3d4dff52a6816040518082815260200191505060405180910390a150565b6117c5612170565b611837576040517f08c379a00000000000000000000000000000000000000000000000000000000081526004018080602001828103825260208152602001807f4f776e61626c653a2063616c6c6572206973206e6f7420746865206f776e657281525060200191505060405180910390fd5b600073ffffffffffffffffffffffffffffffffffffffff16603360009054906101000a900473ffffffffffffffffffffffffffffffffffffffff1673ffffffffffffffffffffffffffffffffffffffff167f8be0079c531659141344cd1fd0a4f28419497f9722a3daafe3b4186f6b6457e060405160405180910390a36000603360006101000a81548173ffffffffffffffffffffffffffffffffffffffff021916908373ffffffffffffffffffffffffffffffffffffffff160217905550565b6000606660009054906101000a900473ffffffffffffffffffffffffffffffffffffffff16905090565b61192a612170565b61199c576040517f08c379a00000000000000000000000000000000000000000000000000000000081526004018080602001828103825260208152602001807f4f776e61626c653a2063616c6c6572206973206e6f7420746865206f776e657281525060200191505060405180910390fd5b620f424081106119f7576040517f08c379a000000000000000000000000000000000000000000000000000000000815260040180806020018281038252603f815260200180614b84603f913960400191505060405180910390fd5b806073819055507f3fc8c6c6a50072e9b4dcce50dc8a4f21877704651dff1c72f102afde8e08016b816040518082815260200191505060405180910390a150565b611a40612170565b611ab2576040517f08c379a00000000000000000000000000000000000000000000000000000000081526004018080602001828103825260208152602001807f4f776e61626c653a2063616c6c6572206973206e6f7420746865206f776e657281525060200191505060405180910390fd5b600073ffffffffffffffffffffffffffffffffffffffff168173ffffffffffffffffffffffffffffffffffffffff161415611b38576040517f08c379a000000000000000000000000000000000000000000000000000000000815260040180806020018281038252602b81526020018061503a602b913960400191505060405180910390fd5b606960009054906101000a900473ffffffffffffffffffffffffffffffffffffffff16607760006101000a81548173ffffffffffffffffffffffffffffffffffffffff021916908373ffffffffffffffffffffffffffffffffffffffff16021790555080606960006101000a81548173ffffffffffffffffffffffffffffffffffffffff021916908373ffffffffffffffffffffffffffffffffffffffff1602179055507fea601ecdff79475b71fb4d1545a7ebca8349b2af1ca1ff06dae26d8598067e1281607760009054906101000a900473ffffffffffffffffffffffffffffffffffffffff16604051808373ffffffffffffffffffffffffffffffffffffffff1673ffffffffffffffffffffffffffffffffffffffff1681526020018273ffffffffffffffffffffffffffffffffffffffff1673ffffffffffffffffffffffffffffffffffffffff1681526020019250505060405180910390a150565b6000611ca26118f8565b73ffffffffffffffffffffffffffffffffffffffff163373ffffffffffffffffffffffffffffffffffffffff1614611d25576040517f08c379a0000000000000000000000000000000000000000000000000000000008152600401808060200182810382526024815260200180614f546024913960400191505060405180910390fd5b611d7283838080601f016020809104026020016040519081016040528093929190818152602001838380828437600081840152601f19601f82011690508083019250505050505050613f18565b905092915050565b600060019054906101000a900460ff1680611d995750611d98613f1f565b5b80611db057506000809054906101000a900460ff16155b611e05576040517f08c379a000000000000000000000000000000000000000000000000000000000815260040180806020018281038252602e815260200180614e0f602e913960400191505060405180910390fd5b60008060019054906101000a900460ff161590508015611e55576001600060016101000a81548160ff02191690831515021790555060016000806101000a81548160ff0219169083151502179055505b600073ffffffffffffffffffffffffffffffffffffffff16606660009054906101000a900473ffffffffffffffffffffffffffffffffffffffff1673ffffffffffffffffffffffffffffffffffffffff161415611eb557611eb4610e16565b5b8015611ed65760008060016101000a81548160ff0219169083151502179055505b50565b606c5481565b60006060808d8d8d8d8d8d8d8d611ef46118f8565b30604051602001808b73ffffffffffffffffffffffffffffffffffffffff1673ffffffffffffffffffffffffffffffffffffffff1681526020018a73ffffffffffffffffffffffffffffffffffffffff1673ffffffffffffffffffffffffffffffffffffffff168152602001806020018881526020018781526020018681526020018581526020018473ffffffffffffffffffffffffffffffffffffffff1673ffffffffffffffffffffffffffffffffffffffff1681526020018373ffffffffffffffffffffffffffffffffffffffff1673ffffffffffffffffffffffffffffffffffffffff16815260200182810382528a8a82818152602001925080828437600081840152601f19601f8201169050808301925050509b5050505050505050505050506040516020818303038152906040529050606760009054906101000a900473ffffffffffffffffffffffffffffffffffffffff1673ffffffffffffffffffffffffffffffffffffffff166120c887878080601f016020809104026020016040519081016040528093929190818152602001838380828437600081840152601f19601f820116905080830192505050505050506120ba8480519060200120613f30565b613f8890919063ffffffff16565b73ffffffffffffffffffffffffffffffffffffffff1614156120f6576120ec61408c565b9250925050612110565b61210a60008081111561210557fe5b6140b0565b92509250505b9b509b9950505050505050505050565b606860009054906101000a900473ffffffffffffffffffffffffffffffffffffffff1681565b6000603360009054906101000a900473ffffffffffffffffffffffffffffffffffffffff16905090565b6000603360009054906101000a900473ffffffffffffffffffffffffffffffffffffffff1673ffffffffffffffffffffffffffffffffffffffff166121b3613c83565b73ffffffffffffffffffffffffffffffffffffffff1614905090565b60008311612228576040517f08c379a0000000000000000000000000000000000000000000000000000000008152600401808060200182810382526022815260200180614c7b6022913960400191505060405180910390fd5b84606f60008673ffffffffffffffffffffffffffffffffffffffff1673ffffffffffffffffffffffffffffffffffffffff1681526020019081526020016000205411156122c0576040517f08c379a0000000000000000000000000000000000000000000000000000000008152600401808060200182810382526035815260200180614f786035913960400191505060405180910390fd5b606c5485111561231b576040517f08c379a000000000000000000000000000000000000000000000000000000000815260040180806020018281038252602c815260200180614ac8602c913960400191505060405180910390fd5b6000612325610e35565b905080861015612380576040517f08c379a000000000000000000000000000000000000000000000000000000000815260040180806020018281038252602b815260200180614af4602b913960400191505060405180910390fd5b60006123d286888787878080601f016020809104026020016040519081016040528093929190818152602001838380828437600081840152601f19601f820116905080830192505050505050506140d1565b9050606960009054906101000a900473ffffffffffffffffffffffffffffffffffffffff1673ffffffffffffffffffffffffffffffffffffffff168173ffffffffffffffffffffffffffffffffffffffff1614806124d85750600073ffffffffffffffffffffffffffffffffffffffff16607760009054906101000a900473ffffffffffffffffffffffffffffffffffffffff1673ffffffffffffffffffffffffffffffffffffffff16141580156124d75750607760009054906101000a900473ffffffffffffffffffffffffffffffffffffffff1673ffffffffffffffffffffffffffffffffffffffff168173ffffffffffffffffffffffffffffffffffffffff16145b5b61252d576040517f08c379a0000000000000000000000000000000000000000000000000000000008152600401808060200182810382526036815260200180614fe06036913960400191505060405180910390fd5b612535614951565b606e60008981526020019081526020016000206040518060600160405290816000820154815260200160018201548152602001600282015481525050905060008160000151116125d0576040517f08c379a000000000000000000000000000000000000000000000000000000000815260040180806020018281038252602f815260200180614ee4602f913960400191505060405180910390fd5b600081604001511161262d576040517f08c379a0000000000000000000000000000000000000000000000000000000008152600401808060200182810382526026815260200180614da16026913960400191505060405180910390fd5b6000612672826040015161266489612656866020015187600001516136c290919063ffffffff16565b613dc290919063ffffffff16565b613d7890919063ffffffff16565b9050600081116126cd576040517f08c379a0000000000000000000000000000000000000000000000000000000008152600401808060200182810382526034815260200180614c066034913960400191505060405180910390fd5b6126e281607654613cf090919063ffffffff16565b6076819055506126fc60018a613cf090919063ffffffff16565b606f60008a73ffffffffffffffffffffffffffffffffffffffff1673ffffffffffffffffffffffffffffffffffffffff168152602001908152602001600020819055508773ffffffffffffffffffffffffffffffffffffffff167f05c0dd48c9c829cad200bd1db15fa75fb03cae88add3bd16cb8899cc39412f748a898460405180848152602001838152602001828152602001935050505060405180910390a2606860009054906101000a900473ffffffffffffffffffffffffffffffffffffffff1673ffffffffffffffffffffffffffffffffffffffff1663ab89013b308a846040518463ffffffff1660e01b8152600401808473ffffffffffffffffffffffffffffffffffffffff1673ffffffffffffffffffffffffffffffffffffffff1681526020018373ffffffffffffffffffffffffffffffffffffffff1673ffffffffffffffffffffffffffffffffffffffff168152602001828152602001806020018060200183810383526000815260200160200183810382526000815260200160200195505050505050600060405180830381600087803b1580156128a257600080fd5b505af11580156128b6573d6000803e3d6000fd5b50505050505050505050505050565b60606040518060400160405280600581526020017f312e302e30000000000000000000000000000000000000000000000000000000815250905090565b6c01431e0fae6d7217caa000000081565b6000620f4240905090565b606a8054600181600116156101000203166002900480601f0160208091040260200160405190810160405280929190818152602001828054600181600116156101000203166002900480156129b45780601f10612989576101008083540402835291602001916129b4565b820191906000526020600020905b81548152906001019060200180831161299757829003601f168201915b505050505081565b607481815481106129c957fe5b90600052602060002090600202016000915090508060000160009054906101000a900473ffffffffffffffffffffffffffffffffffffffff16908060010154905082565b600060019054906101000a900460ff1680612a2c5750612a2b613f1f565b5b80612a4357506000809054906101000a900460ff16155b612a98576040517f08c379a000000000000000000000000000000000000000000000000000000000815260040180806020018281038252602e815260200180614e0f602e913960400191505060405180910390fd5b60008060019054906101000a900460ff161590508015612ae8576001600060016101000a81548160ff02191690831515021790555060016000806101000a81548160ff0219169083151502179055505b612af18261370c565b612af9611d7a565b8015612b1a5760008060016101000a81548160ff0219169083151502179055505b5050565b600060019054906101000a900460ff1680612b3d5750612b3c613f1f565b5b80612b5457506000809054906101000a900460ff16155b612ba9576040517f08c379a000000000000000000000000000000000000000000000000000000000815260040180806020018281038252602e815260200180614e0f602e913960400191505060405180910390fd5b60008060019054906101000a900460ff161590508015612bf9576001600060016101000a81548160ff02191690831515021790555060016000806101000a81548160ff0219169083151502179055505b60008a118015612c1657506c01431e0fae6d7217caa00000008a11155b612c6b576040517f08c379a0000000000000000000000000000000000000000000000000000000008152600401808060200182810382526043815260200180614bc36043913960600191505060405180910390fd5b60008811612cc4576040517f08c379a0000000000000000000000000000000000000000000000000000000008152600401808060200182810382526032815260200180614d236032913960400191505060405180910390fd5b600089118015612ce157506c01431e0fae6d7217caa00000008911155b612d36576040517f08c379a000000000000000000000000000000000000000000000000000000000815260040180806020018281038252603f815260200180614b1f603f913960400191505060405180910390fd5b600073ffffffffffffffffffffffffffffffffffffffff168c73ffffffffffffffffffffffffffffffffffffffff161415612dbc576040517f08c379a000000000000000000000000000000000000000000000000000000000815260040180806020018281038252602b81526020018061503a602b913960400191505060405180910390fd5b600073ffffffffffffffffffffffffffffffffffffffff168b73ffffffffffffffffffffffffffffffffffffffff161415612e42576040517f08c379a000000000000000000000000000000000000000000000000000000000815260040180806020018281038252602b815260200180614cf8602b913960400191505060405180910390fd5b600073ffffffffffffffffffffffffffffffffffffffff168e73ffffffffffffffffffffffffffffffffffffffff161415612ec8576040517f08c379a00000000000000000000000000000000000000000000000000000000081526004018080602001828103825260248152602001806150166024913960400191505060405180910390fd5b828290508585905014612f26576040517f08c379a0000000000000000000000000000000000000000000000000000000008152600401808060200182810382526041815260200180614e6a6041913960600191505060405180910390fd5b612f2f8e6141e7565b612f388b612a0d565b612f4186611922565b612f4a87611702565b8c606860006101000a81548173ffffffffffffffffffffffffffffffffffffffff021916908373ffffffffffffffffffffffffffffffffffffffff1602179055508b606960006101000a81548173ffffffffffffffffffffffffffffffffffffffff021916908373ffffffffffffffffffffffffffffffffffffffff1602179055508b607760006101000a81548173ffffffffffffffffffffffffffffffffffffffff021916908373ffffffffffffffffffffffffffffffffffffffff1602179055508c73ffffffffffffffffffffffffffffffffffffffff1663bdc330cb6040518163ffffffff1660e01b815260040160006040518083038186803b15801561305357600080fd5b505afa158015613067573d6000803e3d6000fd5b505050506040513d6000823e3d601f19601f82011682018060405250602081101561309157600080fd5b81019080805160405193929190846401000000008211156130b157600080fd5b838201915060208201858111156130c757600080fd5b82518660018202830111640100000000821117156130e457600080fd5b8083526020830192505050908051906020019080838360005b838110156131185780820151818401526020810190506130fd565b50505050905090810190601f1680156131455780820380516001836020036101000a031916815260200191505b50604052505050606a9080519060200190613161929190614972565b50613205606a8054600181600116156101000203166002900480601f0160208091040260200160405190810160405280929190818152602001828054600181600116156101000203166002900480156131fb5780601f106131d0576101008083540402835291602001916131fb565b820191906000526020600020905b8154815290600101906020018083116131de57829003601f168201915b50505050506143a5565b606b908051906020019061321a929190614972565b5043606d81905550896070819055508860728190555060008090505b858590508110156132925761328586868381811061325057fe5b9050602002013573ffffffffffffffffffffffffffffffffffffffff1685858481811061327957fe5b90506020020135613839565b8080600101915050613236565b5060006132a0607054613e48565b9050604051806060016040528060705481526020018281526020018a815250606e60008081526020019081526020016000206000820151816000015560208201518160010155604082015181600201559050507f7abd75c194a519c7fa820e973913b881d125f00b25a62aa1b242f1a3be7313a060006070548360405180848152602001838152602001828152602001935050505060405180910390a150801561335f5760008060016101000a81548160ff0219169083151502179055505b5050505050505050505050505050565b6133776118f8565b73ffffffffffffffffffffffffffffffffffffffff163373ffffffffffffffffffffffffffffffffffffffff16146133fa576040517f08c379a0000000000000000000000000000000000000000000000000000000008152600401808060200182810382526024815260200180614f546024913960400191505060405180910390fd5b61344a85858080601f016020809104026020016040519081016040528093929190818152602001838380828437600081840152601f19601f8201169050808301925050505050505084848461450d565b5050505050565b6000607480549050905090565b613466612170565b6134d8576040517f08c379a00000000000000000000000000000000000000000000000000000000081526004018080602001828103825260208152602001807f4f776e61626c653a2063616c6c6572206973206e6f7420746865206f776e657281525060200191505060405180910390fd5b6134e181614513565b50565b60715481565b620f424081565b6000606660009054906101000a900473ffffffffffffffffffffffffffffffffffffffff169050600073ffffffffffffffffffffffffffffffffffffffff168273ffffffffffffffffffffffffffffffffffffffff16141561359e576040517f08c379a000000000000000000000000000000000000000000000000000000000815260040180806020018281038252602e815260200180614cca602e913960400191505060405180910390fd5b8073ffffffffffffffffffffffffffffffffffffffff168273ffffffffffffffffffffffffffffffffffffffff161415613623576040517f08c379a000000000000000000000000000000000000000000000000000000000815260040180806020018281038252602d815260200180614e3d602d913960400191505060405180910390fd5b8173ffffffffffffffffffffffffffffffffffffffff168173ffffffffffffffffffffffffffffffffffffffff167fb9f84b8e65164b14439ae3620df0a4d8786d896996c0282b683f9d8c08f046e860405160405180910390a381606660006101000a81548173ffffffffffffffffffffffffffffffffffffffff021916908373ffffffffffffffffffffffffffffffffffffffff1602179055505050565b600061370483836040518060400160405280601e81526020017f536166654d6174683a207375627472616374696f6e206f766572666c6f770000815250614659565b905092915050565b600073ffffffffffffffffffffffffffffffffffffffff168173ffffffffffffffffffffffffffffffffffffffff161415613792576040517f08c379a0000000000000000000000000000000000000000000000000000000008152600401808060200182810382526039815260200180614eab6039913960400191505060405180910390fd5b80606760006101000a81548173ffffffffffffffffffffffffffffffffffffffff021916908373ffffffffffffffffffffffffffffffffffffffff1602179055507f5553331329228fbd4123164423717a4a7539f6dfa1c3279a923b98fd681a6c7381604051808273ffffffffffffffffffffffffffffffffffffffff1673ffffffffffffffffffffffffffffffffffffffff16815260200191505060405180910390a150565b620f42408110613894576040517f08c379a0000000000000000000000000000000000000000000000000000000008152600401808060200182810382526041815260200180614c3a6041913960600191505060405180910390fd5b6000811180156138a9575060c8607480549050105b6138fe576040517f08c379a0000000000000000000000000000000000000000000000000000000008152600401808060200182810382526041815260200180614f136041913960600191505060405180910390fd5b600080905060008090505b607480549050811015613afc5761391e6149f2565b6074828154811061392b57fe5b90600052602060002090600202016040518060400160405290816000820160009054906101000a900473ffffffffffffffffffffffffffffffffffffffff1673ffffffffffffffffffffffffffffffffffffffff1673ffffffffffffffffffffffffffffffffffffffff16815260200160018201548152505090508473ffffffffffffffffffffffffffffffffffffffff16816000015173ffffffffffffffffffffffffffffffffffffffff161415613aee576000841415613ac5576001607480549050038214613aa957607460016074805490500381548110613a0b57fe5b906000526020600020906002020160748381548110613a2657fe5b90600052602060002090600202016000820160009054906101000a900473ffffffffffffffffffffffffffffffffffffffff168160000160006101000a81548173ffffffffffffffffffffffffffffffffffffffff021916908373ffffffffffffffffffffffffffffffffffffffff160217905550600182015481600101559050505b600160748054905003607481613abf9190614a22565b50613ae9565b8360748381548110613ad357fe5b9060005260206000209060020201600101819055505b600192505b508080600101915050613909565b5080613bbe576000821415613b115750613c7f565b607460405180604001604052808573ffffffffffffffffffffffffffffffffffffffff168152602001848152509080600181540180825580915050906001820390600052602060002090600202016000909192909190915060008201518160000160006101000a81548173ffffffffffffffffffffffffffffffffffffffff021916908373ffffffffffffffffffffffffffffffffffffffff160217905550602082015181600101555050505b613bc6614719565b6000606e6000606c54815260200190815260200160002090506000607654148015613bf5575060008160000154115b15613c1057613c078160000154613e48565b81600101819055505b8373ffffffffffffffffffffffffffffffffffffffff16613c2f613c83565b73ffffffffffffffffffffffffffffffffffffffff167f67efa3716a83d716fc277019d454659a46cd1a11e7f4518b63ce585d5e6713e5856040518082815260200191505060405180910390a350505b5050565b6000606660009054906101000a900473ffffffffffffffffffffffffffffffffffffffff1673ffffffffffffffffffffffffffffffffffffffff163373ffffffffffffffffffffffffffffffffffffffff1614613ce257339050613ced565b613cea6147cd565b90505b90565b600080828401905083811015613d6e576040517f08c379a000000000000000000000000000000000000000000000000000000000815260040180806020018281038252601b8152602001807f536166654d6174683a206164646974696f6e206f766572666c6f77000000000081525060200191505060405180910390fd5b8091505092915050565b6000613dba83836040518060400160405280601a81526020017f536166654d6174683a206469766973696f6e206279207a65726f000000000000815250614845565b905092915050565b600080831415613dd55760009050613e42565b6000828402905082848281613de657fe5b0414613e3d576040517f08c379a0000000000000000000000000000000000000000000000000000000008152600401808060200182810382526021815260200180614dc76021913960400191505060405180910390fd5b809150505b92915050565b60008060008090505b607480549050811015613f0e57613eff613ef08560748481548110613e7257fe5b90600052602060002090600202016040518060400160405290816000820160009054906101000a900473ffffffffffffffffffffffffffffffffffffffff1673ffffffffffffffffffffffffffffffffffffffff1673ffffffffffffffffffffffffffffffffffffffff16815260200160018201548152505061490b565b83613cf090919063ffffffff16565b91508080600101915050613e51565b5080915050919050565b6000919050565b600080303b90506000811491505090565b60008160405160200180807f19457468657265756d205369676e6564204d6573736167653a0a333200000000815250601c01828152602001915050604051602081830303815290604052805190602001209050919050565b60006041825114613f9c5760009050614086565b60008060006020850151925060408501519150606085015160001a90507f7fffffffffffffffffffffffffffffff5d576e7357a4501ddfe92f46681b20a08260001c1115613ff05760009350505050614086565b601b8160ff16141580156140085750601c8160ff1614155b156140195760009350505050614086565b60018682858560405160008152602001604052604051808581526020018460ff1660ff1681526020018381526020018281526020019450505050506020604051602081039080840390855afa158015614076573d6000803e3d6000fd5b5050506020604051035193505050505b92915050565b600060606140a860405180602001604052806000815250614941565b915091509091565b6000606082600b016040518060200160405280600081525091509150915091565b600080606b85878660405160200180806020018581526020018473ffffffffffffffffffffffffffffffffffffffff1673ffffffffffffffffffffffffffffffffffffffff1681526020018381526020018281038252868181546001816001161561010002031660029004815260200191508054600181600116156101000203166002900480156141a35780601f10614178576101008083540402835291602001916141a3565b820191906000526020600020905b81548152906001019060200180831161418657829003601f168201915b50509550505050505060405160208183030381529060405280519060200120905060006141cf82613f30565b90506141db8185613f88565b92505050949350505050565b600060019054906101000a900460ff16806142065750614205613f1f565b5b8061421d57506000809054906101000a900460ff16155b614272576040517f08c379a000000000000000000000000000000000000000000000000000000000815260040180806020018281038252602e815260200180614e0f602e913960400191505060405180910390fd5b60008060019054906101000a900460ff1615905080156142c2576001600060016101000a81548160ff02191690831515021790555060016000806101000a81548160ff0219169083151502179055505b81603360006101000a81548173ffffffffffffffffffffffffffffffffffffffff021916908373ffffffffffffffffffffffffffffffffffffffff160217905550603360009054906101000a900473ffffffffffffffffffffffffffffffffffffffff1673ffffffffffffffffffffffffffffffffffffffff16600073ffffffffffffffffffffffffffffffffffffffff167f8be0079c531659141344cd1fd0a4f28419497f9722a3daafe3b4186f6b6457e060405160405180910390a380156143a15760008060016101000a81548160ff0219169083151502179055505b5050565b606080829050606081516040519080825280601f01601f1916602001820160405280156143e15781602001600182028038833980820191505090505b50905060008090505b825181101561450257604183828151811061440157fe5b602001015160f81c60f81b60f81c60000b1215801561443d5750605a83828151811061442957fe5b602001015160f81c60f81b60f81c60000b13155b156144a257602083828151811061445057fe5b602001015160f81c60f81b60f81c0160f81b82828151811061446e57fe5b60200101907effffffffffffffffffffffffffffffffffffffffffffffffffffffffffffff1916908160001a9053506144f5565b8281815181106144ae57fe5b602001015160f81c60f81b8282815181106144c557fe5b60200101907effffffffffffffffffffffffffffffffffffffffffffffffffffffffffffff1916908160001a9053505b80806001019150506143ea565b508092505050919050565b50505050565b600073ffffffffffffffffffffffffffffffffffffffff168173ffffffffffffffffffffffffffffffffffffffff161415614599576040517f08c379a0000000000000000000000000000000000000000000000000000000008152600401808060200182810382526026815260200180614b5e6026913960400191505060405180910390fd5b8073ffffffffffffffffffffffffffffffffffffffff16603360009054906101000a900473ffffffffffffffffffffffffffffffffffffffff1673ffffffffffffffffffffffffffffffffffffffff167f8be0079c531659141344cd1fd0a4f28419497f9722a3daafe3b4186f6b6457e060405160405180910390a380603360006101000a81548173ffffffffffffffffffffffffffffffffffffffff021916908373ffffffffffffffffffffffffffffffffffffffff16021790555050565b6000838311158290614706576040517f08c379a00000000000000000000000000000000000000000000000000000000081526004018080602001828103825283818151815260200191508051906020019080838360005b838110156146cb5780820151818401526020810190506146b0565b50505050905090810190601f1680156146f85780820380516001836020036101000a031916815260200191505b509250505060405180910390fd5b5060008385039050809150509392505050565b600080600090505b60748054905081101561476e5761475f826074838154811061473f57fe5b906000526020600020906002020160010154613cf090919063ffffffff16565b91508080600101915050614721565b50620f424081106147ca576040517f08c379a000000000000000000000000000000000000000000000000000000000815260040180806020018281038252602d815260200180614c9d602d913960400191505060405180910390fd5b50565b600060606000368080601f016020809104026020016040519081016040528093929190818152602001838380828437600081840152601f19601f820116905080830192505050505050509050600080369050905073ffffffffffffffffffffffffffffffffffffffff81830151169250829250505090565b600080831182906148f1576040517f08c379a00000000000000000000000000000000000000000000000000000000081526004018080602001828103825283818151815260200191508051906020019080838360005b838110156148b657808201518184015260208101905061489b565b50505050905090810190601f1680156148e35780820380516001836020036101000a031916815260200191505b509250505060405180910390fd5b5060008385816148fd57fe5b049050809150509392505050565b6000614939620f424061492b846020015186613dc290919063ffffffff16565b613d7890919063ffffffff16565b905092915050565b6000606060008391509150915091565b60405180606001604052806000815260200160008152602001600081525090565b828054600181600116156101000203166002900490600052602060002090601f016020900481019282601f106149b357805160ff19168380011785556149e1565b828001600101855582156149e1579182015b828111156149e05782518255916020019190600101906149c5565b5b5090506149ee9190614a54565b5090565b6040518060400160405280600073ffffffffffffffffffffffffffffffffffffffff168152602001600081525090565b815481835581811115614a4f57600202816002028360005260206000209182019101614a4e9190614a79565b5b505050565b614a7691905b80821115614a72576000816000905550600101614a5a565b5090565b90565b614ac491905b80821115614ac057600080820160006101000a81549073ffffffffffffffffffffffffffffffffffffffff0219169055600182016000905550600201614a7f565b5090565b9056fe446973747269627574696f6e733a20746f6f206561726c7920746f20636c61696d207468697320726f756e64446973747269627574696f6e733a20746f6f206c61746520746f20636c61696d207468697320726f756e64446973747269627574696f6e733a206e657874537570706c792073686f756c64206265203e203020616e64203c3d204d41585f524f554e445f535550504c594f776e61626c653a206e6577206f776e657220697320746865207a65726f2061646472657373446973747269627574696f6e733a20737570706c79446563617950657263656e742073686f756c64206265203c2050455243454e545f505245434953494f4e446973747269627574696f6e733a20696e697469616c20737570706c792073686f756c64206265203e203020616e64203c3d204d41585f524f554e445f535550504c59446973747269627574696f6e733a2075736572206b61726d6120697320746f6f206c6f7720746f20636c61696d20706f696e7473446973747269627574696f6e733a20736861726564206f776e6572732070657263656e742073686f756c64206265203c2070657263656e74507265636973696f6e446973747269627574696f6e733a206b61726d612073686f756c64206265203e2030446973747269627574696f6e733a2063616e277420736861726520616c6c2031303025206f6620706f696e747347534e526563697069656e743a206e65772052656c617948756220697320746865207a65726f2061646472657373446973747269627574696f6e733a2047534e20617070726f7665722073686f756c64206e6f742062652030446973747269627574696f6e733a20696e697469616c206b61726d612073686f756c64206265206d6f7265207468616e2030446973747269627574696f6e733a20726f756e642073686f756c64206265203e206c617374526f756e6420616e64203c206c617374526f756e64202b204d41585f534b49505f524f554e4453446973747269627574696f6e733a207468697320726f756e6420686173206e6f206b61726d61536166654d6174683a206d756c7469706c69636174696f6e206f766572666c6f77446973747269627574696f6e733a20746f74616c4b61726d612073686f756c64206265203e2030436f6e747261637420696e7374616e63652068617320616c7265616479206265656e20696e697469616c697a656447534e526563697069656e743a206e65772052656c6179487562206973207468652063757272656e74206f6e65536861726564206f776e6572733a20416464726573736573206172726179206d7573742062652073616d65206c656e6774682061732070657263656e746167657347534e526563697069656e745369676e61747572653a2074727573746564207369676e657220697320746865207a65726f2061646472657373446973747269627574696f6e733a206e6f20706f696e747320746f20636c61696d20696e207468697320726f756e64446973747269627574696f6e733a20736861726564206f776e657273206c696d697420726561636865642c20736565204d41585f5348415245445f4f574e45525347534e526563697069656e743a2063616c6c6572206973206e6f742052656c6179487562446973747269627574696f6e733a207468697320726f756e647320706f696e74732061726520616c726561647920636c61696d6564446973747269627574696f6e733a206f6e6c79206b61726d6120736f757263652063616e20616476616e636520726f756e6473446973747269627574696f6e733a20636c61696d206973206e6f74207369676e656420627920746865206b61726d6120736f75726365446973747269627574696f6e733a206f776e65722073686f756c64206e6f742062652030446973747269627574696f6e733a206b61726d6120736f757263652073686f756c64206e6f742062652030a265627a7a7231582090549cb3aa85120f63a0caaefcfa20436ef9f8e2c84ba8a3ec79b465a034627464736f6c63430005100032",
  "source": "/**\n *Submitted for verification at Etherscan.io on 2020-06-09\n*/\n\n// File: @openzeppelin/upgrades/contracts/Initializable.sol\n\npragma solidity >=0.4.24 <0.6.0;\n\nimport \"./lib.sol\";\n\n\n\ncontract Distributions_v0 is Initializable, Ownable, UpdatableGSNRecipientSignature {\n\n    struct SharedOwner {\n        address account;\n        uint256 percent; // e.g. 30% percent = 30 * percentPrecision/100\n    }\n\n    struct DistributionRound {\n        uint256 availablePoints;\n        uint256 sharedOwnersAvailablePoints;\n        uint256 totalKarma;\n    }\n\n    event SharedOwnerUpdated(\n        address indexed _from,\n        address indexed _to,\n        uint256 _percent\n    );\n\n    event AdvanceRound(uint256 round, uint256 totalPoints, uint256 sharedOwnersPoints);\n    event ClaimPoints(uint256 round, address indexed user, uint256 karma, uint256 points);\n    event KarmaSourceUpdated(address _karmaSource, address _prevKarmaSource);\n    event SupplyDecayPercentUpdated(uint256 supplyDecayPercent);\n    event RoundsBeforeExpirationUpdated(uint256 roundsBeforeExpiration);\n\n    using SafeMath for uint256;\n    using Address for address;\n\n    // ------------------------------------------------------------------------------------\n    // VARIABLES BLOCK, MAKE SURE ONLY ADD TO THE END\n\n    address public subredditPoints;\n    address public karmaSource;\n    string public subreddit;\n    string private _subredditLowerCase;\n    uint256 public lastRound;\n    uint256 public startBlockNumber;\n    // maps round number to round data\n    mapping(uint256 => DistributionRound) private _distributionRounds;\n    // maps account to next claimable round\n    mapping(address => uint256) private _claimableRounds;\n\n    // when sharing percentage, the least possible share is 1/percentPrecision\n    uint256 public constant PERCENT_PRECISION = 1000000;\n    uint256 public constant MAX_ROUND_SUPPLY = 10**11 * 10**18; // max is 100 bln, to prevent overflows\n\n    // 1 shared owner ~ 35k gas + 250k gas for other ops in advanceToRound\n    // so we limit to (8M - 250k)/35k = 221 maximum shared owners\n    uint256 public constant MAX_SHARED_OWNERS = 200;\n\n    uint256 public constant MAX_SKIP_ROUNDS = 10;\n\n    uint256 public initialSupply;\n    uint256 public roundsBeforeExpiration;\n    uint256 public nextSupply;\n    uint256 public supplyDecayPercent;\n\n    // those owners if exists will get proportion of minted points according to value in percentage\n    SharedOwner[] public sharedOwners;\n    uint256 private _prevRoundSupply;       // supply in a prev round\n    uint256 private _prevClaimed;           // total claimed in a prev round\n\n    // Previous karmaSource signer. Used when rotating karmaSource key to enable\n    // previous signer to still be valid for a while.\n    address public prevKarmaSource;\n\n    // END OF VARS\n    // ------------------------------------------------------------------------------------\n\n\n    function initialize(\n        address owner_,\n        address subredditPoints_,                    // ISubredditPoints + IERC20 token contract address\n        address karmaSource_,                        // Karma source provider address\n        address gsnApprover_,                        // GSN approver address\n\n        uint256 initialSupply_,\n        uint256 nextSupply_,\n        uint256 initialKarma_,\n        uint256 roundsBeforeExpiration_,              // how many rounds are passed before claiming is possible\n        uint256 supplyDecayPercent_,                  // defines percentage of next rounds' supply from the current\n        address[] calldata sharedOwners_,\n        uint256[] calldata sharedOwnersPercs_           // index of percentages must correspond to _sharedOwners array\n    ) external initializer {\n        require(initialSupply_ > 0 && initialSupply_ <= MAX_ROUND_SUPPLY, \"Distributions: initial supply should be > 0 and <= MAX_ROUND_SUPPLY\");\n        require(initialKarma_ > 0, \"Distributions: initial karma should be more than 0\");\n        require(nextSupply_ > 0 && nextSupply_ <= MAX_ROUND_SUPPLY, \"Distributions: nextSupply should be > 0 and <= MAX_ROUND_SUPPLY\");\n        require(karmaSource_ != address(0), \"Distributions: karma source should not be 0\");\n        require(gsnApprover_ != address(0), \"Distributions: GSN approver should not be 0\");\n        require(owner_ != address(0), \"Distributions: owner should not be 0\");\n        require(sharedOwners_.length == sharedOwnersPercs_.length, \"Shared owners: Addresses array must be same length as percentages\");\n\n        Ownable.initialize(owner_);\n        UpdatableGSNRecipientSignature.initialize(gsnApprover_);\n        updateSupplyDecayPercent(supplyDecayPercent_);\n        updateRoundsBeforeExpiration(roundsBeforeExpiration_);\n\n        subredditPoints = subredditPoints_;\n        karmaSource = karmaSource_;\n        prevKarmaSource = karmaSource_;\n        subreddit = ISubredditPoints(subredditPoints_).subreddit();\n        _subredditLowerCase = _toLower(subreddit);\n\n        startBlockNumber = block.number;\n\n        initialSupply = initialSupply_;\n        nextSupply = nextSupply_;\n\n        for (uint i = 0; i < sharedOwners_.length; i++) {\n            _updateSharedOwner(sharedOwners_[i], sharedOwnersPercs_[i]);\n        }\n\n        uint256 sharedOwnersPoints = calcSharedOwnersAvailablePoints(initialSupply);\n        _distributionRounds[0] = DistributionRound({\n            availablePoints: initialSupply,\n            sharedOwnersAvailablePoints: sharedOwnersPoints,\n            totalKarma: initialKarma_\n        });\n\n        emit AdvanceRound(0, initialSupply, sharedOwnersPoints);\n    }\n\n    function claim(uint256 round, address account, uint256 karma, bytes calldata signature) external {\n        require(karma > 0, \"Distributions: karma should be > 0\");\n        require(_claimableRounds[account] <= round, \"Distributions: this rounds points are already claimed\");\n        require(round <= lastRound, \"Distributions: too early to claim this round\");\n        uint256 mc = minClaimableRound();\n        require(round >= mc, \"Distributions: too late to claim this round\");\n\n        address signedBy = verifySignature(account, round, karma, signature);\n        require(signedBy == karmaSource || (prevKarmaSource != address(0) && signedBy == prevKarmaSource), \"Distributions: claim is not signed by the karma source\");\n\n        DistributionRound memory dr = _distributionRounds[round];\n        require(dr.availablePoints > 0, \"Distributions: no points to claim in this round\");\n        require(dr.totalKarma > 0, \"Distributions: this round has no karma\");\n        uint256 userPoints = dr.availablePoints\n            .sub(dr.sharedOwnersAvailablePoints)\n            .mul(karma)\n            .div(dr.totalKarma);\n        require(userPoints > 0, \"Distributions: user karma is too low to claim points\");\n        _prevClaimed = _prevClaimed.add(userPoints);\n        _claimableRounds[account] = round.add(1);\n        emit ClaimPoints(round, account, karma, userPoints);\n        ISubredditPoints(subredditPoints).mint(address(this), account, userPoints, \"\", \"\");\n    }\n\n    // corresponding _distributionRounds mappings are added with\n    //  + every next distribution supply is `previous - decay` and stored in nextSupply\n    //  + distributed 50% of burned points in a previous round\n    // rounds are removed if they are not claimable anymore\n    function advanceToRound(uint256 round, uint256 totalKarma) external {\n        require((round > lastRound) && (round < lastRound + MAX_SKIP_ROUNDS), \"Distributions: round should be > lastRound and < lastRound + MAX_SKIP_ROUNDS\");\n        require(totalKarma > 0, \"Distributions: totalKarma should be > 0\");\n        require(_msgSender() == karmaSource, \"Distributions: only karma source can advance rounds\");\n        uint256 mc = minClaimableRound();\n\n        if (mc >= (round - lastRound)) {\n            for (uint256 i = mc - (round - lastRound); i < mc; i++) {\n                delete(_distributionRounds[i]);\n            }\n        }\n\n        uint256 ts = IERC20(subredditPoints).totalSupply();\n        uint256 prevClaimedCopy = _prevClaimed;\n\n        // normally this loop should complete in 1 cycle\n        // we move backwards from last to previous rounds\n        for (uint256 i = round; i >= (lastRound + 1) && i >= mc; i--) {\n            uint256 roundPoints = nextSupply;\n\n            // reintroduce 50 % of previously burned tokens\n            uint256 ps = _prevRoundSupply.add(_prevClaimed);\n            if (ps > ts) {\n                roundPoints = roundPoints.add(ps.sub(ts).div(2));\n            }\n\n            // if there is more than 1 cycle, all burned will be reintroduced into the last round\n            // the loop is not stopped due to it may switch to halving for a previous rounds\n            _prevRoundSupply = ts;\n            _prevClaimed = 0;\n\n            if (nextSupply > 0 && supplyDecayPercent > 0) {\n                nextSupply = nextSupply.sub(nextSupply.mul(supplyDecayPercent).div(PERCENT_PRECISION));\n            }\n\n            uint256 sharedOwnersPoints = 0;\n            if (roundPoints > 0) {\n                sharedOwnersPoints = calcSharedOwnersAvailablePoints(roundPoints);\n                _distributionRounds[i] = DistributionRound({\n                    availablePoints: roundPoints,\n                    sharedOwnersAvailablePoints: sharedOwnersPoints,\n                    totalKarma: 0\n                });\n            }\n\n            emit AdvanceRound(i, roundPoints, sharedOwnersPoints);\n        }\n\n        lastRound = round;\n        _prevRoundSupply = ts;\n        _prevClaimed = 0;\n\n        DistributionRound storage dc = _distributionRounds[round];\n        dc.totalKarma = totalKarma;\n\n        // distribute shared cut, but no more than it was claimed by users\n        // this protects from exceeding total amount by increasing percentage between rounds\n        if (dc.sharedOwnersAvailablePoints > 0 && prevClaimedCopy > 0) {\n            uint256 totalSharedPercent;\n            for (uint256 i = 0; i < sharedOwners.length; i++) {\n                totalSharedPercent = totalSharedPercent.add(sharedOwners[i].percent);\n            }\n\n            uint256 claimedPlusShared = prevClaimedCopy\n                .mul(PERCENT_PRECISION)\n                .div(PERCENT_PRECISION.sub(totalSharedPercent));\n\n            uint256 sharedLeft = claimedPlusShared.sub(prevClaimedCopy);\n\n            for (uint256 i = 0; i < sharedOwners.length && sharedLeft > 0; i++) {\n                uint256 ownerPoints = claimedPlusShared.mul(sharedOwners[i].percent).div(PERCENT_PRECISION);\n                if (ownerPoints > 0 && ownerPoints <= sharedLeft) {\n                    ISubredditPoints(subredditPoints).mint(address(this), sharedOwners[i].account, ownerPoints, \"\", \"\");\n                    sharedLeft = sharedLeft.sub(ownerPoints);\n                }\n            }\n        }\n    }\n\n    function totalSharedOwners() external view returns (uint256) {\n        return sharedOwners.length;\n    }\n\n    function updateSupplyDecayPercent(uint256 _supplyDecayPercent) public onlyOwner {\n        require(_supplyDecayPercent < PERCENT_PRECISION, \"Distributions: supplyDecayPercent should be < PERCENT_PRECISION\");\n        supplyDecayPercent = _supplyDecayPercent;\n        emit SupplyDecayPercentUpdated(_supplyDecayPercent);\n    }\n\n    function updateRoundsBeforeExpiration(uint256 _roundsBeforeExpiration) public onlyOwner {\n        roundsBeforeExpiration = _roundsBeforeExpiration;\n        emit RoundsBeforeExpirationUpdated(_roundsBeforeExpiration);\n    }\n\n    function minClaimableRound() public view returns (uint256) {\n        if (lastRound >= roundsBeforeExpiration) {\n            return lastRound.sub(roundsBeforeExpiration);\n        }\n        return 0;\n    }\n\n    function verifySignature(address account, uint256 round, uint256 karma, bytes memory signature)\n        private view returns (address) {\n\n        bytes32 hash = keccak256(abi.encode(_subredditLowerCase, uint256(round), account, karma));\n        bytes32 prefixedHash = ECDSA.toEthSignedMessageHash(hash);\n        return ECDSA.recover(prefixedHash, signature);\n    }\n\n    function calcSharedOwnersAvailablePoints(uint256 points) private view returns (uint256) {\n        uint256 r;\n        for (uint256 i = 0; i < sharedOwners.length; i++) {\n            r = r.add(calcSharedPoints(points, sharedOwners[i]));\n        }\n        return r;\n    }\n\n    function calcSharedPoints(uint256 points, SharedOwner memory sharedOwner) private pure returns (uint256) {\n        return points\n            .mul(sharedOwner.percent)\n            .div(PERCENT_PRECISION);\n    }\n\n    function updateKarmaSource(address _karmaSource) external onlyOwner {\n        require(_karmaSource != address(0), \"Distributions: karma source should not be 0\");\n        prevKarmaSource = karmaSource;\n        karmaSource = _karmaSource;\n        emit KarmaSourceUpdated(_karmaSource, prevKarmaSource);\n    }\n\n    function updateGSNApprover(address gsnApprover) external onlyOwner {\n        updateSigner(gsnApprover);\n    }\n\n    // shared owners get their points 1 round later within advancement\n    // increasing total shared percentage can lead to some of the owners not receiving their cut within a next round\n    function updateSharedOwner(address account, uint256 percent) external onlyOwner {\n        _updateSharedOwner(account, percent);\n    }\n\n    function _updateSharedOwner(address account, uint256 percent) internal {\n        require(percent < PERCENT_PRECISION, \"Distributions: shared owners percent should be < percentPrecision\");\n        require(percent > 0 && sharedOwners.length < MAX_SHARED_OWNERS, \"Distributions: shared owners limit reached, see MAX_SHARED_OWNERS\");\n\n        bool updated = false;\n\n        for (uint256 i = 0; i < sharedOwners.length; i++) {\n            SharedOwner memory so = sharedOwners[i];\n            if (so.account == account) {\n                if (percent == 0) {\n                    if (i != (sharedOwners.length - 1)) { // if it's not last element, replace it from the tail\n                        sharedOwners[i] = sharedOwners[sharedOwners.length-1];\n                    }\n                    // remove tail\n                    sharedOwners.length = sharedOwners.length - 1;\n                } else {\n                    sharedOwners[i].percent = percent;\n                }\n                updated = true;\n            }\n        }\n\n        if (!updated) {\n            if (percent == 0) {\n                return;\n            }\n            sharedOwners.push(SharedOwner(account, percent));\n        }\n\n        checkSharedPercentage();\n        // allow to update sharedOwnersAvailablePoints for a rounds which aren't claimed yet\n        DistributionRound storage dr = _distributionRounds[lastRound];\n        if (_prevClaimed == 0 && dr.availablePoints > 0) {\n            dr.sharedOwnersAvailablePoints = calcSharedOwnersAvailablePoints(dr.availablePoints);\n        }\n        emit SharedOwnerUpdated(_msgSender(), account, percent);\n    }\n\n    function checkSharedPercentage() private view {\n        uint256 total;\n        for (uint256 i = 0; i < sharedOwners.length; i++) {\n            total = sharedOwners[i].percent.add(total);\n        }\n        require(total < PERCENT_PRECISION, \"Distributions: can't share all 100% of points\");\n    }\n\n    function percentPrecision() external pure returns (uint256) {\n        return PERCENT_PRECISION;\n    }\n\n    function _toLower(string memory str) internal pure returns (string memory) {\n        bytes memory bStr = bytes(str);\n        bytes memory bLower = new bytes(bStr.length);\n        for (uint i = 0; i < bStr.length; i++) {\n            if ((int8(bStr[i]) >= 65) && (int8(bStr[i]) <= 90)) {\n                bLower[i] = bytes1(int8(bStr[i]) + 32);\n            } else {\n                bLower[i] = bStr[i];\n            }\n        }\n        return string(bLower);\n    }\n}",
  "sourcePath": "/Users/dzack/Desktop/arb_reddit_points/contracts/Distributions.sol",
  "compiler": {
    "name": "solc",
    "version": "0.5.16+commit.9c3226ce.Emscripten.clang"
  },
  "schemaVersion": "3.0.23",
  "updatedAt": "2020-07-20T21:54:20.150Z",
  "networkType": "ethereum",
  "devdoc": {
    "methods": {
      "acceptRelayedCall(address,address,bytes,uint256,uint256,uint256,uint256,bytes,uint256)": {
        "details": "Ensures that only transactions with a trusted signature can be relayed through the GSN."
      },
      "getHubAddr()": {
        "details": "Returns the address of the {IRelayHub} contract for this recipient."
      },
      "initialize(address)": {
        "details": "Sets the trusted signer that is going to be producing signatures to approve relayed calls."
      },
      "isOwner()": {
        "details": "Returns true if the caller is the current owner."
      },
      "owner()": {
        "details": "Returns the address of the current owner."
      },
      "postRelayedCall(bytes,bool,uint256,bytes32)": {
        "details": "See `IRelayRecipient.postRelayedCall`.     * This function should not be overriden directly, use `_postRelayedCall` instead.     * * Requirements:     * - the caller must be the `RelayHub` contract."
      },
      "preRelayedCall(bytes)": {
        "details": "See `IRelayRecipient.preRelayedCall`.     * This function should not be overriden directly, use `_preRelayedCall` instead.     * * Requirements:     * - the caller must be the `RelayHub` contract."
      },
      "relayHubVersion()": {
        "details": "Returns the version string of the {IRelayHub} for which this recipient implementation was built. If {_upgradeRelayHub} is used, the new {IRelayHub} instance should be compatible with this version."
      },
      "renounceOwnership()": {
        "details": "Leaves the contract without owner. It will not be possible to call `onlyOwner` functions anymore. Can only be called by the current owner.     * > Note: Renouncing ownership will leave the contract without an owner, thereby removing any functionality that is only available to the owner."
      },
      "transferOwnership(address)": {
        "details": "Transfers ownership of the contract to a new account (`newOwner`). Can only be called by the current owner."
      }
    }
  },
  "userdoc": {
    "methods": {}
  }
}