{
    "contractName": "SubredditPoints_v0",
    "abi": [
        {
            "anonymous": false,
            "inputs": [
                {
                    "indexed": true,
                    "internalType": "address",
                    "name": "owner",
                    "type": "address"
                },
                {
                    "indexed": true,
                    "internalType": "address",
                    "name": "spender",
                    "type": "address"
                },
                {
                    "indexed": false,
                    "internalType": "uint256",
                    "name": "value",
                    "type": "uint256"
                }
            ],
            "name": "Approval",
            "type": "event"
        },
        {
            "anonymous": false,
            "inputs": [
                {
                    "indexed": true,
                    "internalType": "address",
                    "name": "operator",
                    "type": "address"
                },
                {
                    "indexed": true,
                    "internalType": "address",
                    "name": "tokenHolder",
                    "type": "address"
                }
            ],
            "name": "AuthorizedOperator",
            "type": "event"
        },
        {
            "anonymous": false,
            "inputs": [
                {
                    "indexed": true,
                    "internalType": "address",
                    "name": "operator",
                    "type": "address"
                },
                {
                    "indexed": true,
                    "internalType": "address",
                    "name": "from",
                    "type": "address"
                },
                {
                    "indexed": false,
                    "internalType": "uint256",
                    "name": "amount",
                    "type": "uint256"
                },
                {
                    "indexed": false,
                    "internalType": "bytes",
                    "name": "data",
                    "type": "bytes"
                },
                {
                    "indexed": false,
                    "internalType": "bytes",
                    "name": "operatorData",
                    "type": "bytes"
                }
            ],
            "name": "Burned",
            "type": "event"
        },
        {
            "anonymous": false,
            "inputs": [
                {
                    "indexed": true,
                    "internalType": "address",
                    "name": "operator",
                    "type": "address"
                }
            ],
            "name": "DefaultOperatorAdded",
            "type": "event"
        },
        {
            "anonymous": false,
            "inputs": [
                {
                    "indexed": true,
                    "internalType": "address",
                    "name": "operator",
                    "type": "address"
                }
            ],
            "name": "DefaultOperatorRemoved",
            "type": "event"
        },
        {
            "anonymous": false,
            "inputs": [
                {
                    "indexed": true,
                    "internalType": "address",
                    "name": "operator",
                    "type": "address"
                },
                {
                    "indexed": true,
                    "internalType": "address",
                    "name": "to",
                    "type": "address"
                },
                {
                    "indexed": false,
                    "internalType": "uint256",
                    "name": "amount",
                    "type": "uint256"
                },
                {
                    "indexed": false,
                    "internalType": "bytes",
                    "name": "data",
                    "type": "bytes"
                },
                {
                    "indexed": false,
                    "internalType": "bytes",
                    "name": "operatorData",
                    "type": "bytes"
                }
            ],
            "name": "Minted",
            "type": "event"
        },
        {
            "anonymous": false,
            "inputs": [
                {
                    "indexed": true,
                    "internalType": "address",
                    "name": "previousOwner",
                    "type": "address"
                },
                {
                    "indexed": true,
                    "internalType": "address",
                    "name": "newOwner",
                    "type": "address"
                }
            ],
            "name": "OwnershipTransferred",
            "type": "event"
        },
        {
            "anonymous": false,
            "inputs": [
                {
                    "indexed": true,
                    "internalType": "address",
                    "name": "oldRelayHub",
                    "type": "address"
                },
                {
                    "indexed": true,
                    "internalType": "address",
                    "name": "newRelayHub",
                    "type": "address"
                }
            ],
            "name": "RelayHubChanged",
            "type": "event"
        },
        {
            "anonymous": false,
            "inputs": [
                {
                    "indexed": true,
                    "internalType": "address",
                    "name": "operator",
                    "type": "address"
                },
                {
                    "indexed": true,
                    "internalType": "address",
                    "name": "tokenHolder",
                    "type": "address"
                }
            ],
            "name": "RevokedOperator",
            "type": "event"
        },
        {
            "anonymous": false,
            "inputs": [
                {
                    "indexed": true,
                    "internalType": "address",
                    "name": "operator",
                    "type": "address"
                },
                {
                    "indexed": true,
                    "internalType": "address",
                    "name": "from",
                    "type": "address"
                },
                {
                    "indexed": true,
                    "internalType": "address",
                    "name": "to",
                    "type": "address"
                },
                {
                    "indexed": false,
                    "internalType": "uint256",
                    "name": "amount",
                    "type": "uint256"
                },
                {
                    "indexed": false,
                    "internalType": "bytes",
                    "name": "data",
                    "type": "bytes"
                },
                {
                    "indexed": false,
                    "internalType": "bytes",
                    "name": "operatorData",
                    "type": "bytes"
                }
            ],
            "name": "Sent",
            "type": "event"
        },
        {
            "anonymous": false,
            "inputs": [
                {
                    "indexed": false,
                    "internalType": "address",
                    "name": "signer",
                    "type": "address"
                }
            ],
            "name": "SignerUpdated",
            "type": "event"
        },
        {
            "anonymous": false,
            "inputs": [
                {
                    "indexed": true,
                    "internalType": "address",
                    "name": "from",
                    "type": "address"
                },
                {
                    "indexed": true,
                    "internalType": "address",
                    "name": "to",
                    "type": "address"
                },
                {
                    "indexed": false,
                    "internalType": "uint256",
                    "name": "value",
                    "type": "uint256"
                }
            ],
            "name": "Transfer",
            "type": "event"
        },
        {
            "constant": true,
            "inputs": [
                {
                    "internalType": "address",
                    "name": "relay",
                    "type": "address"
                },
                {
                    "internalType": "address",
                    "name": "from",
                    "type": "address"
                },
                {
                    "internalType": "bytes",
                    "name": "encodedFunction",
                    "type": "bytes"
                },
                {
                    "internalType": "uint256",
                    "name": "transactionFee",
                    "type": "uint256"
                },
                {
                    "internalType": "uint256",
                    "name": "gasPrice",
                    "type": "uint256"
                },
                {
                    "internalType": "uint256",
                    "name": "gasLimit",
                    "type": "uint256"
                },
                {
                    "internalType": "uint256",
                    "name": "nonce",
                    "type": "uint256"
                },
                {
                    "internalType": "bytes",
                    "name": "approvalData",
                    "type": "bytes"
                },
                {
                    "internalType": "uint256",
                    "name": "",
                    "type": "uint256"
                }
            ],
            "name": "acceptRelayedCall",
            "outputs": [
                {
                    "internalType": "uint256",
                    "name": "",
                    "type": "uint256"
                },
                {
                    "internalType": "bytes",
                    "name": "",
                    "type": "bytes"
                }
            ],
            "payable": false,
            "stateMutability": "view",
            "type": "function"
        },
        {
            "constant": true,
            "inputs": [
                {
                    "internalType": "address",
                    "name": "owner",
                    "type": "address"
                },
                {
                    "internalType": "address",
                    "name": "spender",
                    "type": "address"
                }
            ],
            "name": "allowance",
            "outputs": [
                {
                    "internalType": "uint256",
                    "name": "",
                    "type": "uint256"
                }
            ],
            "payable": false,
            "stateMutability": "view",
            "type": "function"
        },
        {
            "constant": false,
            "inputs": [
                {
                    "internalType": "address",
                    "name": "spender",
                    "type": "address"
                },
                {
                    "internalType": "uint256",
                    "name": "amount",
                    "type": "uint256"
                }
            ],
            "name": "approve",
            "outputs": [
                {
                    "internalType": "bool",
                    "name": "",
                    "type": "bool"
                }
            ],
            "payable": false,
            "stateMutability": "nonpayable",
            "type": "function"
        },
        {
            "constant": true,
            "inputs": [
                {
                    "internalType": "address",
                    "name": "account",
                    "type": "address"
                }
            ],
            "name": "balanceOf",
            "outputs": [
                {
                    "internalType": "uint256",
                    "name": "",
                    "type": "uint256"
                }
            ],
            "payable": false,
            "stateMutability": "view",
            "type": "function"
        },
        {
            "constant": false,
            "inputs": [
                {
                    "internalType": "address",
                    "name": "spender",
                    "type": "address"
                },
                {
                    "internalType": "uint256",
                    "name": "subtractedValue",
                    "type": "uint256"
                }
            ],
            "name": "decreaseAllowance",
            "outputs": [
                {
                    "internalType": "bool",
                    "name": "",
                    "type": "bool"
                }
            ],
            "payable": false,
            "stateMutability": "nonpayable",
            "type": "function"
        },
        {
            "constant": true,
            "inputs": [],
            "name": "getHubAddr",
            "outputs": [
                {
                    "internalType": "address",
                    "name": "",
                    "type": "address"
                }
            ],
            "payable": false,
            "stateMutability": "view",
            "type": "function"
        },
        {
            "constant": false,
            "inputs": [
                {
                    "internalType": "address",
                    "name": "spender",
                    "type": "address"
                },
                {
                    "internalType": "uint256",
                    "name": "addedValue",
                    "type": "uint256"
                }
            ],
            "name": "increaseAllowance",
            "outputs": [
                {
                    "internalType": "bool",
                    "name": "",
                    "type": "bool"
                }
            ],
            "payable": false,
            "stateMutability": "nonpayable",
            "type": "function"
        },
        {
            "constant": true,
            "inputs": [],
            "name": "isOwner",
            "outputs": [
                {
                    "internalType": "bool",
                    "name": "",
                    "type": "bool"
                }
            ],
            "payable": false,
            "stateMutability": "view",
            "type": "function"
        },
        {
            "constant": true,
            "inputs": [],
            "name": "owner",
            "outputs": [
                {
                    "internalType": "address",
                    "name": "",
                    "type": "address"
                }
            ],
            "payable": false,
            "stateMutability": "view",
            "type": "function"
        },
        {
            "constant": false,
            "inputs": [
                {
                    "internalType": "bytes",
                    "name": "context",
                    "type": "bytes"
                },
                {
                    "internalType": "bool",
                    "name": "success",
                    "type": "bool"
                },
                {
                    "internalType": "uint256",
                    "name": "actualCharge",
                    "type": "uint256"
                },
                {
                    "internalType": "bytes32",
                    "name": "preRetVal",
                    "type": "bytes32"
                }
            ],
            "name": "postRelayedCall",
            "outputs": [],
            "payable": false,
            "stateMutability": "nonpayable",
            "type": "function"
        },
        {
            "constant": false,
            "inputs": [
                {
                    "internalType": "bytes",
                    "name": "context",
                    "type": "bytes"
                }
            ],
            "name": "preRelayedCall",
            "outputs": [
                {
                    "internalType": "bytes32",
                    "name": "",
                    "type": "bytes32"
                }
            ],
            "payable": false,
            "stateMutability": "nonpayable",
            "type": "function"
        },
        {
            "constant": true,
            "inputs": [],
            "name": "relayHubVersion",
            "outputs": [
                {
                    "internalType": "string",
                    "name": "",
                    "type": "string"
                }
            ],
            "payable": false,
            "stateMutability": "view",
            "type": "function"
        },
        {
            "constant": false,
            "inputs": [],
            "name": "renounceOwnership",
            "outputs": [],
            "payable": false,
            "stateMutability": "nonpayable",
            "type": "function"
        },
        {
            "constant": false,
            "inputs": [],
            "name": "setDefaultRelayHub",
            "outputs": [],
            "payable": false,
            "stateMutability": "nonpayable",
            "type": "function"
        },
        {
            "constant": true,
            "inputs": [],
            "name": "totalSupply",
            "outputs": [
                {
                    "internalType": "uint256",
                    "name": "",
                    "type": "uint256"
                }
            ],
            "payable": false,
            "stateMutability": "view",
            "type": "function"
        },
        {
            "constant": false,
            "inputs": [
                {
                    "internalType": "address",
                    "name": "recipient",
                    "type": "address"
                },
                {
                    "internalType": "uint256",
                    "name": "amount",
                    "type": "uint256"
                }
            ],
            "name": "transfer",
            "outputs": [
                {
                    "internalType": "bool",
                    "name": "",
                    "type": "bool"
                }
            ],
            "payable": false,
            "stateMutability": "nonpayable",
            "type": "function"
        },
        {
            "constant": false,
            "inputs": [
                {
                    "internalType": "address",
                    "name": "sender",
                    "type": "address"
                },
                {
                    "internalType": "address",
                    "name": "recipient",
                    "type": "address"
                },
                {
                    "internalType": "uint256",
                    "name": "amount",
                    "type": "uint256"
                }
            ],
            "name": "transferFrom",
            "outputs": [
                {
                    "internalType": "bool",
                    "name": "",
                    "type": "bool"
                }
            ],
            "payable": false,
            "stateMutability": "nonpayable",
            "type": "function"
        },
        {
            "constant": false,
            "inputs": [
                {
                    "internalType": "address",
                    "name": "newOwner",
                    "type": "address"
                }
            ],
            "name": "transferOwnership",
            "outputs": [],
            "payable": false,
            "stateMutability": "nonpayable",
            "type": "function"
        },
        {
            "constant": false,
            "inputs": [],
            "name": "initialize",
            "outputs": [],
            "payable": false,
            "stateMutability": "nonpayable",
            "type": "function"
        },
        {
            "constant": false,
            "inputs": [
                {
                    "internalType": "address",
                    "name": "trustedSigner",
                    "type": "address"
                }
            ],
            "name": "initialize",
            "outputs": [],
            "payable": false,
            "stateMutability": "nonpayable",
            "type": "function"
        },
        {
            "constant": false,
            "inputs": [
                {
                    "internalType": "address",
                    "name": "owner_",
                    "type": "address"
                },
                {
                    "internalType": "address",
                    "name": "gsnApprover_",
                    "type": "address"
                },
                {
                    "internalType": "address",
                    "name": "distributionContract_",
                    "type": "address"
                },
                {
                    "internalType": "string",
                    "name": "subreddit_",
                    "type": "string"
                },
                {
                    "internalType": "string",
                    "name": "name_",
                    "type": "string"
                },
                {
                    "internalType": "string",
                    "name": "symbol_",
                    "type": "string"
                },
                {
                    "internalType": "address[]",
                    "name": "defaultOperators_",
                    "type": "address[]"
                }
            ],
            "name": "initialize",
            "outputs": [],
            "payable": false,
            "stateMutability": "nonpayable",
            "type": "function"
        },
        {
            "constant": false,
            "inputs": [
                {
                    "internalType": "address",
                    "name": "operator",
                    "type": "address"
                },
                {
                    "internalType": "address",
                    "name": "account",
                    "type": "address"
                },
                {
                    "internalType": "uint256",
                    "name": "amount",
                    "type": "uint256"
                },
                {
                    "internalType": "bytes",
                    "name": "userData",
                    "type": "bytes"
                },
                {
                    "internalType": "bytes",
                    "name": "operatorData",
                    "type": "bytes"
                }
            ],
            "name": "mint",
            "outputs": [],
            "payable": false,
            "stateMutability": "nonpayable",
            "type": "function"
        },
        {
            "constant": false,
            "inputs": [
                {
                    "internalType": "uint256",
                    "name": "amount",
                    "type": "uint256"
                },
                {
                    "internalType": "bytes",
                    "name": "userData",
                    "type": "bytes"
                }
            ],
            "name": "burn",
            "outputs": [],
            "payable": false,
            "stateMutability": "nonpayable",
            "type": "function"
        },
        {
            "constant": true,
            "inputs": [
                {
                    "internalType": "address",
                    "name": "operator",
                    "type": "address"
                },
                {
                    "internalType": "address",
                    "name": "tokenHolder",
                    "type": "address"
                }
            ],
            "name": "isOperatorFor",
            "outputs": [
                {
                    "internalType": "bool",
                    "name": "",
                    "type": "bool"
                }
            ],
            "payable": false,
            "stateMutability": "view",
            "type": "function"
        },
        {
            "constant": false,
            "inputs": [
                {
                    "internalType": "address",
                    "name": "operator",
                    "type": "address"
                }
            ],
            "name": "authorizeOperator",
            "outputs": [],
            "payable": false,
            "stateMutability": "nonpayable",
            "type": "function"
        },
        {
            "constant": false,
            "inputs": [
                {
                    "internalType": "address",
                    "name": "operator",
                    "type": "address"
                }
            ],
            "name": "revokeOperator",
            "outputs": [],
            "payable": false,
            "stateMutability": "nonpayable",
            "type": "function"
        },
        {
            "constant": false,
            "inputs": [
                {
                    "internalType": "address",
                    "name": "sender",
                    "type": "address"
                },
                {
                    "internalType": "address",
                    "name": "recipient",
                    "type": "address"
                },
                {
                    "internalType": "uint256",
                    "name": "amount",
                    "type": "uint256"
                },
                {
                    "internalType": "bytes",
                    "name": "userData",
                    "type": "bytes"
                },
                {
                    "internalType": "bytes",
                    "name": "operatorData",
                    "type": "bytes"
                }
            ],
            "name": "operatorSend",
            "outputs": [],
            "payable": false,
            "stateMutability": "nonpayable",
            "type": "function"
        },
        {
            "constant": false,
            "inputs": [
                {
                    "internalType": "address",
                    "name": "account",
                    "type": "address"
                },
                {
                    "internalType": "uint256",
                    "name": "amount",
                    "type": "uint256"
                },
                {
                    "internalType": "bytes",
                    "name": "data",
                    "type": "bytes"
                },
                {
                    "internalType": "bytes",
                    "name": "operatorData",
                    "type": "bytes"
                }
            ],
            "name": "operatorBurn",
            "outputs": [],
            "payable": false,
            "stateMutability": "nonpayable",
            "type": "function"
        },
        {
            "constant": true,
            "inputs": [],
            "name": "defaultOperators",
            "outputs": [
                {
                    "internalType": "address[]",
                    "name": "",
                    "type": "address[]"
                }
            ],
            "payable": false,
            "stateMutability": "view",
            "type": "function"
        },
        {
            "constant": false,
            "inputs": [
                {
                    "internalType": "address",
                    "name": "operator",
                    "type": "address"
                }
            ],
            "name": "addDefaultOperator",
            "outputs": [],
            "payable": false,
            "stateMutability": "nonpayable",
            "type": "function"
        },
        {
            "constant": false,
            "inputs": [
                {
                    "internalType": "address",
                    "name": "operator",
                    "type": "address"
                }
            ],
            "name": "removeDefaultOperator",
            "outputs": [],
            "payable": false,
            "stateMutability": "nonpayable",
            "type": "function"
        },
        {
            "constant": true,
            "inputs": [],
            "name": "subreddit",
            "outputs": [
                {
                    "internalType": "string",
                    "name": "",
                    "type": "string"
                }
            ],
            "payable": false,
            "stateMutability": "view",
            "type": "function"
        },
        {
            "constant": true,
            "inputs": [],
            "name": "name",
            "outputs": [
                {
                    "internalType": "string",
                    "name": "",
                    "type": "string"
                }
            ],
            "payable": false,
            "stateMutability": "view",
            "type": "function"
        },
        {
            "constant": true,
            "inputs": [],
            "name": "symbol",
            "outputs": [
                {
                    "internalType": "string",
                    "name": "",
                    "type": "string"
                }
            ],
            "payable": false,
            "stateMutability": "view",
            "type": "function"
        },
        {
            "constant": false,
            "inputs": [
                {
                    "internalType": "address",
                    "name": "gsnApprover",
                    "type": "address"
                }
            ],
            "name": "updateGSNApprover",
            "outputs": [],
            "payable": false,
            "stateMutability": "nonpayable",
            "type": "function"
        },
        {
            "constant": false,
            "inputs": [
                {
                    "internalType": "address",
                    "name": "distributionContract_",
                    "type": "address"
                }
            ],
            "name": "updateDistributionContract",
            "outputs": [],
            "payable": false,
            "stateMutability": "nonpayable",
            "type": "function"
        },
        {
            "constant": true,
            "inputs": [],
            "name": "distributionContract",
            "outputs": [
                {
                    "internalType": "address",
                    "name": "",
                    "type": "address"
                }
            ],
            "payable": false,
            "stateMutability": "view",
            "type": "function"
        }
    ],
    "bytecode": "0x6080604052615575806100136000396000f3fe608060405234801561001057600080fd5b50600436106102275760003560e01c806383947ea011610130578063bdc330cb116100b8578063e699e8c31161007c578063e699e8c314611180578063f2fde38b146111c4578063fad8b32a14611208578063fc673c4f1461124c578063fe9d93031461134457610227565b8063bdc330cb14610f2c578063c4d66de814610faf578063d95b637114610ff3578063dd62ed3e1461106f578063e06e0e22146110e757610227565b806395d89b41116100ff57806395d89b4114610c42578063a457c2d714610cc5578063a9059cbb14610d2b578063ab89013b14610d91578063ad61ccd514610ea957610227565b806383947ea0146109d15780638da5cb5b14610b925780638f32d59b14610bdc578063959b8c3f14610bfe57610227565b806339509351116101b357806370a082311161018257806370a082311461088e578063715018a6146108e657806374e861d6146108f057806380274db71461093a5780638129fc1c146109c757610227565b80633950935114610682578063403f1ffa146106e85780635a4528c21461072c57806362ad1b831461077657610227565b806318160ddd116101fa57806318160ddd1461037e57806319d587461461039c5780631b7d83e5146105745780631c00f07f146105b857806323b872dd146105fc57610227565b806306e485381461022c57806306fdde031461028b578063095ea7b31461030e5780631220e2ff14610374575b600080fd5b6102346113c7565b6040518080602001828103825283818151815260200191508051906020019060200280838360005b8381101561027757808201518184015260208101905061025c565b505050509050019250505060405180910390f35b610293611455565b6040518080602001828103825283818151815260200191508051906020019080838360005b838110156102d35780820151818401526020810190506102b8565b50505050905090810190601f1680156103005780820380516001836020036101000a031916815260200191505b509250505060405180910390f35b61035a6004803603604081101561032457600080fd5b81019080803573ffffffffffffffffffffffffffffffffffffffff169060200190929190803590602001909291905050506114f7565b604051808215151515815260200191505060405180910390f35b61037c611515565b005b610386611534565b6040518082815260200191505060405180910390f35b610572600480360360e08110156103b257600080fd5b81019080803573ffffffffffffffffffffffffffffffffffffffff169060200190929190803573ffffffffffffffffffffffffffffffffffffffff169060200190929190803573ffffffffffffffffffffffffffffffffffffffff1690602001909291908035906020019064010000000081111561042f57600080fd5b82018360208201111561044157600080fd5b8035906020019184600183028401116401000000008311171561046357600080fd5b90919293919293908035906020019064010000000081111561048457600080fd5b82018360208201111561049657600080fd5b803590602001918460018302840111640100000000831117156104b857600080fd5b9091929391929390803590602001906401000000008111156104d957600080fd5b8201836020820111156104eb57600080fd5b8035906020019184600183028401116401000000008311171561050d57600080fd5b90919293919293908035906020019064010000000081111561052e57600080fd5b82018360208201111561054057600080fd5b8035906020019184602083028401116401000000008311171561056257600080fd5b909192939192939050505061153e565b005b6105b66004803603602081101561058a57600080fd5b81019080803573ffffffffffffffffffffffffffffffffffffffff169060200190929190505050611952565b005b6105fa600480360360208110156105ce57600080fd5b81019080803573ffffffffffffffffffffffffffffffffffffffff169060200190929190505050611bf9565b005b6106686004803603606081101561061257600080fd5b81019080803573ffffffffffffffffffffffffffffffffffffffff169060200190929190803573ffffffffffffffffffffffffffffffffffffffff16906020019092919080359060200190929190505050611c7f565b604051808215151515815260200191505060405180910390f35b6106ce6004803603604081101561069857600080fd5b81019080803573ffffffffffffffffffffffffffffffffffffffff16906020019092919080359060200190929190505050611d58565b604051808215151515815260200191505060405180910390f35b61072a600480360360208110156106fe57600080fd5b81019080803573ffffffffffffffffffffffffffffffffffffffff169060200190929190505050611e0b565b005b610734611f4f565b604051808273ffffffffffffffffffffffffffffffffffffffff1673ffffffffffffffffffffffffffffffffffffffff16815260200191505060405180910390f35b61088c600480360360a081101561078c57600080fd5b81019080803573ffffffffffffffffffffffffffffffffffffffff169060200190929190803573ffffffffffffffffffffffffffffffffffffffff16906020019092919080359060200190929190803590602001906401000000008111156107f357600080fd5b82018360208201111561080557600080fd5b8035906020019184600183028401116401000000008311171561082757600080fd5b90919293919293908035906020019064010000000081111561084857600080fd5b82018360208201111561085a57600080fd5b8035906020019184600183028401116401000000008311171561087c57600080fd5b9091929391929390505050611f79565b005b6108d0600480360360208110156108a457600080fd5b81019080803573ffffffffffffffffffffffffffffffffffffffff1690602001909291905050506120dd565b6040518082815260200191505060405180910390f35b6108ee612126565b005b6108f8612261565b604051808273ffffffffffffffffffffffffffffffffffffffff1673ffffffffffffffffffffffffffffffffffffffff16815260200191505060405180910390f35b6109b16004803603602081101561095057600080fd5b810190808035906020019064010000000081111561096d57600080fd5b82018360208201111561097f57600080fd5b803590602001918460018302840111640100000000831117156109a157600080fd5b909192939192939050505061228b565b6040518082815260200191505060405180910390f35b6109cf61236d565b005b610b1060048036036101208110156109e857600080fd5b81019080803573ffffffffffffffffffffffffffffffffffffffff169060200190929190803573ffffffffffffffffffffffffffffffffffffffff16906020019092919080359060200190640100000000811115610a4557600080fd5b820183602082011115610a5757600080fd5b80359060200191846001830284011164010000000083111715610a7957600080fd5b90919293919293908035906020019092919080359060200190929190803590602001909291908035906020019092919080359060200190640100000000811115610ac257600080fd5b820183602082011115610ad457600080fd5b80359060200191846001830284011164010000000083111715610af657600080fd5b9091929391929390803590602001909291905050506124cc565b6040518083815260200180602001828103825283818151815260200191508051906020019080838360005b83811015610b56578082015181840152602081019050610b3b565b50505050905090810190601f168015610b835780820380516001836020036101000a031916815260200191505b50935050505060405180910390f35b610b9a61270d565b604051808273ffffffffffffffffffffffffffffffffffffffff1673ffffffffffffffffffffffffffffffffffffffff16815260200191505060405180910390f35b610be4612737565b604051808215151515815260200191505060405180910390f35b610c4060048036036020811015610c1457600080fd5b81019080803573ffffffffffffffffffffffffffffffffffffffff169060200190929190505050612796565b005b610c4a612a93565b6040518080602001828103825283818151815260200191508051906020019080838360005b83811015610c8a578082015181840152602081019050610c6f565b50505050905090810190601f168015610cb75780820380516001836020036101000a031916815260200191505b509250505060405180910390f35b610d1160048036036040811015610cdb57600080fd5b81019080803573ffffffffffffffffffffffffffffffffffffffff16906020019092919080359060200190929190505050612b35565b604051808215151515815260200191505060405180910390f35b610d7760048036036040811015610d4157600080fd5b81019080803573ffffffffffffffffffffffffffffffffffffffff16906020019092919080359060200190929190505050612c02565b604051808215151515815260200191505060405180910390f35b610ea7600480360360a0811015610da757600080fd5b81019080803573ffffffffffffffffffffffffffffffffffffffff169060200190929190803573ffffffffffffffffffffffffffffffffffffffff1690602001909291908035906020019092919080359060200190640100000000811115610e0e57600080fd5b820183602082011115610e2057600080fd5b80359060200191846001830284011164010000000083111715610e4257600080fd5b909192939192939080359060200190640100000000811115610e6357600080fd5b820183602082011115610e7557600080fd5b80359060200191846001830284011164010000000083111715610e9757600080fd5b9091929391929390505050612c20565b005b610eb1612dad565b6040518080602001828103825283818151815260200191508051906020019080838360005b83811015610ef1578082015181840152602081019050610ed6565b50505050905090810190601f168015610f1e5780820380516001836020036101000a031916815260200191505b509250505060405180910390f35b610f34612dea565b6040518080602001828103825283818151815260200191508051906020019080838360005b83811015610f74578082015181840152602081019050610f59565b50505050905090810190601f168015610fa15780820380516001836020036101000a031916815260200191505b509250505060405180910390f35b610ff160048036036020811015610fc557600080fd5b81019080803573ffffffffffffffffffffffffffffffffffffffff169060200190929190505050612e8c565b005b6110556004803603604081101561100957600080fd5b81019080803573ffffffffffffffffffffffffffffffffffffffff169060200190929190803573ffffffffffffffffffffffffffffffffffffffff169060200190929190505050612f9d565b604051808215151515815260200191505060405180910390f35b6110d16004803603604081101561108557600080fd5b81019080803573ffffffffffffffffffffffffffffffffffffffff169060200190929190803573ffffffffffffffffffffffffffffffffffffffff16906020019092919050505061314e565b6040518082815260200191505060405180910390f35b61117e600480360360808110156110fd57600080fd5b810190808035906020019064010000000081111561111a57600080fd5b82018360208201111561112c57600080fd5b8035906020019184600183028401116401000000008311171561114e57600080fd5b909192939192939080351515906020019092919080359060200190929190803590602001909291905050506131d5565b005b6111c26004803603602081101561119657600080fd5b81019080803573ffffffffffffffffffffffffffffffffffffffff1690602001909291905050506132b7565b005b611206600480360360208110156111da57600080fd5b81019080803573ffffffffffffffffffffffffffffffffffffffff16906020019092919050505061363b565b005b61124a6004803603602081101561121e57600080fd5b81019080803573ffffffffffffffffffffffffffffffffffffffff1690602001909291905050506136c1565b005b6113426004803603608081101561126257600080fd5b81019080803573ffffffffffffffffffffffffffffffffffffffff16906020019092919080359060200190929190803590602001906401000000008111156112a957600080fd5b8201836020820111156112bb57600080fd5b803590602001918460018302840111640100000000831117156112dd57600080fd5b9091929391929390803590602001906401000000008111156112fe57600080fd5b82018360208201111561131057600080fd5b8035906020019184600183028401116401000000008311171561133257600080fd5b90919293919293905050506139be565b005b6113c56004803603604081101561135a57600080fd5b81019080803590602001909291908035906020019064010000000081111561138157600080fd5b82018360208201111561139357600080fd5b803590602001918460018302840111640100000000831117156113b557600080fd5b9091929391929390505050613ac7565b005b606060a380548060200260200160405190810160405280929190818152602001828054801561144b57602002820191906000526020600020905b8160009054906101000a900473ffffffffffffffffffffffffffffffffffffffff1673ffffffffffffffffffffffffffffffffffffffff1681526020019060010190808311611401575b5050505050905090565b6060609e8054600181600116156101000203166002900480601f0160208091040260200160405190810160405280929190818152602001828054600181600116156101000203166002900480156114ed5780601f106114c2576101008083540402835291602001916114ed565b820191906000526020600020905b8154815290600101906020018083116114d057829003601f168201915b5050505050905090565b600061150b611504613b39565b8484613ba6565b6001905092915050565b61153273d216153c06e857cd7f72665e0af1d7d82172f494613d9d565b565b6000606a54905090565b600060019054906101000a900460ff168061155d575061155c613f6e565b5b8061157457506000809054906101000a900460ff16155b6115c9576040517f08c379a000000000000000000000000000000000000000000000000000000000815260040180806020018281038252602e81526020018061529d602e913960400191505060405180910390fd5b60008060019054906101000a900460ff161590508015611619576001600060016101000a81548160ff02191690831515021790555060016000806101000a81548160ff0219169083151502179055505b6000898990501415611676576040517f08c379a000000000000000000000000000000000000000000000000000000000815260040180806020018281038252602981526020018061541c6029913960400191505060405180910390fd5b60008787905014156116d3576040517f08c379a00000000000000000000000000000000000000000000000000000000081526004018080602001828103825260248152602001806150d16024913960400191505060405180910390fd5b6000858590501415611730576040517f08c379a00000000000000000000000000000000000000000000000000000000081526004018080602001828103825260268152602001806153476026913960400191505060405180910390fd5b600073ffffffffffffffffffffffffffffffffffffffff168c73ffffffffffffffffffffffffffffffffffffffff1614156117b6576040517f08c379a00000000000000000000000000000000000000000000000000000000081526004018080602001828103825260268152602001806154916026913960400191505060405180910390fd5b6117bf8c613f7f565b6117c88b612e8c565b6117d18a611e0b565b8888609d91906117e2929190614ef9565b508686609e91906117f4929190614ef9565b508484609f9190611806929190614ef9565b50828260a39190611818929190614f79565b5060008090505b8383905081101561192257600160a0600086868581811061183c57fe5b9050602002013573ffffffffffffffffffffffffffffffffffffffff1673ffffffffffffffffffffffffffffffffffffffff1673ffffffffffffffffffffffffffffffffffffffff16815260200190815260200160002060006101000a81548160ff0219169083151502179055508383828181106118b657fe5b9050602002013573ffffffffffffffffffffffffffffffffffffffff1673ffffffffffffffffffffffffffffffffffffffff167fb1c266c79163ba5da9a4deba2a5d1313547c94f50a5db49c1d04d9cc24a66c9d60405160405180910390a2808060010191505061181f565b5080156119445760008060016101000a81548160ff0219169083151502179055505b505050505050505050505050565b61195a612737565b6119cc576040517f08c379a00000000000000000000000000000000000000000000000000000000081526004018080602001828103825260208152602001807f4f776e61626c653a2063616c6c6572206973206e6f7420746865206f776e657281525060200191505060405180910390fd5b600073ffffffffffffffffffffffffffffffffffffffff168173ffffffffffffffffffffffffffffffffffffffff161415611a52576040517f08c379a00000000000000000000000000000000000000000000000000000000081526004018080602001828103825260308152602001806151ef6030913960400191505060405180910390fd5b60a060008273ffffffffffffffffffffffffffffffffffffffff1673ffffffffffffffffffffffffffffffffffffffff16815260200190815260200160002060009054906101000a900460ff1615611af5576040517f08c379a00000000000000000000000000000000000000000000000000000000081526004018080602001828103825260288152602001806154696028913960400191505060405180910390fd5b60a38190806001815401808255809150509060018203906000526020600020016000909192909190916101000a81548173ffffffffffffffffffffffffffffffffffffffff021916908373ffffffffffffffffffffffffffffffffffffffff16021790555050600160a060008373ffffffffffffffffffffffffffffffffffffffff1673ffffffffffffffffffffffffffffffffffffffff16815260200190815260200160002060006101000a81548160ff0219169083151502179055508073ffffffffffffffffffffffffffffffffffffffff167fb1c266c79163ba5da9a4deba2a5d1313547c94f50a5db49c1d04d9cc24a66c9d60405160405180910390a250565b611c01612737565b611c73576040517f08c379a00000000000000000000000000000000000000000000000000000000081526004018080602001828103825260208152602001807f4f776e61626c653a2063616c6c6572206973206e6f7420746865206f776e657281525060200191505060405180910390fd5b611c7c8161413d565b50565b6000611c8c84848461426a565b611d4d84611c98613b39565b611d488560405180606001604052806028815260200161527560289139606960008b73ffffffffffffffffffffffffffffffffffffffff1673ffffffffffffffffffffffffffffffffffffffff1681526020019081526020016000206000611cfe613b39565b73ffffffffffffffffffffffffffffffffffffffff1673ffffffffffffffffffffffffffffffffffffffff168152602001908152602001600020546145249092919063ffffffff16565b613ba6565b600190509392505050565b6000611e01611d65613b39565b84611dfc8560696000611d76613b39565b73ffffffffffffffffffffffffffffffffffffffff1673ffffffffffffffffffffffffffffffffffffffff16815260200190815260200160002060008973ffffffffffffffffffffffffffffffffffffffff1673ffffffffffffffffffffffffffffffffffffffff168152602001908152602001600020546145e490919063ffffffff16565b613ba6565b6001905092915050565b611e13612737565b611e85576040517f08c379a00000000000000000000000000000000000000000000000000000000081526004018080602001828103825260208152602001807f4f776e61626c653a2063616c6c6572206973206e6f7420746865206f776e657281525060200191505060405180910390fd5b600073ffffffffffffffffffffffffffffffffffffffff168173ffffffffffffffffffffffffffffffffffffffff161415611f0b576040517f08c379a000000000000000000000000000000000000000000000000000000000815260040180806020018281038252603581526020018061514c6035913960400191505060405180910390fd5b8060a460006101000a81548173ffffffffffffffffffffffffffffffffffffffff021916908373ffffffffffffffffffffffffffffffffffffffff16021790555050565b600060a460009054906101000a900473ffffffffffffffffffffffffffffffffffffffff16905090565b6000611f83613b39565b9050611f8f8189612f9d565b611fe4576040517f08c379a00000000000000000000000000000000000000000000000000000000081526004018080602001828103825260358152602001806151176035913960400191505060405180910390fd5b611fef88888861426a565b8673ffffffffffffffffffffffffffffffffffffffff168873ffffffffffffffffffffffffffffffffffffffff168273ffffffffffffffffffffffffffffffffffffffff167f06b541ddaa720db2b10a4d0cdac39b8d360425fc073085fac19bc8261467798789898989896040518086815260200180602001806020018381038352878782818152602001925080828437600081840152601f19601f8201169050808301925050508381038252858582818152602001925080828437600081840152601f19601f82011690508083019250505097505050505050505060405180910390a45050505050505050565b6000606860008373ffffffffffffffffffffffffffffffffffffffff1673ffffffffffffffffffffffffffffffffffffffff168152602001908152602001600020549050919050565b61212e612737565b6121a0576040517f08c379a00000000000000000000000000000000000000000000000000000000081526004018080602001828103825260208152602001807f4f776e61626c653a2063616c6c6572206973206e6f7420746865206f776e657281525060200191505060405180910390fd5b600073ffffffffffffffffffffffffffffffffffffffff16603360009054906101000a900473ffffffffffffffffffffffffffffffffffffffff1673ffffffffffffffffffffffffffffffffffffffff167f8be0079c531659141344cd1fd0a4f28419497f9722a3daafe3b4186f6b6457e060405160405180910390a36000603360006101000a81548173ffffffffffffffffffffffffffffffffffffffff021916908373ffffffffffffffffffffffffffffffffffffffff160217905550565b6000606660009054906101000a900473ffffffffffffffffffffffffffffffffffffffff16905090565b6000612295612261565b73ffffffffffffffffffffffffffffffffffffffff163373ffffffffffffffffffffffffffffffffffffffff1614612318576040517f08c379a00000000000000000000000000000000000000000000000000000000081526004018080602001828103825260248152602001806153f86024913960400191505060405180910390fd5b61236583838080601f016020809104026020016040519081016040528093929190818152602001838380828437600081840152601f19601f8201169050808301925050505050505061466c565b905092915050565b600060019054906101000a900460ff168061238c575061238b613f6e565b5b806123a357506000809054906101000a900460ff16155b6123f8576040517f08c379a000000000000000000000000000000000000000000000000000000000815260040180806020018281038252602e81526020018061529d602e913960400191505060405180910390fd5b60008060019054906101000a900460ff161590508015612448576001600060016101000a81548160ff02191690831515021790555060016000806101000a81548160ff0219169083151502179055505b600073ffffffffffffffffffffffffffffffffffffffff16606660009054906101000a900473ffffffffffffffffffffffffffffffffffffffff1673ffffffffffffffffffffffffffffffffffffffff1614156124a8576124a7611515565b5b80156124c95760008060016101000a81548160ff0219169083151502179055505b50565b60006060808d8d8d8d8d8d8d8d6124e1612261565b30604051602001808b73ffffffffffffffffffffffffffffffffffffffff1673ffffffffffffffffffffffffffffffffffffffff1681526020018a73ffffffffffffffffffffffffffffffffffffffff1673ffffffffffffffffffffffffffffffffffffffff168152602001806020018881526020018781526020018681526020018581526020018473ffffffffffffffffffffffffffffffffffffffff1673ffffffffffffffffffffffffffffffffffffffff1681526020018373ffffffffffffffffffffffffffffffffffffffff1673ffffffffffffffffffffffffffffffffffffffff16815260200182810382528a8a82818152602001925080828437600081840152601f19601f8201169050808301925050509b5050505050505050505050506040516020818303038152906040529050606760009054906101000a900473ffffffffffffffffffffffffffffffffffffffff1673ffffffffffffffffffffffffffffffffffffffff166126b587878080601f016020809104026020016040519081016040528093929190818152602001838380828437600081840152601f19601f820116905080830192505050505050506126a78480519060200120614673565b6146cb90919063ffffffff16565b73ffffffffffffffffffffffffffffffffffffffff1614156126e3576126d96147cf565b92509250506126fd565b6126f76000808111156126f257fe5b6147f3565b92509250505b9b509b9950505050505050505050565b6000603360009054906101000a900473ffffffffffffffffffffffffffffffffffffffff16905090565b6000603360009054906101000a900473ffffffffffffffffffffffffffffffffffffffff1673ffffffffffffffffffffffffffffffffffffffff1661277a613b39565b73ffffffffffffffffffffffffffffffffffffffff1614905090565b8073ffffffffffffffffffffffffffffffffffffffff166127b5613b39565b73ffffffffffffffffffffffffffffffffffffffff161415612822576040517f08c379a000000000000000000000000000000000000000000000000000000000815260040180806020018281038252602d8152602001806153a6602d913960400191505060405180910390fd5b8073ffffffffffffffffffffffffffffffffffffffff16600073ffffffffffffffffffffffffffffffffffffffff1614156128a8576040517f08c379a000000000000000000000000000000000000000000000000000000000815260040180806020018281038252602e8152602001806152cb602e913960400191505060405180910390fd5b60a060008273ffffffffffffffffffffffffffffffffffffffff1673ffffffffffffffffffffffffffffffffffffffff16815260200190815260200160002060009054906101000a900460ff16156129925760a26000612906613b39565b73ffffffffffffffffffffffffffffffffffffffff1673ffffffffffffffffffffffffffffffffffffffff16815260200190815260200160002060008273ffffffffffffffffffffffffffffffffffffffff1673ffffffffffffffffffffffffffffffffffffffff16815260200190815260200160002060006101000a81549060ff0219169055612a2f565b600160a160006129a0613b39565b73ffffffffffffffffffffffffffffffffffffffff1673ffffffffffffffffffffffffffffffffffffffff16815260200190815260200160002060008373ffffffffffffffffffffffffffffffffffffffff1673ffffffffffffffffffffffffffffffffffffffff16815260200190815260200160002060006101000a81548160ff0219169083151502179055505b612a37613b39565b73ffffffffffffffffffffffffffffffffffffffff168173ffffffffffffffffffffffffffffffffffffffff167ff4caeb2d6ca8932a215a353d0703c326ec2d81fc68170f320eb2ab49e9df61f960405160405180910390a350565b6060609f8054600181600116156101000203166002900480601f016020809104026020016040519081016040528092919081815260200182805460018160011615610100020316600290048015612b2b5780601f10612b0057610100808354040283529160200191612b2b565b820191906000526020600020905b815481529060010190602001808311612b0e57829003601f168201915b5050505050905090565b6000612bf8612b42613b39565b84612bf38560405180606001604052806025815260200161551c6025913960696000612b6c613b39565b73ffffffffffffffffffffffffffffffffffffffff1673ffffffffffffffffffffffffffffffffffffffff16815260200190815260200160002060008a73ffffffffffffffffffffffffffffffffffffffff1673ffffffffffffffffffffffffffffffffffffffff168152602001908152602001600020546145249092919063ffffffff16565b613ba6565b6001905092915050565b6000612c16612c0f613b39565b848461426a565b6001905092915050565b60a460009054906101000a900473ffffffffffffffffffffffffffffffffffffffff1673ffffffffffffffffffffffffffffffffffffffff16612c61613b39565b73ffffffffffffffffffffffffffffffffffffffff1614612ccd576040517f08c379a000000000000000000000000000000000000000000000000000000000815260040180806020018281038252603b8152602001806154e1603b913960400191505060405180910390fd5b612cd78686614814565b8573ffffffffffffffffffffffffffffffffffffffff168773ffffffffffffffffffffffffffffffffffffffff167f2fe5be0146f74c5bce36c0b80911af6c7d86ff27e89d5cfa61fc681327954e5d87878787876040518086815260200180602001806020018381038352878782818152602001925080828437600081840152601f19601f8201169050808301925050508381038252858582818152602001925080828437600081840152601f19601f82011690508083019250505097505050505050505060405180910390a350505050505050565b60606040518060400160405280600581526020017f312e302e30000000000000000000000000000000000000000000000000000000815250905090565b6060609d8054600181600116156101000203166002900480601f016020809104026020016040519081016040528092919081815260200182805460018160011615610100020316600290048015612e825780601f10612e5757610100808354040283529160200191612e82565b820191906000526020600020905b815481529060010190602001808311612e6557829003601f168201915b5050505050905090565b600060019054906101000a900460ff1680612eab5750612eaa613f6e565b5b80612ec257506000809054906101000a900460ff16155b612f17576040517f08c379a000000000000000000000000000000000000000000000000000000000815260040180806020018281038252602e81526020018061529d602e913960400191505060405180910390fd5b60008060019054906101000a900460ff161590508015612f67576001600060016101000a81548160ff02191690831515021790555060016000806101000a81548160ff0219169083151502179055505b612f708261413d565b612f7861236d565b8015612f995760008060016101000a81548160ff0219169083151502179055505b5050565b60008173ffffffffffffffffffffffffffffffffffffffff168373ffffffffffffffffffffffffffffffffffffffff1614806130b5575060a060008473ffffffffffffffffffffffffffffffffffffffff1673ffffffffffffffffffffffffffffffffffffffff16815260200190815260200160002060009054906101000a900460ff1680156130b4575060a260008373ffffffffffffffffffffffffffffffffffffffff1673ffffffffffffffffffffffffffffffffffffffff16815260200190815260200160002060008473ffffffffffffffffffffffffffffffffffffffff1673ffffffffffffffffffffffffffffffffffffffff16815260200190815260200160002060009054906101000a900460ff16155b5b80613146575060a160008373ffffffffffffffffffffffffffffffffffffffff1673ffffffffffffffffffffffffffffffffffffffff16815260200190815260200160002060008473ffffffffffffffffffffffffffffffffffffffff1673ffffffffffffffffffffffffffffffffffffffff16815260200190815260200160002060009054906101000a900460ff165b905092915050565b6000606960008473ffffffffffffffffffffffffffffffffffffffff1673ffffffffffffffffffffffffffffffffffffffff16815260200190815260200160002060008373ffffffffffffffffffffffffffffffffffffffff1673ffffffffffffffffffffffffffffffffffffffff16815260200190815260200160002054905092915050565b6131dd612261565b73ffffffffffffffffffffffffffffffffffffffff163373ffffffffffffffffffffffffffffffffffffffff1614613260576040517f08c379a00000000000000000000000000000000000000000000000000000000081526004018080602001828103825260248152602001806153f86024913960400191505060405180910390fd5b6132b085858080601f016020809104026020016040519081016040528093929190818152602001838380828437600081840152601f19601f820116905080830192505050505050508484846149d1565b5050505050565b6132bf612737565b613331576040517f08c379a00000000000000000000000000000000000000000000000000000000081526004018080602001828103825260208152602001807f4f776e61626c653a2063616c6c6572206973206e6f7420746865206f776e657281525060200191505060405180910390fd5b600073ffffffffffffffffffffffffffffffffffffffff168173ffffffffffffffffffffffffffffffffffffffff1614156133b7576040517f08c379a00000000000000000000000000000000000000000000000000000000081526004018080602001828103825260308152602001806151ef6030913960400191505060405180910390fd5b60a060008273ffffffffffffffffffffffffffffffffffffffff1673ffffffffffffffffffffffffffffffffffffffff16815260200190815260200160002060009054906101000a900460ff16613459576040517f08c379a000000000000000000000000000000000000000000000000000000000815260040180806020018281038252602881526020018061521f6028913960400191505060405180910390fd5b60008090505b60a3805490508110156135a5578173ffffffffffffffffffffffffffffffffffffffff1660a3828154811061349057fe5b9060005260206000200160009054906101000a900473ffffffffffffffffffffffffffffffffffffffff1673ffffffffffffffffffffffffffffffffffffffff16141561359857600160a38054905003811461357c5760a3600160a38054905003815481106134fb57fe5b9060005260206000200160009054906101000a900473ffffffffffffffffffffffffffffffffffffffff1660a3828154811061353357fe5b9060005260206000200160006101000a81548173ffffffffffffffffffffffffffffffffffffffff021916908373ffffffffffffffffffffffffffffffffffffffff1602179055505b600160a3805490500360a3816135929190615019565b506135a5565b808060010191505061345f565b5060a060008273ffffffffffffffffffffffffffffffffffffffff1673ffffffffffffffffffffffffffffffffffffffff16815260200190815260200160002060006101000a81549060ff02191690558073ffffffffffffffffffffffffffffffffffffffff167fec42077e4a379228eef9f58422079e786670be900ea3257e9d2e2227d0b56abd60405160405180910390a250565b613643612737565b6136b5576040517f08c379a00000000000000000000000000000000000000000000000000000000081526004018080602001828103825260208152602001807f4f776e61626c653a2063616c6c6572206973206e6f7420746865206f776e657281525060200191505060405180910390fd5b6136be816149d7565b50565b6136c9613b39565b73ffffffffffffffffffffffffffffffffffffffff168173ffffffffffffffffffffffffffffffffffffffff16141561374d576040517f08c379a000000000000000000000000000000000000000000000000000000000815260040180806020018281038252602a8152602001806154b7602a913960400191505060405180910390fd5b8073ffffffffffffffffffffffffffffffffffffffff16600073ffffffffffffffffffffffffffffffffffffffff1614156137d3576040517f08c379a000000000000000000000000000000000000000000000000000000000815260040180806020018281038252602e8152602001806152cb602e913960400191505060405180910390fd5b60a060008273ffffffffffffffffffffffffffffffffffffffff1673ffffffffffffffffffffffffffffffffffffffff16815260200190815260200160002060009054906101000a900460ff16156138c657600160a26000613833613b39565b73ffffffffffffffffffffffffffffffffffffffff1673ffffffffffffffffffffffffffffffffffffffff16815260200190815260200160002060008373ffffffffffffffffffffffffffffffffffffffff1673ffffffffffffffffffffffffffffffffffffffff16815260200190815260200160002060006101000a81548160ff02191690831515021790555061395a565b60a160006138d2613b39565b73ffffffffffffffffffffffffffffffffffffffff1673ffffffffffffffffffffffffffffffffffffffff16815260200190815260200160002060008273ffffffffffffffffffffffffffffffffffffffff1673ffffffffffffffffffffffffffffffffffffffff16815260200190815260200160002060006101000a81549060ff02191690555b613962613b39565b73ffffffffffffffffffffffffffffffffffffffff168173ffffffffffffffffffffffffffffffffffffffff167f50546e66e5f44d728365dc3908c63bc5cfeeab470722c1677e3073a6ac294aa160405160405180910390a350565b60006139c8613b39565b90506139d48188612f9d565b613a29576040517f08c379a00000000000000000000000000000000000000000000000000000000081526004018080602001828103825260358152602001806151176035913960400191505060405180910390fd5b613abe81888888888080601f016020809104026020016040519081016040528093929190818152602001838380828437600081840152601f19601f8201169050808301925050505050505087878080601f016020809104026020016040519081016040528093929190818152602001838380828437600081840152601f19601f82011690508083019250505050505050614b1d565b50505050505050565b6000613ad1613b39565b9050613b3381828686868080601f016020809104026020016040519081016040528093929190818152602001838380828437600081840152601f19601f8201169050808301925050505050505060405180602001604052806000815250614b1d565b50505050565b6000606660009054906101000a900473ffffffffffffffffffffffffffffffffffffffff1673ffffffffffffffffffffffffffffffffffffffff163373ffffffffffffffffffffffffffffffffffffffff1614613b9857339050613ba3565b613ba0614c6d565b90505b90565b600073ffffffffffffffffffffffffffffffffffffffff168373ffffffffffffffffffffffffffffffffffffffff161415613c2c576040517f08c379a00000000000000000000000000000000000000000000000000000000081526004018080602001828103825260248152602001806154456024913960400191505060405180910390fd5b600073ffffffffffffffffffffffffffffffffffffffff168273ffffffffffffffffffffffffffffffffffffffff161415613cb2576040517f08c379a00000000000000000000000000000000000000000000000000000000081526004018080602001828103825260228152602001806151a76022913960400191505060405180910390fd5b80606960008573ffffffffffffffffffffffffffffffffffffffff1673ffffffffffffffffffffffffffffffffffffffff16815260200190815260200160002060008473ffffffffffffffffffffffffffffffffffffffff1673ffffffffffffffffffffffffffffffffffffffff168152602001908152602001600020819055508173ffffffffffffffffffffffffffffffffffffffff168373ffffffffffffffffffffffffffffffffffffffff167f8c5be1e5ebec7d5bd14f71427d1e84f3dd0314c0f7b2291e5b200ac8c7c3b925836040518082815260200191505060405180910390a3505050565b6000606660009054906101000a900473ffffffffffffffffffffffffffffffffffffffff169050600073ffffffffffffffffffffffffffffffffffffffff168273ffffffffffffffffffffffffffffffffffffffff161415613e4a576040517f08c379a000000000000000000000000000000000000000000000000000000000815260040180806020018281038252602e815260200180615247602e913960400191505060405180910390fd5b8073ffffffffffffffffffffffffffffffffffffffff168273ffffffffffffffffffffffffffffffffffffffff161415613ecf576040517f08c379a000000000000000000000000000000000000000000000000000000000815260040180806020018281038252602d8152602001806152f9602d913960400191505060405180910390fd5b8173ffffffffffffffffffffffffffffffffffffffff168173ffffffffffffffffffffffffffffffffffffffff167fb9f84b8e65164b14439ae3620df0a4d8786d896996c0282b683f9d8c08f046e860405160405180910390a381606660006101000a81548173ffffffffffffffffffffffffffffffffffffffff021916908373ffffffffffffffffffffffffffffffffffffffff1602179055505050565b600080303b90506000811491505090565b600060019054906101000a900460ff1680613f9e5750613f9d613f6e565b5b80613fb557506000809054906101000a900460ff16155b61400a576040517f08c379a000000000000000000000000000000000000000000000000000000000815260040180806020018281038252602e81526020018061529d602e913960400191505060405180910390fd5b60008060019054906101000a900460ff16159050801561405a576001600060016101000a81548160ff02191690831515021790555060016000806101000a81548160ff0219169083151502179055505b81603360006101000a81548173ffffffffffffffffffffffffffffffffffffffff021916908373ffffffffffffffffffffffffffffffffffffffff160217905550603360009054906101000a900473ffffffffffffffffffffffffffffffffffffffff1673ffffffffffffffffffffffffffffffffffffffff16600073ffffffffffffffffffffffffffffffffffffffff167f8be0079c531659141344cd1fd0a4f28419497f9722a3daafe3b4186f6b6457e060405160405180910390a380156141395760008060016101000a81548160ff0219169083151502179055505b5050565b600073ffffffffffffffffffffffffffffffffffffffff168173ffffffffffffffffffffffffffffffffffffffff1614156141c3576040517f08c379a000000000000000000000000000000000000000000000000000000000815260040180806020018281038252603981526020018061536d6039913960400191505060405180910390fd5b80606760006101000a81548173ffffffffffffffffffffffffffffffffffffffff021916908373ffffffffffffffffffffffffffffffffffffffff1602179055507f5553331329228fbd4123164423717a4a7539f6dfa1c3279a923b98fd681a6c7381604051808273ffffffffffffffffffffffffffffffffffffffff1673ffffffffffffffffffffffffffffffffffffffff16815260200191505060405180910390a150565b600073ffffffffffffffffffffffffffffffffffffffff168373ffffffffffffffffffffffffffffffffffffffff1614156142f0576040517f08c379a00000000000000000000000000000000000000000000000000000000081526004018080602001828103825260258152602001806153d36025913960400191505060405180910390fd5b600073ffffffffffffffffffffffffffffffffffffffff168273ffffffffffffffffffffffffffffffffffffffff161415614376576040517f08c379a00000000000000000000000000000000000000000000000000000000081526004018080602001828103825260238152602001806150ae6023913960400191505060405180910390fd5b6143e2816040518060600160405280602681526020016151c960269139606860008773ffffffffffffffffffffffffffffffffffffffff1673ffffffffffffffffffffffffffffffffffffffff168152602001908152602001600020546145249092919063ffffffff16565b606860008573ffffffffffffffffffffffffffffffffffffffff1673ffffffffffffffffffffffffffffffffffffffff1681526020019081526020016000208190555061447781606860008573ffffffffffffffffffffffffffffffffffffffff1673ffffffffffffffffffffffffffffffffffffffff168152602001908152602001600020546145e490919063ffffffff16565b606860008473ffffffffffffffffffffffffffffffffffffffff1673ffffffffffffffffffffffffffffffffffffffff168152602001908152602001600020819055508173ffffffffffffffffffffffffffffffffffffffff168373ffffffffffffffffffffffffffffffffffffffff167fddf252ad1be2c89b69c2b068fc378daa952ba7f163c4a11628f55a4df523b3ef836040518082815260200191505060405180910390a3505050565b60008383111582906145d1576040517f08c379a00000000000000000000000000000000000000000000000000000000081526004018080602001828103825283818151815260200191508051906020019080838360005b8381101561459657808201518184015260208101905061457b565b50505050905090810190601f1680156145c35780820380516001836020036101000a031916815260200191505b509250505060405180910390fd5b5060008385039050809150509392505050565b600080828401905083811015614662576040517f08c379a000000000000000000000000000000000000000000000000000000000815260040180806020018281038252601b8152602001807f536166654d6174683a206164646974696f6e206f766572666c6f77000000000081525060200191505060405180910390fd5b8091505092915050565b6000919050565b60008160405160200180807f19457468657265756d205369676e6564204d6573736167653a0a333200000000815250601c01828152602001915050604051602081830303815290604052805190602001209050919050565b600060418251146146df57600090506147c9565b60008060006020850151925060408501519150606085015160001a90507f7fffffffffffffffffffffffffffffff5d576e7357a4501ddfe92f46681b20a08260001c111561473357600093505050506147c9565b601b8160ff161415801561474b5750601c8160ff1614155b1561475c57600093505050506147c9565b60018682858560405160008152602001604052604051808581526020018460ff1660ff1681526020018381526020018281526020019450505050506020604051602081039080840390855afa1580156147b9573d6000803e3d6000fd5b5050506020604051035193505050505b92915050565b600060606147eb60405180602001604052806000815250614ce5565b915091509091565b6000606082600b016040518060200160405280600081525091509150915091565b600073ffffffffffffffffffffffffffffffffffffffff168273ffffffffffffffffffffffffffffffffffffffff1614156148b7576040517f08c379a000000000000000000000000000000000000000000000000000000000815260040180806020018281038252601f8152602001807f45524332303a206d696e7420746f20746865207a65726f20616464726573730081525060200191505060405180910390fd5b6148cc81606a546145e490919063ffffffff16565b606a8190555061492481606860008573ffffffffffffffffffffffffffffffffffffffff1673ffffffffffffffffffffffffffffffffffffffff168152602001908152602001600020546145e490919063ffffffff16565b606860008473ffffffffffffffffffffffffffffffffffffffff1673ffffffffffffffffffffffffffffffffffffffff168152602001908152602001600020819055508173ffffffffffffffffffffffffffffffffffffffff16600073ffffffffffffffffffffffffffffffffffffffff167fddf252ad1be2c89b69c2b068fc378daa952ba7f163c4a11628f55a4df523b3ef836040518082815260200191505060405180910390a35050565b50505050565b600073ffffffffffffffffffffffffffffffffffffffff168173ffffffffffffffffffffffffffffffffffffffff161415614a5d576040517f08c379a00000000000000000000000000000000000000000000000000000000081526004018080602001828103825260268152602001806151816026913960400191505060405180910390fd5b8073ffffffffffffffffffffffffffffffffffffffff16603360009054906101000a900473ffffffffffffffffffffffffffffffffffffffff1673ffffffffffffffffffffffffffffffffffffffff167f8be0079c531659141344cd1fd0a4f28419497f9722a3daafe3b4186f6b6457e060405160405180910390a380603360006101000a81548173ffffffffffffffffffffffffffffffffffffffff021916908373ffffffffffffffffffffffffffffffffffffffff16021790555050565b614b278484614cf5565b8373ffffffffffffffffffffffffffffffffffffffff168573ffffffffffffffffffffffffffffffffffffffff167fa78a9be3a7b862d26933ad85fb11d80ef66b8f972d7cbba06621d583943a4098858585604051808481526020018060200180602001838103835285818151815260200191508051906020019080838360005b83811015614bc3578082015181840152602081019050614ba8565b50505050905090810190601f168015614bf05780820380516001836020036101000a031916815260200191505b50838103825284818151815260200191508051906020019080838360005b83811015614c29578082015181840152602081019050614c0e565b50505050905090810190601f168015614c565780820380516001836020036101000a031916815260200191505b509550505050505060405180910390a35050505050565b600060606000368080601f016020809104026020016040519081016040528093929190818152602001838380828437600081840152601f19601f820116905080830192505050505050509050600080369050905073ffffffffffffffffffffffffffffffffffffffff81830151169250829250505090565b6000606060008391509150915091565b600073ffffffffffffffffffffffffffffffffffffffff168273ffffffffffffffffffffffffffffffffffffffff161415614d7b576040517f08c379a00000000000000000000000000000000000000000000000000000000081526004018080602001828103825260218152602001806153266021913960400191505060405180910390fd5b614de7816040518060600160405280602281526020016150f560229139606860008673ffffffffffffffffffffffffffffffffffffffff1673ffffffffffffffffffffffffffffffffffffffff168152602001908152602001600020546145249092919063ffffffff16565b606860008473ffffffffffffffffffffffffffffffffffffffff1673ffffffffffffffffffffffffffffffffffffffff16815260200190815260200160002081905550614e3f81606a54614eaf90919063ffffffff16565b606a81905550600073ffffffffffffffffffffffffffffffffffffffff168273ffffffffffffffffffffffffffffffffffffffff167fddf252ad1be2c89b69c2b068fc378daa952ba7f163c4a11628f55a4df523b3ef836040518082815260200191505060405180910390a35050565b6000614ef183836040518060400160405280601e81526020017f536166654d6174683a207375627472616374696f6e206f766572666c6f770000815250614524565b905092915050565b828054600181600116156101000203166002900490600052602060002090601f016020900481019282601f10614f3a57803560ff1916838001178555614f68565b82800160010185558215614f68579182015b82811115614f67578235825591602001919060010190614f4c565b5b509050614f759190615045565b5090565b828054828255906000526020600020908101928215615008579160200282015b8281111561500757823573ffffffffffffffffffffffffffffffffffffffff168260006101000a81548173ffffffffffffffffffffffffffffffffffffffff021916908373ffffffffffffffffffffffffffffffffffffffff16021790555091602001919060010190614f99565b5b509050615015919061506a565b5090565b8154818355818111156150405781836000526020600020918201910161503f9190615045565b5b505050565b61506791905b8082111561506357600081600090555060010161504b565b5090565b90565b6150aa91905b808211156150a657600081816101000a81549073ffffffffffffffffffffffffffffffffffffffff021916905550600101615070565b5090565b9056fe45524332303a207472616e7366657220746f20746865207a65726f2061646472657373537562726564646974506f696e74733a206e616d652063616e277420626520656d70747945524332303a206275726e20616d6f756e7420657863656564732062616c616e6365537562726564646974506f696e74733a2063616c6c6572206973206e6f7420616e206f70657261746f7220666f7220686f6c646572537562726564646974506f696e74733a20646973747269627574696f6e436f6e74726163742073686f756c64206e6f7420626520304f776e61626c653a206e6577206f776e657220697320746865207a65726f206164647265737345524332303a20617070726f766520746f20746865207a65726f206164647265737345524332303a207472616e7366657220616d6f756e7420657863656564732062616c616e6365537562726564646974506f696e74733a206f70657261746f7220616464726573732073686f756c646e27742062652030537562726564646974506f696e74733a206f70657261746f7220646f65736e27742065786973747347534e526563697069656e743a206e65772052656c617948756220697320746865207a65726f206164647265737345524332303a207472616e7366657220616d6f756e74206578636565647320616c6c6f77616e6365436f6e747261637420696e7374616e63652068617320616c7265616479206265656e20696e697469616c697a6564537562726564646974506f696e74733a206f70657261746f722063616e277420686176652030206164647265737347534e526563697069656e743a206e65772052656c6179487562206973207468652063757272656e74206f6e6545524332303a206275726e2066726f6d20746865207a65726f2061646472657373537562726564646974506f696e74733a2073796d626f6c2063616e277420626520656d70747947534e526563697069656e745369676e61747572653a2074727573746564207369676e657220697320746865207a65726f2061646472657373537562726564646974506f696e74733a20617574686f72697a696e672073656c66206173206f70657261746f7245524332303a207472616e736665722066726f6d20746865207a65726f206164647265737347534e526563697069656e743a2063616c6c6572206973206e6f742052656c6179487562537562726564646974506f696e74733a207375627265646469742063616e277420626520656d70747945524332303a20617070726f76652066726f6d20746865207a65726f2061646472657373537562726564646974506f696e74733a206f70657261746f7220616c726561647920657869737473537562726564646974506f696e74733a206f776e65722073686f756c64206e6f742062652030537562726564646974506f696e74733a207265766f6b696e672073656c66206173206f70657261746f72537562726564646974506f696e74733a206f6e6c7920646973747269627574696f6e20636f6e74726163742063616e206d696e7420706f696e747345524332303a2064656372656173656420616c6c6f77616e63652062656c6f77207a65726fa265627a7a72315820f69077ab61b92cf1bb705eafb549c1885d0c81338fc42c2003d8c156e64c8c6064736f6c63430005100032",
    "source": "/**\n *Submitted for verification at Etherscan.io on 2020-06-09\n*/\n\n// File: @openzeppelin/upgrades/contracts/Initializable.sol\n\npragma solidity >=0.4.24 <0.6.0;\n\nimport \"./lib.sol\";\n\n\n\n// ERC20 and borrows only operators notion from ERC777, accounts can revoke default operator\ncontract SubredditPoints_v0 is Initializable, ISubredditPoints, Ownable, UpdatableGSNRecipientSignature, ERC20 {\n    using SafeMath for uint256;\n    using Address for address;\n\n    event Sent(\n        address indexed operator,\n        address indexed from,\n        address indexed to,\n        uint256 amount,\n        bytes data,\n        bytes operatorData\n    );\n\n    event Minted(address indexed operator, address indexed to, uint256 amount, bytes data, bytes operatorData);\n\n    event Burned(address indexed operator, address indexed from, uint256 amount, bytes data, bytes operatorData);\n\n    event AuthorizedOperator(address indexed operator, address indexed tokenHolder);\n\n    event RevokedOperator(address indexed operator, address indexed tokenHolder);\n\n    event DefaultOperatorAdded(address indexed operator);\n\n    event DefaultOperatorRemoved(address indexed operator);\n\n    // ------------------------------------------------------------------------------------\n    // VARIABLES BLOCK, MAKE SURE ONLY ADD TO THE END\n\n    string private _subreddit;\n    string private _name;\n    string private _symbol;\n\n    // operators notion from ERC777, accounts can revoke default operator\n    mapping(address => bool) private _defaultOperators;\n\n    // Maps operators and revoked default operators to state (enabled/disabled)\n    mapping(address => mapping(address => bool)) private _operators;\n    mapping(address => mapping(address => bool)) private _revokedDefaultOperators;\n\n    // operators notion from ERC777, accounts can revoke default operator\n    // This isn't ever read from - it's only used to respond to the defaultOperators query.\n    address[] private _defaultOperatorsArray;\n\n    address _distributionContract;\n\n    // END OF VARS\n    // ------------------------------------------------------------------------------------\n\n    function initialize(\n        address owner_,\n        address gsnApprover_,\n        address distributionContract_,\n        string calldata subreddit_,\n        string calldata name_,\n        string calldata symbol_,\n\n        address[] calldata defaultOperators_\n    ) external initializer {\n        require(bytes(subreddit_).length != 0, \"SubredditPoints: subreddit can't be empty\");\n        require(bytes(name_).length != 0, \"SubredditPoints: name can't be empty\");\n        require(bytes(symbol_).length != 0, \"SubredditPoints: symbol can't be empty\");\n        require(owner_ != address(0), \"SubredditPoints: owner should not be 0\");\n\n        Ownable.initialize(owner_);\n        UpdatableGSNRecipientSignature.initialize(gsnApprover_);\n\n        updateDistributionContract(distributionContract_);\n\n        _subreddit = subreddit_;\n        _name = name_;\n        _symbol = symbol_;\n\n        _defaultOperatorsArray = defaultOperators_;\n        for (uint256 i = 0; i < defaultOperators_.length; i++) {\n            _defaultOperators[defaultOperators_[i]] = true;\n            emit DefaultOperatorAdded(defaultOperators_[i]);\n        }\n    }\n\n    function mint(\n        address operator,\n        address account,\n        uint256 amount,\n        bytes calldata userData,\n        bytes calldata operatorData\n    ) external {\n        require(_msgSender() == _distributionContract, \"SubredditPoints: only distribution contract can mint points\");\n\n        ERC20._mint(account, amount);\n        emit Minted(operator, account, amount, userData, operatorData);\n    }\n\n    function burn(\n        uint256 amount,\n        bytes calldata userData\n    ) external {\n        address account = _msgSender();\n        _burn(account, account, amount, userData, \"\");\n    }\n\n    function isOperatorFor(\n        address operator,\n        address tokenHolder\n    ) public view returns (bool) {\n        return operator == tokenHolder ||\n            (_defaultOperators[operator] && !_revokedDefaultOperators[tokenHolder][operator]) ||\n            _operators[tokenHolder][operator];\n    }\n\n    function authorizeOperator(address operator) external {\n        require(_msgSender() != operator, \"SubredditPoints: authorizing self as operator\");\n        require(address(0) != operator, \"SubredditPoints: operator can't have 0 address\");\n\n        if (_defaultOperators[operator]) {\n            delete _revokedDefaultOperators[_msgSender()][operator];\n        } else {\n            _operators[_msgSender()][operator] = true;\n        }\n\n        emit AuthorizedOperator(operator, _msgSender());\n    }\n\n    function revokeOperator(address operator) external {\n        require(operator != _msgSender(), \"SubredditPoints: revoking self as operator\");\n        require(address(0) != operator, \"SubredditPoints: operator can't have 0 address\");\n\n        if (_defaultOperators[operator]) {\n            _revokedDefaultOperators[_msgSender()][operator] = true;\n        } else {\n            delete _operators[_msgSender()][operator];\n        }\n\n        emit RevokedOperator(operator, _msgSender());\n    }\n\n    function operatorSend(\n        address sender,\n        address recipient,\n        uint256 amount,\n        bytes calldata userData,\n        bytes calldata operatorData\n    ) external {\n        address operator = _msgSender();\n        require(isOperatorFor(operator, sender), \"SubredditPoints: caller is not an operator for holder\");\n        _transfer(sender, recipient, amount);\n        emit Sent(operator, sender, recipient, amount, userData, operatorData);\n    }\n\n    function operatorBurn(\n        address account,\n        uint256 amount,\n        bytes calldata data,\n        bytes calldata operatorData\n    ) external {\n        address operator = _msgSender();\n        require(isOperatorFor(operator, account), \"SubredditPoints: caller is not an operator for holder\");\n        _burn(operator, account, amount, data, operatorData);\n    }\n\n    function defaultOperators() external view returns (address[] memory) {\n        return _defaultOperatorsArray;\n    }\n\n    function addDefaultOperator(address operator) external onlyOwner {\n        require(operator != address(0), \"SubredditPoints: operator address shouldn't be 0\");\n        require(!_defaultOperators[operator], \"SubredditPoints: operator already exists\");\n\n        _defaultOperatorsArray.push(operator);\n        _defaultOperators[operator] = true;\n\n        emit DefaultOperatorAdded(operator);\n    }\n\n    function removeDefaultOperator(address operator) external onlyOwner {\n        require(operator != address(0), \"SubredditPoints: operator address shouldn't be 0\");\n        require(_defaultOperators[operator], \"SubredditPoints: operator doesn't exists\");\n\n        for (uint256 i = 0; i < _defaultOperatorsArray.length; i++) {\n            if (_defaultOperatorsArray[i] == operator) {\n                if (i != (_defaultOperatorsArray.length - 1)) { // if it's not last element, replace it from the tail\n                    _defaultOperatorsArray[i] = _defaultOperatorsArray[_defaultOperatorsArray.length-1];\n                }\n                _defaultOperatorsArray.length = _defaultOperatorsArray.length - 1;\n                break;\n            }\n        }\n        delete _defaultOperators[operator];\n\n        emit DefaultOperatorRemoved(operator);\n    }\n\n    function _burn(\n        address operator,\n        address account,\n        uint256 amount,\n        bytes memory userData,\n        bytes memory operatorData\n    ) internal {\n        ERC20._burn(account, amount);\n        emit Burned(operator, account, amount, userData, operatorData);\n    }\n\n    function subreddit() external view returns (string memory) {\n        return _subreddit;\n    }\n\n    function name() external view returns (string memory) {\n        return _name;\n    }\n\n    function symbol() external view returns (string memory) {\n        return _symbol;\n    }\n\n    function updateGSNApprover(address gsnApprover) external onlyOwner {\n        updateSigner(gsnApprover);\n    }\n\n    function updateDistributionContract(address distributionContract_) public onlyOwner {\n        require(distributionContract_ != address(0), \"SubredditPoints: distributionContract should not be 0\");\n        _distributionContract = distributionContract_;\n    }\n\n    function distributionContract() external view returns (address) {\n        return _distributionContract;\n    }\n}",
    "sourcePath": "/Users/dzack/Desktop/arb_reddit_points/contracts/SubRedditPoints.sol",
    "compiler": {
        "name": "solc",
        "version": "0.5.16+commit.9c3226ce.Emscripten.clang"
    },
    "schemaVersion": "3.0.23",
    "updatedAt": "2020-07-20T21:54:20.116Z",
    "networkType": "ethereum",
    "devdoc": {
        "methods": {
            "acceptRelayedCall(address,address,bytes,uint256,uint256,uint256,uint256,bytes,uint256)": {
                "details": "Ensures that only transactions with a trusted signature can be relayed through the GSN."
            },
            "allowance(address,address)": {
                "details": "See {IERC20-allowance}."
            },
            "approve(address,uint256)": {
                "details": "See {IERC20-approve}.     * Requirements:     * - `spender` cannot be the zero address."
            },
            "balanceOf(address)": {
                "details": "See {IERC20-balanceOf}."
            },
            "decreaseAllowance(address,uint256)": {
                "details": "Atomically decreases the allowance granted to `spender` by the caller.     * This is an alternative to {approve} that can be used as a mitigation for problems described in {IERC20-approve}.     * Emits an {Approval} event indicating the updated allowance.     * Requirements:     * - `spender` cannot be the zero address. - `spender` must have allowance for the caller of at least `subtractedValue`."
            },
            "getHubAddr()": {
                "details": "Returns the address of the {IRelayHub} contract for this recipient."
            },
            "increaseAllowance(address,uint256)": {
                "details": "Atomically increases the allowance granted to `spender` by the caller.     * This is an alternative to {approve} that can be used as a mitigation for problems described in {IERC20-approve}.     * Emits an {Approval} event indicating the updated allowance.     * Requirements:     * - `spender` cannot be the zero address."
            },
            "initialize(address)": {
                "details": "Sets the trusted signer that is going to be producing signatures to approve relayed calls."
            },
            "isOwner()": {
                "details": "Returns true if the caller is the current owner."
            },
            "owner()": {
                "details": "Returns the address of the current owner."
            },
            "postRelayedCall(bytes,bool,uint256,bytes32)": {
                "details": "See `IRelayRecipient.postRelayedCall`.     * This function should not be overriden directly, use `_postRelayedCall` instead.     * * Requirements:     * - the caller must be the `RelayHub` contract."
            },
            "preRelayedCall(bytes)": {
                "details": "See `IRelayRecipient.preRelayedCall`.     * This function should not be overriden directly, use `_preRelayedCall` instead.     * * Requirements:     * - the caller must be the `RelayHub` contract."
            },
            "relayHubVersion()": {
                "details": "Returns the version string of the {IRelayHub} for which this recipient implementation was built. If {_upgradeRelayHub} is used, the new {IRelayHub} instance should be compatible with this version."
            },
            "renounceOwnership()": {
                "details": "Leaves the contract without owner. It will not be possible to call `onlyOwner` functions anymore. Can only be called by the current owner.     * > Note: Renouncing ownership will leave the contract without an owner, thereby removing any functionality that is only available to the owner."
            },
            "totalSupply()": {
                "details": "See {IERC20-totalSupply}."
            },
            "transfer(address,uint256)": {
                "details": "See {IERC20-transfer}.     * Requirements:     * - `recipient` cannot be the zero address. - the caller must have a balance of at least `amount`."
            },
            "transferFrom(address,address,uint256)": {
                "details": "See {IERC20-transferFrom}.     * Emits an {Approval} event indicating the updated allowance. This is not required by the EIP. See the note at the beginning of {ERC20};     * Requirements: - `sender` and `recipient` cannot be the zero address. - `sender` must have a balance of at least `amount`. - the caller must have allowance for `sender`'s tokens of at least `amount`."
            },
            "transferOwnership(address)": {
                "details": "Transfers ownership of the contract to a new account (`newOwner`). Can only be called by the current owner."
            }
        }
    },
    "userdoc": {
        "methods": {}
    }
}